:020000040000fa
:080000000002040000000000f2
:020000040000fa
:040008004a030000a7
:020000040000fa
:04000c00c802000026
:020000040000fa
:040010000a030000df
:020000040000fa
:04001400e8020000fe
:020000040000fa
:040018002a030000b7
:020000040000fa
:04001c004a03000093
:020000040000fa
:040020004a0300008f
:020000040000fa
:040024004a0300008b
:020000040000fa
:040028004a03000087
:020000040000fa
:04002c004a03000083
:020000040000fa
:040030004a0300007f
:020000040000fa
:040034004a0300007b
:020000040000fa
:040038004a03000077
:020000040000fa
:04003c004a03000073
:020000040000fa
:040040004a0300006f
:020000040000fa
:040044004a0300006b
:020000040000fa
:040048004a03000067
:020000040000fa
:04004c004a03000063
:020000040000fa
:040050004a0300005f
:020000040000fa
:040054004a0300005b
:020000040000fa
:040058004a03000057
:020000040000fa
:04005c004a03000053
:020000040000fa
:040060004a0300004f
:020000040000fa
:040064004a0300004b
:020000040000fa
:040068004a03000047
:020000040000fa
:04006c004a03000043
:020000040000fa
:040070004a0300003f
:020000040000fa
:040074004a0300003b
:020000040000fa
:040078004a03000037
:020000040000fa
:04007c004a03000033
:020000040000fa
:040080004a0300002f
:020000040000fa
:040084004a0300002b
:020000040000fa
:040088004a03000027
:020000040000fa
:04008c004a03000023
:020000040000fa
:040090004a0300001f
:020000040000fa
:040094004a0300001b
:020000040000fa
:040098004a03000017
:020000040000fa
:04009c004a03000013
:020000040000fa
:0400a0004a0300000f
:020000040000fa
:0400a4004a0300000b
:020000040000fa
:0400a8004a03000007
:020000040000fa
:0400ac004a03000003
:020000040000fa
:0400b0004a030000ff
:020000040000fa
:0400b4004a030000fb
:020000040000fa
:0400b8004a030000f7
:020000040000fa
:0400bc004a030000f3
:020000040000fa
:0400c0004a030000ef
:020000040000fa
:0400c4004a030000eb
:020000040000fa
:0400c8004a030000e7
:020000040000fa
:0400cc004a030000e3
:020000040000fa
:0400d0004a030000df
:020000040000fa
:0400d4004a030000db
:020000040000fa
:0400d8004a030000d7
:020000040000fa
:0400dc004a030000d3
:020000040000fa
:0400e0004a030000cf
:020000040000fa
:0400e4004a030000cb
:020000040000fa
:0400e8004a030000c7
:020000040000fa
:0400ec004a030000c3
:020000040000fa
:0400f0004a030000bf
:020000040000fa
:0400f4004a030000bb
:020000040000fa
:0400f8004a030000b7
:020000040000fa
:0400fc004a030000b3
:020000040000fa
:040100004a030000ae
:020000040000fa
:040104004a030000aa
:020000040000fa
:040108004a030000a6
:020000040000fa
:04010c004a030000a2
:020000040000fa
:040110004a0300009e
:020000040000fa
:040114004a0300009a
:020000040000fa
:040118004a03000096
:020000040000fa
:04011c004a03000092
:020000040000fa
:040120004a0300008e
:020000040000fa
:040124004a0300008a
:020000040000fa
:040128004a03000086
:020000040000fa
:04012c004a03000082
:020000040000fa
:040130004a0300007e
:020000040000fa
:040134004a0300007a
:020000040000fa
:040138004a03000076
:020000040000fa
:04013c004a03000072
:020000040000fa
:040140004a0300006e
:020000040000fa
:040144004a0300006a
:020000040000fa
:040148004a03000066
:020000040000fa
:04014c004a03000062
:020000040000fa
:040150004a0300005e
:020000040000fa
:040154004a0300005a
:020000040000fa
:040158004a03000056
:020000040000fa
:04015c004a03000052
:020000040000fa
:040160004a0300004e
:020000040000fa
:040164004a0300004a
:020000040000fa
:040168004a03000046
:020000040000fa
:040208004a030000a5
:020000040000fa
:04020c00c802000024
:020000040000fa
:040210000a030000dd
:020000040000fa
:04021400e8020000fc
:020000040000fa
:040218002a030000b5
:020000040000fa
:04021c004a03000091
:020000040000fa
:040220004a0300008d
:020000040000fa
:040224004a03000089
:020000040000fa
:040228004a03000085
:020000040000fa
:04022c004a03000081
:020000040000fa
:040230004a0300007d
:020000040000fa
:040234004a03000079
:020000040000fa
:040238004a03000075
:020000040000fa
:04023c004a03000071
:020000040000fa
:040240004a0300006d
:020000040000fa
:040244004a03000069
:020000040000fa
:040248004a03000065
:020000040000fa
:04024c004a03000061
:020000040000fa
:040250004a0300005d
:020000040000fa
:040254004a03000059
:020000040000fa
:040258004a03000055
:020000040000fa
:04025c004a03000051
:020000040000fa
:040260004a0300004d
:020000040000fa
:040264004a03000049
:020000040000fa
:040268004a03000045
:020000040000fa
:04026c004a03000041
:020000040000fa
:040270004a0300003d
:020000040000fa
:040274004a03000039
:020000040000fa
:040278004a03000035
:020000040000fa
:04027c004a03000031
:020000040000fa
:040280004a0300002d
:020000040000fa
:040284004a03000029
:020000040000fa
:040288004a03000025
:020000040000fa
:04028c004a03000021
:020000040000fa
:040290004a0300001d
:020000040000fa
:040294004a03000019
:020000040000fa
:040298004a03000015
:020000040000fa
:04029c004a03000011
:020000040000fa
:0402a0004a0300000d
:020000040000fa
:0402a4004a03000009
:020000040000fa
:0402a8004a03000005
:020000040000fa
:0402ac004a03000001
:020000040000fa
:0402b0004a030000fd
:020000040000fa
:0402b4004a030000f9
:020000040000fa
:0402b8004a030000f5
:020000040000fa
:0402bc004a030000f1
:020000040000fa
:0402c0004a030000ed
:020000040000fa
:0402c4004a030000e9
:020000040000fa
:0402c8004a030000e5
:020000040000fa
:0402cc004a030000e1
:020000040000fa
:0402d0004a030000dd
:020000040000fa
:0402d4004a030000d9
:020000040000fa
:0402d8004a030000d5
:020000040000fa
:0402dc004a030000d1
:020000040000fa
:0402e0004a030000cd
:020000040000fa
:0402e4004a030000c9
:020000040000fa
:0402e8004a030000c5
:020000040000fa
:0402ec004a030000c1
:020000040000fa
:0402f0004a030000bd
:020000040000fa
:0402f4004a030000b9
:020000040000fa
:0402f8004a030000b5
:020000040000fa
:0402fc004a030000b1
:020000040000fa
:040300004a030000ac
:020000040000fa
:040304004a030000a8
:020000040000fa
:040308004a030000a4
:020000040000fa
:04030c004a030000a0
:020000040000fa
:040310004a0300009c
:020000040000fa
:040314004a03000098
:020000040000fa
:040318004a03000094
:020000040000fa
:04031c004a03000090
:020000040000fa
:040320004a0300008c
:020000040000fa
:040324004a03000088
:020000040000fa
:040328004a03000084
:020000040000fa
:04032c004a03000080
:020000040000fa
:040330004a0300007c
:020000040000fa
:040334004a03000078
:020000040000fa
:040338004a03000074
:020000040000fa
:04033c004a03000070
:020000040000fa
:040340004a0300006c
:020000040000fa
:040344004a03000068
:020000040000fa
:040348004a03000064
:020000040000fa
:04034c004a03000060
:020000040000fa
:040350004a0300005c
:020000040000fa
:040354004a03000058
:020000040000fa
:040358004a03000054
:020000040000fa
:04035c004a03000050
:020000040000fa
:040360004a0300004c
:020000040000fa
:040364004a03000048
:020000040000fa
:040368004a03000044
:020000040000fa
:100400004f8220000eff20000e0188000000000037
:10041000000020000000e000020032000001200087
:1004200020028800140007009c0007000000e00084
:1004300003003a00a056200001002000020037000f
:100440000000200001002000810f70000100320038
:1004500014000700000020000000e000020032004d
:10046000000002000000000038050200000000004b
:100470000040da000000fe004440a9008000200097
:100480000000e0000300320000002000a00188000e
:100490004440a800000006008a1f78008b1f7800e7
:1004a0000000060091018800800478000000eb0045
:1004b0001a003700e284440032a0b4009905ba0063
:1004c000e284440032a0b4009906ba00e2844400f9
:1004d00032a0b4000006eb00476fde00fd07b2005b
:1004e000636ce10003003a00ebff07000000eb0043
:1004f0000a003700606ce10004003a00005deb0088
:100500008b05e900fdff3e00040037006168e10053
:10051000010032000086eb000b00070019c7ba008b
:100520001905ba000e04e00003003a000a00e000da
:10053000e0ff3a0000000600fe07b2009e018800be
:100540008a047800f5ff3700395dba008b05e900b1
:100550000c003200295dba008b05e900080032006a
:100560000c00e00003003a00e284440032a0b40032
:10057000f5ff370019ddba008b05e900faff3a00f4
:100580008904e800e184440032a0b40000000600c1
:100590003600f800809fbe00829fbe00849fbe0090
:1005a000869fbe000000fa008020a9000000eb003a
:1005b0003c0107000080fa004f03be004f02be005e
:1005c0004f01be004f00be003600f900004006009b
:1005d0003600f800809fbe00829fbe00849fbe0050
:1005e000869fbe000000fa00330107008040a9008a
:1005f000100020002b0107000080fa004f03be000e
:100600004f02be004f01be004f00be003600f90091
:10061000004006003600f800809fbe00829fbe00aa
:10062000849fbe00869fbe000000fa008060a90083
:10063000200020001b0107000080fa004f03be00cd
:100640004f02be004f01be004f00be003600f90051
:10065000004006003600f800809fbe00829fbe006a
:10066000849fbe00869fbe000000fa008080a90023
:10067000300020000b0107000080fa004f03be008d
:100680004f02be004f01be004f00be003600f90011
:10069000004006000040da000000fe0000000500f7
:020000040000fa
:1006a0003101000000000000000000000000000018
:020000040000fa
:1006b0000000fa0041e2a9000080fa0000000600f4
:1006c0000200fa00000f78000112800000002800ec
:1006d000008060000000e00026003a001e00780064
:1006e000c300dd00003528000080400010007800c5
:1006f000101288004342a8001e0078004300dd006d
:100700008080e8000035280000804000100078005c
:10071000201288001e0078004300dd00e400400045
:1007200000352800008040001000780000f0a00094
:10073000001288001e0078004300dd00e600400043
:1007400000352800008040001040780061406000c3
:100750000080fb00610060004b00dd00411680005e
:1007600001b0a100010070004016880010c0b30065
:10077000010037000040eb000080fa000000060096
:100780000200fa00004f78001e80fb004012880033
:100790000000000000128000610060000000e00026
:1007a000fcff320040128000004078000080fa0018
:1007b000000006000200fa00000f78009e0078009a
:1007c00041128800000000000012800061006000fb
:1007d0000000e000fcff3200401280000080fa00c0
:1007e000000006000600fa00100798002107980094
:1007f0009e009000010f7800060037001e00780070
:1008000010407800deff07009e00780080487800e6
:100810001e0fe8002e00900000f0a7000000ea0084
:100820000000ea004f00de0000407800ae009000bb
:100830008100e900210798000004e000efff3a0082
:100840000080fa00000006000600fa001007980079
:10085000210798009e009000010f780004003700e7
:100860001e007800104078001e0fe800c4ff07004b
:100870002e00900000f0a7000000ea000000ea004f
:100880004f00de0000407800ae0090008100e900db
:10089000210798000004e000f1ff3a000080fa0010
:1008a000000006000600fa001007980021079800d3
:1008b0009e009000010f7800050037000040eb001b
:1008c000afff07009e007800804878001e0fe80008
:1008d0002e00900000f0a7000000ea000000ea00ef
:1008e0004f00de0000407800ae0090008100e9007b
:1008f000210798000004e000f0ff3a000080fa00b1
:10090000000006000200fa00004f78001e80fb0085
:10091000401288000080fa00000006000000fa0083
:1009200040128000004078000080fa0000000600bd
:100930000000fa00210480000040200000806000d8
:100940000000e00006003200104180000000e000de
:100950000200320010418000000001008540a90023
:100960000080fa00000006000200fa00000f780084
:100970009e007800114188000080fa000000060007
:100980000000fa0000102300203a88004827ef00fa
:100990004e27ef007027ef007227ef007427ef005b
:1009a0007627ef001200200080072000a109200018
:1009b00033742000804978008149780082497800aa
:1009c0000001eb006004200071052000237420006a
:1009d0008049780081497800824978000080fa00d7
:1009e000000006000000fa00c422ef00cc22ef0055
:1009f0007009200000168800f07f2c004016880047
:100a00005620ef005820ef005a20ef006e20ef0034
:100a10007020ef007220ef00c622ef00ce22ef0020
:100a20007000200000278800c0012d0010278800da
:080a30000080fa00000006003e
:020000040000fa
:100a3800f03fb1000180b10006003500ee03090067
:100a480000000000403fb1000180b100fbff3d0005
:100a58001000b000203fb0000200350000800900ff
:080a6800000000000000060080
:020000040000fa
:100a70000000fa002a00070000502300c1002000f7
:100a8000edff07000000eb000dff0700c0ac2a00df
:100a90001b00070000502300c1002000e6ff0700f4
:100aa000faff37000200fa00000f78009e0078007d
:100ab00001418800ffff37000000fa00008020009d
:100ac0008007780080812000000188000080fa0003
:040ad000000006001c
:020000040000fa
:100ad400200800000200000002000000ffff0000e8
:100ae40000080000200000000000000022080000b0
:0c0af400020000000000000000000000f4
:020000040000fa
:100b00000200fa00000f7800cd82a9001e007800d4
:100b100028ff0700cd82a8000080fa000000060030
:100b20000000fa00afff07000300070094ff070072
:100b30000080fa00000006000000fa000080fa00c1
:040b400000000600ab
:020000040000fa
:0200000401f009
:04000000ffff0000fe
:020000040000fa
:0200000401f009
:04000800ffff0000f6
:020000040000fa
:0200000401f009
:04000c00f9ff0000f8
:020000040000fa
:0200000401f009
:04001000bfff00002e
:020000040000fa
:0200000401f009
:040014005fff00008a
:020000040000fa
:0200000401f009
:04001800ffff0000e6
:020000040000fa
:0200000401f009
:04001c00ffff0000e2
:020000040000fa
:0200000401f009
:04002000ffff0000de
:00000001FF
