:020000040000fa
:080000000002040000000000f2
:020000040000fa
:0400080032040000be
:020000040000fa
:04000c00d802000016
:020000040000fa
:040010001a030000cf
:020000040000fa
:04001400f8020000ee
:020000040000fa
:040018003a030000a7
:020000040000fa
:04001c0032040000aa
:020000040000fa
:0400200032040000a6
:020000040000fa
:0400240032040000a2
:020000040000fa
:04002800320400009e
:020000040000fa
:04002c00320400009a
:020000040000fa
:040030003204000096
:020000040000fa
:040034003204000092
:020000040000fa
:04003800320400008e
:020000040000fa
:04003c00320400008a
:020000040000fa
:040040003204000086
:020000040000fa
:040044003204000082
:020000040000fa
:04004800320400007e
:020000040000fa
:04004c00320400007a
:020000040000fa
:040050003204000076
:020000040000fa
:04005400b6030000ef
:020000040000fa
:040058005a03000047
:020000040000fa
:04005c00320400006a
:020000040000fa
:040060003204000066
:020000040000fa
:040064003204000062
:020000040000fa
:04006800320400005e
:020000040000fa
:04006c00320400005a
:020000040000fa
:040070003204000056
:020000040000fa
:040074003204000052
:020000040000fa
:04007800320400004e
:020000040000fa
:04007c00320400004a
:020000040000fa
:040080003204000046
:020000040000fa
:040084003204000042
:020000040000fa
:04008800320400003e
:020000040000fa
:04008c00320400003a
:020000040000fa
:040090003204000036
:020000040000fa
:040094003204000032
:020000040000fa
:04009800320400002e
:020000040000fa
:04009c00320400002a
:020000040000fa
:0400a0003204000026
:020000040000fa
:0400a4003204000022
:020000040000fa
:0400a800320400001e
:020000040000fa
:0400ac00320400001a
:020000040000fa
:0400b0003204000016
:020000040000fa
:0400b4003204000012
:020000040000fa
:0400b800320400000e
:020000040000fa
:0400bc00320400000a
:020000040000fa
:0400c0003204000006
:020000040000fa
:0400c4003204000002
:020000040000fa
:0400c80032040000fe
:020000040000fa
:0400cc0032040000fa
:020000040000fa
:0400d00032040000f6
:020000040000fa
:0400d40032040000f2
:020000040000fa
:0400d80032040000ee
:020000040000fa
:0400dc0032040000ea
:020000040000fa
:0400e00032040000e6
:020000040000fa
:0400e40032040000e2
:020000040000fa
:0400e80032040000de
:020000040000fa
:0400ec0032040000da
:020000040000fa
:0400f00032040000d6
:020000040000fa
:0400f40032040000d2
:020000040000fa
:0400f80032040000ce
:020000040000fa
:0400fc0032040000ca
:020000040000fa
:0401000032040000c5
:020000040000fa
:0401040032040000c1
:020000040000fa
:0401080032040000bd
:020000040000fa
:04010c0032040000b9
:020000040000fa
:0401100032040000b5
:020000040000fa
:0401140032040000b1
:020000040000fa
:0401180032040000ad
:020000040000fa
:04011c0032040000a9
:020000040000fa
:0401200032040000a5
:020000040000fa
:0401240032040000a1
:020000040000fa
:04012800320400009d
:020000040000fa
:04012c001c040000af
:020000040000fa
:040130003204000095
:020000040000fa
:040134003204000091
:020000040000fa
:04013800320400008d
:020000040000fa
:04013c003204000089
:020000040000fa
:040140003204000085
:020000040000fa
:040144003204000081
:020000040000fa
:04014800320400007d
:020000040000fa
:04014c003204000079
:020000040000fa
:040150003204000075
:020000040000fa
:040154003204000071
:020000040000fa
:04015800320400006d
:020000040000fa
:04015c003204000069
:020000040000fa
:040160003204000065
:020000040000fa
:040164003204000061
:020000040000fa
:04016800320400005d
:020000040000fa
:0402080032040000bc
:020000040000fa
:04020c00d802000014
:020000040000fa
:040210001a030000cd
:020000040000fa
:04021400f8020000ec
:020000040000fa
:040218003a030000a5
:020000040000fa
:04021c0032040000a8
:020000040000fa
:0402200032040000a4
:020000040000fa
:0402240032040000a0
:020000040000fa
:04022800320400009c
:020000040000fa
:04022c003204000098
:020000040000fa
:040230003204000094
:020000040000fa
:040234003204000090
:020000040000fa
:04023800320400008c
:020000040000fa
:04023c003204000088
:020000040000fa
:040240003204000084
:020000040000fa
:040244003204000080
:020000040000fa
:04024800320400007c
:020000040000fa
:04024c003204000078
:020000040000fa
:040250003204000074
:020000040000fa
:04025400b6030000ed
:020000040000fa
:040258005a03000045
:020000040000fa
:04025c003204000068
:020000040000fa
:040260003204000064
:020000040000fa
:040264003204000060
:020000040000fa
:04026800320400005c
:020000040000fa
:04026c003204000058
:020000040000fa
:040270003204000054
:020000040000fa
:040274003204000050
:020000040000fa
:04027800320400004c
:020000040000fa
:04027c003204000048
:020000040000fa
:040280003204000044
:020000040000fa
:040284003204000040
:020000040000fa
:04028800320400003c
:020000040000fa
:04028c003204000038
:020000040000fa
:040290003204000034
:020000040000fa
:040294003204000030
:020000040000fa
:04029800320400002c
:020000040000fa
:04029c003204000028
:020000040000fa
:0402a0003204000024
:020000040000fa
:0402a4003204000020
:020000040000fa
:0402a800320400001c
:020000040000fa
:0402ac003204000018
:020000040000fa
:0402b0003204000014
:020000040000fa
:0402b4003204000010
:020000040000fa
:0402b800320400000c
:020000040000fa
:0402bc003204000008
:020000040000fa
:0402c0003204000004
:020000040000fa
:0402c4003204000000
:020000040000fa
:0402c80032040000fc
:020000040000fa
:0402cc0032040000f8
:020000040000fa
:0402d00032040000f4
:020000040000fa
:0402d40032040000f0
:020000040000fa
:0402d80032040000ec
:020000040000fa
:0402dc0032040000e8
:020000040000fa
:0402e00032040000e4
:020000040000fa
:0402e40032040000e0
:020000040000fa
:0402e80032040000dc
:020000040000fa
:0402ec0032040000d8
:020000040000fa
:0402f00032040000d4
:020000040000fa
:0402f40032040000d0
:020000040000fa
:0402f80032040000cc
:020000040000fa
:0402fc0032040000c8
:020000040000fa
:0403000032040000c3
:020000040000fa
:0403040032040000bf
:020000040000fa
:0403080032040000bb
:020000040000fa
:04030c0032040000b7
:020000040000fa
:0403100032040000b3
:020000040000fa
:0403140032040000af
:020000040000fa
:0403180032040000ab
:020000040000fa
:04031c0032040000a7
:020000040000fa
:0403200032040000a3
:020000040000fa
:04032400320400009f
:020000040000fa
:04032800320400009b
:020000040000fa
:04032c001c040000ad
:020000040000fa
:040330003204000093
:020000040000fa
:04033400320400008f
:020000040000fa
:04033800320400008b
:020000040000fa
:04033c003204000087
:020000040000fa
:040340003204000083
:020000040000fa
:04034400320400007f
:020000040000fa
:04034800320400007b
:020000040000fa
:04034c003204000077
:020000040000fa
:040350003204000073
:020000040000fa
:04035400320400006f
:020000040000fa
:04035800320400006b
:020000040000fa
:04035c003204000067
:020000040000fa
:040360003204000063
:020000040000fa
:04036400320400005f
:020000040000fa
:04036800320400005b
:020000040000fa
:10040000cf9020000eff20000e01880000000000a9
:10041000000020000000e000020032000001200087
:100420002002880014000700850107000000e0009a
:1004300003003a00a047220001002000020037001c
:100440000000200001002000810f70000100320038
:1004500014000700000020000000e000020032004d
:100460000000020000000000b825020000000000ab
:100470000040da000000fe004440a9008007200090
:100480000000e0000300320000002000a00188000e
:100490004440a800000006008a1f78008b1f7800e7
:1004a0000000060091018800800478000000eb0045
:1004b0001a003700e284440032a0b4009905ba0063
:1004c000e284440032a0b4009906ba00e2844400f9
:1004d00032a0b4000006eb00476fde00fd07b2005b
:1004e000636ce10003003a00ebff07000000eb0043
:1004f0000a003700606ce10004003a00005deb0088
:100500008b05e900fdff3e00040037006168e10053
:10051000010032000086eb000b00070019c7ba008b
:100520001905ba000e04e00003003a000a00e000da
:10053000e0ff3a0000000600fe07b2009e018800be
:100540008a047800f5ff3700395dba008b05e900b1
:100550000c003200295dba008b05e900080032006a
:100560000c00e00003003a00e284440032a0b40032
:10057000f5ff370019ddba008b05e900faff3a00f4
:100580008904e800e184440032a0b40000000600c1
:10059000000000000000000000000000000000005b
:1005a000000000000000000000000000000000004b
:1005b0003600f800809fbe00829fbe00849fbe0070
:1005c000869fbe000000fa008020a9000000eb001a
:1005d0009b1107000080fa004f03be004f02be00cf
:1005e0004f01be004f00be003600f900004006007b
:1005f0003600f800809fbe00829fbe00849fbe0030
:10060000869fbe000000fa00921107008040a900fa
:10061000100020008a1107000080fa004f03be007e
:100620004f02be004f01be004f00be003600f90071
:10063000004006003600f800809fbe00829fbe008a
:10064000849fbe00869fbe000000fa008060a90063
:10065000200020007a1107000080fa004f03be003e
:100660004f02be004f01be004f00be003600f90031
:10067000004006003600f800809fbe00829fbe004a
:10068000849fbe00869fbe000000fa008080a90003
:10069000300020006a1107000080fa004f03be00fe
:1006a0004f02be004f01be004f00be003600f900f1
:1006b000004006003600f800809fbe00829fbe000a
:1006c000849fbe00869fbe000000fa002043800089
:1006d000000001007142800060428000808f500065
:1006e00002003a009580a900190037008580a90012
:1006f0001000370070428000904078008180fb003d
:10070000211188000000e8007042880071428000da
:10071000a0852000808f500002003a001085200044
:10072000704288007142800060428000808f5000db
:1007300006003200111180000020200000806000bf
:100740000000e000ebff3200010037000000000075
:100750000080fa004f03be004f02be004f01be00f2
:100760004f00be003600f900004006003600f800d9
:10077000809fbe00829fbe00849fbe00869fbe00f9
:100780000000fa0030438000000001008560a900ed
:100790001e00370040428000311180008140780007
:1007a000014878004142800020862000808f500060
:1007b00009003200404280008000e8005042800082
:1007c000808f500004003200404280000000e800aa
:1007d000404288000d003700414280002086200002
:1007e000808f500007003a0051428000a085200011
:1007f000808f500003003200a08520004042880016
:100800000200370010c0b30050e8b700101180009c
:10081000610060000000e000deff3a000080fa00a6
:100820004f03be004f02be004f01be004f00be008e
:100830003600f90000400600801f78000000fa0032
:1008400010118000620060000000e0000100320032
:100850002222a9008c20a9000080fa004f00780015
:10086000004006000040da000000fe000a00fa0026
:1008700011002000b1bf9f00c0bf9f006a805700d9
:100880003d0307004fb897000080fa000000060003
:100890000a00fa00e20f500034003e004048800099
:1008a000e10f500003003200e20f500011003a0047
:1008b0000c003700032220000300e00001003a0092
:1008c0000040da002002e200020035002822ef009a
:1008d00021e2a8002342ab000d003a002342a80009
:1008e0000b003700032320000300e00001003a0062
:1008f0000040da003002e200020035003822ef004a
:1009000031e2a8003342ab0001003a003342a800b4
:10091000820178000b0037003102fb00e10f50002c
:1009200004003a002322ab00feff3a0024118800a5
:10093000030037003322ab00feff3a00a411880009
:100940008301e9000300e000f3ff3a00e10f5000eb
:1009500003003a002302ab00feff32000b00370019
:100960003302ab00feff32000800370033002000e6
:10097000b3bf9f00c0bf9f00d1bf9f00e2bf9f00d9
:100980006a805700fe0207006fb9970002007800e6
:100990000080fa00000006000a00fa005100200062
:1009a000b1bf9f00c0bf9f006a805700f6020700da
:1009b0005fb897000080fa0000000600889fbe0024
:1009c00080047800504880000000e00004003a00f5
:1009d0000e0007000084eb000000e0000800350076
:1009e000584880000900e00005003200090044007a
:1009f000060007000000e00001003d000084eb005d
:100a0000080078004f04be00000006008000780057
:100a10000100e00003003a00000020005048880078
:100a2000000005000080eb0002002000828f5000d3
:100a300002003e00514888000000eb000000060064
:100a400000000500889fbe008a9fbe008c1f7800b2
:100a5000660007006d00330003866c006450e100ff
:100a60002e0032006420e100330032006150e100ca
:100a70002f0032006120e1003100320085855500f1
:100a8000eb07b00009002000080420000500370033
:100a90000804440089844c000a0031000603430026
:100aa00087834b000001530081815b00f8ff330016
:100ab0000203be000800a0000804440089844c0022
:100ac000f6ff3900c639dd008301730001003200f2
:100ad000130020008904d1000884d3000998a300e2
:100ae000050032000800a7000300a0008904d1001f
:100af0000884d3008b05e8008904d1000884d30062
:100b00000001eb000281d2001200070001f0a100f9
:100b10000cf0a70001f0a000450037006420e100c0
:100b2000470032000801be000200be00f7ff370098
:100b30006120e100420032006000b800f3ff37009e
:100b40000000200001f82700f0ff3700140020000b
:100b50003e00370081002000618055000b003d0001
:100b60000b00200061fe2f000100e1001d00340099
:100b700082817100610164008904d1000884d3007e
:100b80000000e800faff3a007100200061006400f4
:100b9000030070000200600009003200610444009c
:100ba000e0844c000988a500050032008b05e800b0
:100bb0006808e10002003a008904d1000884d300eb
:100bc000f20f20000258e10005003d00c75ddd0086
:100bd000f907b2008980750008007800000006005f
:100be0000bf827008b007800000005000004be0011
:100bf000310007000003be000405be000200be0075
:100c00002d000700844f7500000006000200be00a2
:100c10006450e100050036006420e1000200360067
:100c20000968a30001003a000800be000160a000ae
:100c30004f0678004f05be004f04be0000000600be
:100c4000f0ff2f00f1ff2700f9ff3700889fbe005b
:100c50008a9fbe00841f7800e4ff07004f007800e1
:100c600011003300f0ff2f00838f6c0006003b0063
:100c7000040565000a00a7000800370009f0a60077
:100c80001000200008003700820f5400838f5c00a2
:100c9000030039001000200001003e000000200089
:100ca00009f0a7000000ea004f05be004f04be0097
:100cb0000000e00000000600c70ade00f107b200f5
:100cc000f50fb20008003200e1cf4200020032000e
:100cd0000170a00024000500810f700001003200a7
:100ce0000408050044000500810f700002003a006e
:100cf000140005008502e9000000400081c04800a2
:100d0000fcff3b000170a00024000500800178007a
:100d100002003700b15978000201e9000200e0004a
:100d2000fcff3a0000000600018a20006b0007006b
:100d3000800078000080eb000100e0000400350036
:100d4000018a2000a0002000020007004f80de0082
:100d500000000600889fbe008a1f78000004be00c5
:100d6000c900900069009000808f50000600390093
:100d700009007800b1000700800078000080eb00d7
:100d80000100e00017003500084578004900900098
:100d900008587800c00498001900780000b8a30033
:100da00004003a0000a8a30008003200ea4f5400f3
:100db00006003a00090078000d0007008000780066
:100dc0000080eb000100e00006003a0000c02000b7
:100dd000190060000200320049009000e004980011
:100de0000a80fb004f0578004f04be00000006009b
:100df000889fbe008a1f7800000478000800e00089
:100e00000d003a00e88e2000700544008004eb00dd
:100e1000580078000000e00004003200f4ff0700f2
:100e20000000e00001003d008084eb008a0f5400c8
:100e3000f7ff3a002500370000002200180060008c
:100e40008004eb0021003200a80490000f0037005e
:100e500009015100384090000000fb008900780033
:100e60008bfe07000000e00007003c002800900017
:100e70004004980060049800500c98001890a0005e
:100e80008084eb001100370080844400480190000a
:100e9000828f5400eeff3900280090004004980033
:100ea0009800780002c020000281600001003a0032
:100eb0003800900001e8a3000200320060049800ae
:100ec00001003700500c98008004eb000900780006
:100ed0004f0578004f04be0000000600889fbe004a
:100ee0008a9fbe0080047800010478002c0037003f
:100ef000c800900068009000808f50000400390006
:100f0000080078004d0007000000e00037003500c1
:100f1000004020001800600009003200a1002000fd
:100f2000090078003b000700800578000b00e00016
:100f300003003200618514000a8545000400370073
:100f4000090078002d000700000578008005eb00ff
:100f500048009000e8009000808050008a8f500088
:100f600002003100010578008005eb000a017800dd
:100f70008900780065ff0700480090000a004000e3
:100f8000400498000b00e0000400320008007800e4
:100f900097ff07000000e00014003a008a84440034
:100fa0001904e000d2ff3a00008020001800600021
:100fb00006003200080078008dff070080007800ee
:100fc0000080eb000100e00009003a0001c02000b1
:100fd000988060000000eb0005003200480090009f
:100fe000600498000000eb00010037000080eb0077
:100ff0004f05be004f04be000000060080007800d0
:10100000010178003104e000fdff3a0000005100ca
:10101000000006000001eb0000027800b0417800fb
:1010200081cf510001003a00040178000304e00080
:10103000f9ff3a000200780000000600889fbe0019
:101040008a1f780000047800c800900068019000b2
:101050000000eb00828f50003c003900180078003f
:101060002200290002016000e20f51000700320057
:10107000012024000000e00001003d0001202000cc
:10108000008c70000080eb0030003700020026006a
:1010900002006000820f500009003a003800900002
:1010a000808f5000060039000800780050ff0700cc
:1010b000800078000080eb000100e00023003a008f
:1010c0001805780000c020000000650018003a00f4
:1010d000a80490006002200008004000808f5400a7
:1010e00013003a0000202000ef00070020049800c1
:1010f0000000e00005003a00290498004904980027
:101100008904e80039049800080037000a60a0004c
:101110000a0c7800400498000120200080804000e4
:1011200031049800400c9800500c98000c00070007
:101130002800900050049800380090006004980047
:1011400000002600180c70000000eb004f0578002e
:101150004f04be000000060020952000610037000b
:10116000881f7800489020001804e00003003a002f
:10117000f9ff070020c0b300004c78004f0478004e
:1011800000000600889fbe00000478000800780078
:1011900017ff07008004780000042000180060009a
:1011a00002003200280090005a0007000000eb0007
:1011b00020049800384090000004e000050035004d
:1011c0000000fb00a9fd07000000e0000100320064
:1011d0008084eb00181090000000e000080032004e
:1011e000edfd07000000e000010032008084eb000c
:1011f00018109000470007000000eb001014980042
:101200000008200018006000150032000001eb000b
:101210006000b800038f20000202d00063027a0051
:10122000880f520005003a0000004000818048000d
:10123000008041000008eb0006003700610040001c
:10124000e08048000201e800e80f5000e08f5800fd
:10125000f0ff3a00080078002e0007000e0037006b
:10126000000c780000c0eb003044980060022000c1
:1012700008004000200498004004980050049800a2
:10128000400c980060049800500c9800700498007e
:1012900076004400000c9800090078004f04be005e
:1012a00000000600881f78000004eb006140b800d1
:1012b000e2ff2f00f3ff2f00b5000700e28f2000b0
:1012c000620078000000e00001003200adff07007e
:1012d0000804e800e80f5400f4ff3a004f047800d7
:1012e00000000600010020000100e00008003200bc
:1012f000010080000100e000050032008100e900eb
:10130000010088008100d0000200800000b1780058
:10131000000006000000e0002f003200c00178004d
:10132000e38f51002c0036000308a3002a003a0086
:10133000114880000100e00002003200810f5000df
:101340000400310011009800104888001600370092
:1013500082007800110190000200e00002003200db
:10136000800f5100faff390011027800848240009a
:10137000850f500018003900808f520003003a009a
:101380008308420001007800070037000200e000f7
:101390000300320083014000830f51000e0039002a
:1013a0001200980090009800900090000100e0006a
:1013b0000900320010014000828f500006003a0000
:1013c000029020000009eb00100178001108410094
:1013d000910090001100980000000600889fbe0058
:1013e00000047800014880000100e00002003200a3
:1013f000010078000d003700114880002090200087
:1014000004003700910f5400250036000180e800e9
:10141000910090000100e000faff3a001000370050
:10142000920f54001e0036000280e8001001780080
:101430000200e000faff3a00110178001148800034
:101440002090200004003700910f54001400360053
:101450000180e80091009000828f5000faff3a006e
:1014600039488000888f54000100310088047800da
:1014700009007800360007000000e00004003a0090
:10148000888f5400050032008904d100f5ff370031
:10149000091878009fff0700d2ff37000000eb001b
:1014a0004f04be0000000600881f7800630440005f
:1014b0000800a1008000eb00800f540021003600de
:1014c000e30f540001003e004800200008007800af
:1014d000c2ff07008000eb000000e00019003200ae
:1014e000900078009101780064815100880f5100cc
:1014f0000300310011019000020878000700370056
:1015000008814000020878009101900013019800c2
:101510001001780011091400880878001001780083
:101520000000eb000200e000040032009201900095
:101530000300e000010032000280e800004888005b
:101540008180e800010078004f0478000000060068
:10155000800078000000eb000100e000050034008e
:101560000100780015fd0700e10f400001003a007e
:101570000000eb000000060000c0da0000000600da
:1015800000c0da000000060000c0da00000006001b
:10159000020ab900001bb9000200b8008100420035
:0815a000810043000000060079
:020000040000fa
:1015a80052650000676900007374000065720000ee
:1015b800206100006464000072650000737300001d
:1015c800206f000075740000206f00006620000086
:1015d800726100006e67000065280000302d000071
:1015e80036330000292e000020000000526500005c
:1015f80067690000737400006572000020640000d1
:1016080061740000612000006f7500007420000004
:101618006f66000020720000616e000067650000c0
:10162800283000002d32000035350000292e00003a
:101638002000000070610000737300000a000000c1
:1016480066610000696c00000a000000646f000019
:101658006e6500000a0000000a000000646f0000c8
:101668006e6500000a000000646f00006e650000ef
:10167800000000003601000000000000000000002b
:1016880000000000646f00006e6500000a000000a2
:020000040000fa
:101698001200fa00000f98000e089000c800dd0044
:1016a80000002c0001007000100798009e009000b8
:1016b800210798000000eb00300798000000eb00bd
:1016c800400798000000eb00000f78000e0037007c
:1016d800cd82a9001e0078000000400000004700ed
:1016e800200090003f0b0700800078001e00780063
:1016f80000004000000047006a0040000108780030
:10170800cd82a8001e0fe8001e007800e20f5000ee
:10171800efff34007e0090000080fa000000060011
:101728000000fa006a28ef006828ef000080fa003d
:10173800000006000000fa0050438000e30f50004c
:1017480028003200e30f500005003e00e10f500072
:1017580014003200e10f50001a003e000900370063
:10176800e50f50002f003200e50f5000250039002a
:10177800e60f500031003200e70f5000350032000c
:10178800370037008002200062010700cd82a900df
:1017980070438000d70c07001000200050438800d9
:1017a8002f003700900220005a010700cd82a900bf
:1017b80070438000cf0c07002000200050438800b1
:1017c80027003700a002200052010700cd82a9009f
:1017d80070438000c70c0700300020005043880089
:1017e8001f003700b00220004a010700cd82a9007f
:1017f80070438000bf0c0700400020005043880061
:1018080017003700c002200042010700cd82a9005e
:1018180070438000b70c0700500020005043880038
:101828000f003700cd82a9000000eb00b10c0700c3
:10183800600020005043880009003700cd82a900cd
:101848000000eb00ab0c070070002000504388003c
:10185800030037006a28ef007228ef00000000003c
:101868000080fa00000006001400fa000000eb00f7
:101878001007980010c0b300004f7800adff0700b4
:101888001800370090438000e10f500013003a0021
:101898002104800000402000008060000000e0007b
:1018a800100032008540a900cd82a8007228ef0000
:1018b800411280001e009000000040000000470018
:1018c80066004000010878001e0090000000e80053
:1018d8001007980097ff0700020037000040eb0050
:1018e800004f78001e4078000004e000e5ff3a0051
:1018f800de009000f00f200080806000900420003f
:101908000080680000f0a7000000ea000000e9007d
:101918004f00de00404798004e4090008080fb005a
:101928006e019000f00f200000016100e00420002b
:101938000000690000f0a7000000ea000000e900cc
:101948004f00de000080600000f0a7000000ea0001
:101958000000ea004f00de00404798004e4090002b
:101968008080fb007e019000f00f200000016100e4
:10197800400520000000690000f0a7000000ea0010
:101988000000e9004f00de000080600000f0a700c2
:101998000000ea000000ea004f00de00404798001f
:1019a8004e4090008080fb000e099000f00f200050
:1019b80000016100100420000000690000f0a70089
:1019c8000000ea000000e9004f00de00008060002f
:1019d80000f0a7000000ea000000ea004f00de0067
:1019e800404798004e4090008080fb001e09900000
:1019f800f00f200000016100e004200000006900f1
:101a080000f0a7000000ea000000e9004f00de0037
:101a18000080600000f0a7000000ea000000ea0073
:101a28004f00de00404798004e4090000080fa00ca
:101a3800000006001600fa0080022000000f78005f
:101a48000000eb0020079800190037002e009000d6
:101a5800e40f5000030034000000eb00100798006a
:101a6800050037001e007800c800dd0000002c00cb
:101a78000100700010079800cd82a9001e00900098
:101a8800580a0700800078002e00900000004000ef
:101a9800000047006800400001087800cd82a800d7
:101aa8001e0fe8002e0090000000e80020079800b4
:101ab8002e009000e60f5000e4ff3400ee00900086
:101ac800f00f2000808060009004200000806800f3
:101ad80000f0a7000000ea000000e9004f00de0067
:101ae800604798006e4090008080fb007e01900067
:101af800f00f200000016100e004200000006900f0
:101b080000f0a7000000ea000000e9004f00de0036
:101b18000080600000f0a7000000ea000000ea0072
:101b28004f00de00604798006e4090008080fb0008
:101b38000e099000f00f2000000161004005200010
:101b48000000690000f0a7000000ea000000e900ba
:101b58004f00de000080600000f0a7000000ea00ef
:101b68000000ea004f00de00604798006e409000d9
:101b78008080fb001e099000f00f2000000161002a
:101b8800100420000000690000f0a7000000ea002f
:101b98000000e9004f00de000080600000f0a700b0
:101ba8000000ea000000ea004f00de0060479800ed
:101bb8006e4090008080fb002e099000f00f2000fe
:101bc80000016100e00420000000690000f0a700a7
:101bd8000000ea000000e9004f00de00008060001d
:101be80000f0a7000000ea000000ea004f00de0055
:101bf800604798006e4090000080fa0000000600e0
:101c08001400fa00000f9800110f98008e08900039
:101c1800f0032000808f50000400360040ad2800fb
:101c28003ffc07000040eb00310037009e089000a1
:101c3800f00f2000808f500004003600a0af28006d
:101c480037fc07000040eb00290037000e08900021
:101c5800c800dd001e0890000100700000f0a00020
:101c6800100798009e009000210798000000eb00e4
:101c7800300798000000eb00400798000000eb00d8
:101c8800000f78000e003700cd82a9001e007800f2
:101c9800000040000000470020009000d109070024
:101ca800800078001e007800000040000000470017
:101cb8006a00400001087800cd82a8001e0fe800e5
:101cc8001e007800e20f5000efff3400fe00900085
:101cd800f00f2000808060001e089000808f500068
:101ce80002003a0010c0b300010037000040eb00ca
:101cf8000080fa00000006000200fa00000f7800d9
:101d08001e0078004800dd00604388000080fa006b
:101d1800000006000200fa00000f78001e0078009c
:101d2800c800dd0000002c0001007000704388002e
:101d38000080fa00000006001800fa000050250094
:101d48002007980010002000000f780007003700d7
:101d58001e007800000040000000470064004000ba
:101d68008000eb00010878001e0fe8001e007800d4
:101d7800e90f5000f6ff34000000eb00000f780078
:101d880009003700cd82a9001e007800000040003d
:101d980000004700200090009209070010079800f3
:101da800cd82a8001e0fe8001e007800e90f500041
:101db800f4ff34000080fa00000006000200fa0078
:101dc800cd82a90000a0230086090700000f780033
:101dd800cd82a8000080fa0000000600c400fa00c6
:101de800881f7800709f980001a7980012a7980094
:101df8000000eb00300798000200200003182400c0
:101e08007e9890008ea090000cfb07004007980079
:101e1800510798000000eb006007980018c0b30055
:101e280002002000032f24004e009000de009000e6
:101e380044fb07000000e000010035000044eb000f
:101e48000804e00005003200800220001007980016
:101e580000022000000f78007400370018c0b3009b
:101e680002002000c33024004e009000de009000e5
:101e780034fb07000000e000010035000044eb00df
:101e88000804e000050032008002200010079800d6
:101e980000012000000f78006400370018c0b3006c
:101ea80002002000f33224004e009000de00900073
:101eb80024fb07000000e000010035000044eb00af
:101ec8000804e00005003200800220001007980096
:101ed80080002000000f78005400370018c0b300bd
:101ee80002002000c33524004e009000de00900060
:101ef80014fb07000000e000010035000044eb007f
:101f08000804e000050032000002200010079800d5
:101f180080002000000f78004400370018c0b3008c
:101f280002002000c33824004e009000de0090001c
:101f380004fb07000000e000010035000044eb004e
:101f48000804e00005003200a001200010079800f6
:101f580080002000000f78003400370018c0b3005c
:101f680002002000f33a24004e009000de009000aa
:101f7800f4fa07000000e000010035000044eb001f
:101f88000804e00005003200200120001007980036
:101f980040002000000f78002400370018c0b3006c
:101fa80002002000c33d24004e009000de00900097
:101fb800e4fa07000000e000010035000044eb00ef
:101fc8000804e00005003200000120001007980016
:101fd80030002000000f78001400370018c0b3004c
:101fe80002002400334024004e009000de009000e0
:101ff800d4fa07000000e000010035000044eb00bf
:102008000804e00005003200700020001007980066
:1020180030002000000f7800040037004000200046
:102028001007980020002000000f780030002000e2
:10203800700798000000eb00000f980010002000c7
:10204800100f980030002000200f9800200020007a
:10205800300f980010002000400f98000000eb009f
:10206800500f98000000eb00600f98000000eb0094
:10207800700f98000000eb00001798000000eb00bc
:102088001017980010002000201798000000eb009f
:10209800301798000000eb0040179800100020004f
:1020a80050179800100020006017980010002000ba
:1020b800701798000000eb00001f98000000eb006c
:1020c800101f98000000eb00201f98000000eb0094
:1020d800301f98000000eb00401f98000000eb0044
:1020e800501f98000000eb00601f98000000eb00f4
:1020f800701f98000000eb000027980010002000d7
:1021080010279800100020002027980010002000b9
:1021180030279800e0022000402798002000200087
:1021280050279800e0012000602798003000200028
:1021380070279800c0022000002f9800600020003f
:10214800102f98000000eb00202f98000000eb00f3
:1021580020079800090037002e009000000040007a
:1021680000004700a005b000110020000108780019
:102178002e0090000000e800200798002e00900034
:10218800ff0f5000f4ff34007e009000c600dd0011
:102198000e0890004500dd00810070001e089000c8
:1021a8004400dd00810070002e0890004200dd0030
:1021b800810070003e08900001007000508f980068
:1021c8004e0890004600dd001e007000608f9800e9
:1021d8001e009000708f98006e009000c500dd0012
:1021e8006e0890004400dd00810070005e089000d9
:1021f8004300dd00810070007e0890004200dd0091
:10220800810070001e1090000000400081007000e6
:102218000e10900001007000009798002e1090009a
:10222800c700dd003e1090004600dd008100700010
:102238004e1090004500dd00810070005e10900097
:102248004400dd00810070006e10900001007000f5
:10225800109798007e109000c600dd000e189000c0
:102268004500dd00810070001e1890004300dd006d
:10227800810070002e1890004200dd00810070007f
:102288003e18900000004000810070004e18900039
:1022980001007000209798003e0090003097980049
:1022a8005e189000409798006e189000c700dd00f7
:1022b8004e20900001007000509798001e2090005a
:1022c800c700dd005e209000010070006097980054
:1022d8007e189000c700dd006e209000010070009d
:1022e800709798002e209000c700dd007e20900097
:1022f80001007000009f98000e209000c700dd00cc
:102308000e28900001007000109f98003e20900059
:10231800c700dd002e2890004600dd008100700017
:102328001e28900001007000209f98004e309000f9
:10233800c700dd003e3090004600dd0081007000df
:102348002e3090004500dd00810070001e309000a6
:102358004400dd00810070000e3090004300dd0075
:10236800810070007e2890004200dd00810070002e
:102378006e28900000004000810070005e289000e8
:1023880001007000309f98004e389000c700dd00b3
:102398003e3890004600dd00810070002e38900025
:1023a8004500dd00810070001e3890004400dd000b
:1023b800810070000e3890004300dd00810070003d
:1023c8007e3090004200dd00810070006e30900089
:1023d80000004000810070005e289000010070003d
:1023e800409f98004e389000c700dd003e389000ae
:1023f8004600dd00810070002e3890004500dd00a9
:10240800810070001e3890004400dd0081007000db
:102418000e3890004300dd00810070007e3090008f
:102428004200dd00810070006e3090000000400026
:10243800810070005e28900001007000509f980095
:102448004e889000c700dd003e8890004600dd0001
:10245800810070002e8890004500dd00810070002a
:102468001e8890004400dd00810070000e889000f6
:102478004300dd00810070007e8090004200dd0096
:10248800810070006e8090000000400081007000a4
:102498005e80900001007000609f9800a0092000f5
:1024a8000e00400042022000800078001ea090002c
:1024b80014fa07000000eb0020079800120037000c
:1024c8002e0090004800dd00800078002e0090006b
:1024d8000000400000004700508890000100700094
:1024e80000f0a000302f9800cd82a9003e2890006f
:1024f800bc070700402f9800cd82a8002e0090004e
:102508000000e800200798002e009000f10f50000e
:10251800ebff34004f0478000080fa00000006004a
:102528005000fa006027980071279800640047005f
:10253800000178006e209000fe20900027fe070022
:1025480000e8230001002000ad090700fafd07009c
:1025580010c0b300004f78000000eb00100798008f
:102568000b0037001e00900049fc0700800078002f
:102578001e00900000004000000047008002b000ec
:10258800010878001e0090000000e800100798007d
:102598001e009000f10f5000f2ff34000000eb0025
:1025a80010079800190037009e80fb001e0090005d
:1025b8000000400000004700401190001e009000fd
:1025c8000000400000004700200090000001690062
:1025d800f00f20000000610000f0a7000000ea00f2
:1025e8000000e9004f00de000080600000f0a70056
:1025f8000000ea000000ea004f00de00004f78000b
:102608001e0090000000e800100798001e009000cf
:10261800f10f5000e4ff34001e4078000080fa00fb
:10262800000006000000fa00404380008000eb0034
:10263800f201200003002000820f5000838f580011
:1026480020013e00006001001f003700260037000f
:102658002d003700340037003b00370042003700b8
:102668004900370050003700570037005e00370038
:10267800650037006c003700730037007a003700b8
:1026880081003700880037008f0037009600370038
:102698009d003700a4003700ab003700b2003700b8
:1026a800b9003700c0003700c7003700ce00370038
:1026b800d5003700dc003700e3003700ea003700b8
:1026c800f1003700f80037000000eb008afd070032
:1026d800cd82a90060438000060907001000200091
:1026e80040438800f80037001000200082fd0700f2
:1026f800cd82a90060438000fe080700200020006a
:1027080040438800f0003700200020007afd0700d1
:10271800cd82a90060438000f60807003000200041
:1027280040438800e80037003000200072fd0700b1
:10273800cd82a90060438000ee0807004000200019
:1027480040438800e0003700400020006afd070091
:10275800cd82a90060438000e608070050002000f1
:1027680040438800d80037005000200062fd070071
:10277800cd82a90060438000de08070060002000c9
:1027880040438800d0003700600020005afd070051
:10279800cd82a90060438000d608070070002000a1
:1027a80040438800c80037007000200052fd070031
:1027b800cd82a90060438000ce0807008000200079
:1027c80040438800c0003700800020004afd070011
:1027d800cd82a90060438000c60807009000200051
:1027e80040438800b80037009000200042fd0700f1
:1027f800cd82a90060438000be080700a000200029
:1028080040438800b0003700a00020003afd0700d0
:10281800cd82a90060438000b6080700b000200000
:1028280040438800a8003700b000200032fd0700b0
:10283800cd82a90060438000ae080700c0002000d8
:1028480040438800a0003700c00020002afd070090
:10285800cd82a90060438000a6080700d0002000b0
:102868004043880098003700d000200022fd070070
:10287800cd82a900604380009e080700e000200088
:102888004043880090003700e00020001afd070050
:10289800cd82a9006043800096080700f000200060
:1028a8004043880088003700f000200012fd070030
:1028b800cd82a900604380008e0807000001200037
:1028c8004043880080003700000120000afd07000f
:1028d800cd82a9006043800086080700100120000f
:1028e80040438800780037001001200002fd0700ef
:1028f800cd82a900604380007e08070020012000e7
:10290800404388007000370020012000fafc0700cf
:10291800cd82a900604380007608070030012000be
:10292800404388006800370030012000f2fc0700af
:10293800cd82a900604380006e0807004001200096
:10294800404388006000370040012000eafc07008f
:10295800cd82a9006043800066080700500120006e
:10296800404388005800370050012000e2fc07006f
:10297800cd82a900604380005e0807006001200046
:10298800404388005000370060012000dafc07004f
:10299800cd82a9006043800056080700700120001e
:1029a800404388004800370070012000d2fc07002f
:1029b800cd82a900604380004e08070080012000f6
:1029c800404388004000370080012000cafc07000f
:1029d800cd82a900604380004608070090012000ce
:1029e800404388003800370090012000c2fc0700ef
:1029f800cd82a900604380003e080700a0012000a6
:102a08004043880030003700a0012000bafc0700ce
:102a1800cd82a9006043800036080700b00120007d
:102a28004043880028003700b0012000b2fc0700ae
:102a3800cd82a900604380002e080700c001200055
:102a48004043880020003700c0012000aafc07008e
:102a5800cd82a9006043800026080700d00120002d
:102a68004043880018003700d0012000a2fc07006e
:102a7800cd82a900604380001e080700e001200005
:102a88004043880010003700e00120009afc07004e
:102a9800cd82a9006043800016080700f0012000dd
:102aa8004043880008003700f001200092fc07002e
:102ab800cd82a900604380000e0807006828ef0057
:102ac80001003700000000000080fa000000060046
:102ad8004400fa0010c0b300004f78000000eb007b
:102ae80010079800cffe07001d00370090438000b4
:102af800e10f500018003a00210480000040200037
:102b0800008060000000e000150032008540a90048
:102b1800cd82a8007228ef00411280001e009000ac
:102b280000004000000047006400400001087800f1
:102b38001e0090000000e800100798001e0090009a
:102b4800ff0f500002003c00b6fe070004003700eb
:102b58007228ef00020037000040eb00004f7800b9
:102b68001e4078000004e000e0ff3a000080fa0010
:102b7800000006000600fa0050c0b3002047980085
:102b88000040eb0030479800c402a9000000eb00a9
:102b9800000f7800080037000e80e8001e00400093
:102ba8001040780064060700e40047009e8040005b
:102bb800804878001e0fe8001e007800e10f5000e2
:102bc800f5ff3400c402a8005e4090000080fa00bf
:102bd800000006000c00fa0050079800f0c9b30086
:102be8002047980010002000000f780005003700eb
:102bf8000e80e8001e0040008040eb00014878008d
:102c08001e0fe8001e007800e30f5000f8ff3400a4
:102c1800c402a9000000eb00000f7800080037008c
:102c28000e80e8001e0040001040780042060700b1
:102c3800e60047009e804000804878001e0fe800ac
:102c48001e007800e30f5000f5ff3400c402a8000e
:102c5800660047000000e80032002000800078008d
:102c68005e00900027f807000080fa0000000600c8
:102c78000200fa00bfff0700004f78001e80fb002b
:102c880061006000004078000004e00002003200ab
:102c980010c0b300010037000040eb000080fa00cc
:102ca800000006000200fa00b2ff0700004f78009b
:102cb8001e80fb00620060000000e000020032009d
:102cc80010c0b300010037000040eb000080fa009c
:102cd800000006000200fa0060c0b300004f780050
:102ce800c402a9001e407800130607001047980088
:102cf800c402a8000080fa00000006000200fa00e2
:102d080040c0b300004f7800c402a9001e407800fc
:102d18000906070010479800c402a8000080fa00be
:102d2800000006001200fa00889fbe008a1f780083
:102d38006007980071079800020f98000f04780048
:102d48000f00780080047800000220001007980027
:102d58001e009000640040008000e90021079800f0
:102d68000000e8000000e8000000d10080004000fa
:102d78000f007800818747000000e8000000d100bc
:102d880000004000300798003e00900031c0b300ba
:102d9800014878006e009000fe0090004008de00b8
:102da800804078003e009000114098006e0090002e
:102db800fe0090004809dd004800de0000007100b8
:102dc800c808de00804078003e009000214098004e
:102dd8006e009000804078003e00900031409800de
:102de80040002000000f7800050037003e009000ea
:102df8001e0040008040eb00014878001e0fe800ec
:102e08001e009000640040009e0f5000f7ff3c0039
:102e18001e009000640040008f00780001057800d3
:102e28008000e900410798000000e8000000e80081
:102e38000000d100800040000f0078008187470023
:102e48000000e8000000d100000040005007980092
:102e5800c402a9000000eb00000f7800080037004a
:102e68003e0090001e00400010407800b2050700a8
:102e7800de0090009e804000804878001e0fe80029
:102e88001e009000640040009e0f5000f4ff3c00bc
:102e9800c402a8009e0090005e00900064004000fc
:102ea80001017800800078000e08900095f707006f
:102eb8008a07780089077800880778004f05780026
:102ec8004f04be000080fa00000006001400fa005b
:102ed800889fbe0070079800010f9800120f980095
:102ee8000f0478000f0078008004780000022000aa
:102ef800100798007e0090008000eb0020079800e3
:102f0800310798002e019000be0190004c18dd009a
:102f1800c410de00810070004c10dd00200798000e
:102f2800310798000e0890008000eb002e019000f9
:102f3800be019000020040008380480020079800ee
:102f48003107980063ff07001e00900064004000ee
:102f58008000e900410798000000e8000000e80050
:102f68000000d100800040000f00780081874700f2
:102f78000000e8000000d100000040005007980061
:102f88005e00900021c0b300014878002e00900038
:102f9800be0090004008de00804078005e0090008f
:102fa800114098002e009000be0090004809dd00f6
:102fb8004800de0000007100c808de00804078008c
:102fc8005e009000214098002e009000804078001c
:102fd8005e009000314098009e0090005e009000d6
:102fe80064004000010178009e08900045f7070042
:102ff800c402a9000000eb00000f780006003700ab
:103008005e0090001e004000104078004a0507004e
:10301800404f98001e0fe8001e009000640040001a
:103028009e0f5000f6ff3c00c402a80000000000fc
:103038000fff07000004e000fdff3a008907780051
:10304800880778004f04be000080fa0000000600e0
:103058000200fa00d0c8b300004f78001dff070037
:10306800c402a9001e4078003305070010479800e5
:10307800c402a8000080fa00000006000200fa005e
:1030880080c9b300004f780012ff0700c402a900ee
:103098001e4078002805070010479800c402a800c1
:1030a8000080fa00000006001200fa00700798007d
:1030b8000157980000c2b300204798007e00900096
:1030c8008000eb0020079800310798002e0190003f
:1030d800be0190004c18dd00c410de0081007000b5
:1030e8004c10dd002007980031079800ae40900092
:1030f800114f98002e009000be0090004008de009e
:1031080000407800204f98002e009000be009000ec
:103118004809dd004800de0000007100c808de0034
:1031280000407800304f98002e0090000040780052
:10313800404f9800e7fe0700c402a9000000eb001a
:10314800000f780006003700690047001e004000a5
:1031580010407800f8040700004f98001e0fe800a0
:103168001e007800e30f5000f7ff3400c402a800e7
:1031780000000000befe07000004e000030032006b
:103188000e5090000004e000faff3a000080fa00b8
:10319800000006000400fa002047980070ccb30035
:1031a800004f7800cbfe0700c402a9001e4078003b
:1031b800e104070010479800c402a80000000000be
:1031c800abfe07000004e000030032002e40900030
:1031d8000004e000faff3a000080fa000000060050
:1031e8000400fa000e0078007afe07009e4078007e
:1031f800f0cbb30080cf50000a003a009e40900008
:1032080060c2b30080cf500006003a00ae40900084
:1032180010c4b30080cf500002003a0010c0b300c1
:10322800010037000040eb000080fa0000000600b3
:103238000000fa002628ef000080fa0000000600cf
:103248000c00fa00300798004107980052079800d0
:1032580000022000000f78003e0090008000eb0084
:1032680010079800210798001e019000ae019000f9
:103278004c18dd00c410de00810070004c10dd0029
:1032880010079800210798004e0090008000eb007e
:103298001e019000ae0190000200400083804800ab
:1032a80010079800210798001e009000ae009000bb
:1032b8004008de000040780000e8b7001e009000db
:1032c800ae0090004809dd004800de0000007100f3
:1032d800c808de000040780001e8b7001e00900032
:1032e8000040780002e8b7001e007800000178006e
:1032f800de0090006080200082f607009e007800c3
:10330800214088000080fa00000006000200fa0050
:1033180010c0b300004f7800c402a90060c0b30019
:10332800e80507000e00370080438000e10f5000d9
:103338000b003a0040048000620060000000e000da
:10334800070032008820a9007028ef004013800091
:1033580010479800c402a8000040eb00004f780016
:103368001e4078000004e000efff3a000080fa00f9
:10337800000006000000fa0030418000e20f500013
:1033880019003200e20f500005003e000000e00086
:103398000a003200e10f50000e00320035003700fd
:1033a800e40f50001a003200e40f500013003900f7
:1033b800e50f5000290032002e003700c402a90092
:1033c80020c0b300bf05070010002000304188006e
:1033d8002800370000c8bf00ba05070020002000f9
:1033e800304188002300370001c8bf00b505070039
:1033f80030002000304188001e00370002c8bf009e
:10340800b00507004000200030418800190037004f
:103418002040800001022000808050006080200051
:103428000080400010407800a6050700204080007a
:103438000000e90020408800204080000000e000f3
:1034480003003400400020003041880009003700a4
:10345800500020003041880006003700c402a80050
:103468002628ef007028ef0060b42800a5040700a4
:10347800000000000080fa00000006000c00fa00be
:10348800889fbe000f0478000f0078008004780041
:1034980000022000100798001e00900080007800ad
:1034a8008100e900210798000000e8000000e8001a
:1034b8000000d100800040000f007800818747009d
:1034c8000000e8000000d10000004000300798002c
:1034d8003e009000b1c4b300014878003e0090005f
:1034e80041c5b300114098003e00900081c4b3006c
:1034f800214098003e00900051c4b300314098002c
:103508003e009000d1c4b300414098003e009000b6
:1035180071c4b300514098000000eb00000f780020
:10352800090037009e007800668040009e00780001
:103538008140780013c4b30003c14000be0090006e
:10354800827078001e0fe8001e007800f90f500006
:10355800f4ff34000000eb00400798000000eb0087
:1035680050079800c5fe070011c0b3004e00900038
:10357800cdfe07003e00900000017800de009000bc
:103588004e0090002eff0700890778008807780012
:103598004f04be000080fa00000006001400fa0084
:1035a800889fbe000f0478000f0078008004780020
:1035b80000022000200798002e0090008000e900fb
:1035c800310798000000e8000000e8000000d10082
:1035d800800040000f007800818747000000e80065
:1035e8000000d100000040004007980010c0b30060
:1035f800004f7800b7fd07000000eb005007980067
:103608000000eb00600798005aff07000f00370022
:1036180080438000e10f50000a003a004004800017
:10362800620060000000e000080032008820a90065
:103638007028ef0040138000604f98004dff07008e
:10364800020037000040eb00004f78001e40780071
:103658000004e000eeff3a0085fd07005e009000e0
:10366800cc00dd006e009000010070008000eb00cf
:10367800000f9800110f98004e009000000178008c
:103688000e0890009e089000a6fd070010c0b30029
:10369800104798000000eb0010079800170037004b
:1036a8001e4090008080fb004e0190001e0090009c
:1036b80000004100104178009e01900060802000c9
:1036c8000080410010407800004069000080fb0045
:1036d8000000e9004f00de000080600000f0a70055
:1036e8000000ea000000ea004f00de0010479800e2
:1036f8001e0090000000e800100798009e0090004f
:103708002e009000808f5000e5ff35001e4090008d
:1037180089077800880778004f04be000080fa0007
:10372800000006000000fa009580a9009560a90035
:1037380080002000001188002222ef00001a2000db
:1037480040118800108520007042880010852000f4
:1037580060428800a085200050428800a085200093
:10376800404288005068ef0020be21000700070093
:1037780000c02100140007009560a80021e2a800fd
:103788002342a8000080fa00000006000200fa00a8
:10379800000f78001e0078000000e00003003a00e7
:1037a80020be210020438800020037009e007800d8
:1037b800214388000080fa00000006000000fa009b
:1037c8000080fa00000006000200fa00000f7800ee
:1037d8001e0078000000e00003003a0000c021004d
:1037e80030438800020037009e007800314388008b
:1037f8000080fa00000006000000fa000080fa00cd
:10380800000006000200fa000040eb00004f7800bc
:10381800000000005142800040428000808f50002c
:10382800fcff320050428000104f78005042800068
:103838000000e80050428800514280003086200095
:10384800808f500002003a00a08520005042880076
:103858001e4078000080fa00000006000200fa000e
:10386800004f7800000000001c0007000004a200c0
:103878000004e000fcff3a00604280001e48780027
:10388800604280000000e8006042880061428000d9
:10389800a0852000808f500002003a00108520008b
:1038a800604288009580a8000080fa0000000600a9
:1038b8000000fa0051428000404280000080680009
:1038c80000f0a7000000ea000000ea004f00de0058
:1038d800004078000080fa00000006000400fa00aa
:1038e8007142800011079800614280001e0090001c
:1038f800808f5000060031009e00900060428000da
:10390800008050000000e900000f78000500370033
:103918009e009000604280000080500068004000d7
:10392800000f78001e00780000f0a7000000ea00f1
:103938000000ea004f00de00004078000080fa0036
:10394800000006000000fa0061428000704280001a
:10395800808f500009003a001111800000102000eb
:103968000080600000f0a7000000ea000000ea0004
:103978004f00de0000407800010037000040eb00f7
:103988000080fa00000006000400fa0041428000ae
:1039980011079800504280009e009000808f5000d0
:1039a800060031009e0090005042800000805000c8
:1039b80069004000000f7800040037009e00900066
:1039c8005042800000805000000f7800f00f200067
:1039d8009e007800808f50000200360000c0eb0087
:1039e800020037001e007800004078000080fa00ce
:1039f800000006000400fa007142800011079800d8
:103a0800614280001e009000808f50000600310047
:103a18009e00900060428000008050000000e90095
:103a2800000f7800050037009e009000604280007b
:103a38000080500068004000000f7800f00f200060
:103a48009e007800808f50000200360000c0eb0016
:103a5800020037001e007800004078000080fa005d
:103a6800000006000800fa002007980031079800b7
:103a7800c5ff07000080fb00000f78003e009000a3
:103a88009e0f500002003100be009000010f780028
:103a98000000eb00100798000900370059ff0700e5
:103aa800ae009000804878002e0090000000e800ea
:103ab800200798001e0090000000e80010079800fa
:103ac8001e0090009e0f5000f4ff39001e00780081
:103ad8000080fa00000006000800fa00200798009d
:103ae80031079800c3ff07000080fb00000f780033
:103af8003e0090009e0f500002003100be00900072
:103b0800010f78000000eb0010079800090037004b
:103b18002e00900010407800ae0090008100e80070
:103b2800210798004dff07001e0090000000e800e4
:103b3800100798001e0090009e0f5000f4ff3900f7
:103b48001e0078000080fa00000006000400fa0059
:103b58000000eb00000f78008bff0700204798005b
:103b6800a4ff0700304798002e4090000080fb001b
:103b78000000e00003003200e90f500003003200ab
:103b8800040037001e20a000040037001e00a0001b
:103b9800020037001e10a000000000003e40900008
:103ba8000080fb000000e00003003200e90f500035
:103bb80003003200040037001e30a0000200370066
:103bc8001e40a000000000001e0078000080fa00df
:103bd800000006000400fa00100798005142800017
:103be8001e009000008f4000020037009e00780001
:103bf800698f5000308620009e007800808f50002a
:103c0800faff3e001e007800104078000080fa009d
:103c1800000006000000fa005bff07000080fb00c0
:103c28000000e9004f00de00004078000080fa0044
:103c3800000006000000fa006eff07000080fb008d
:103c48000000e9004f00de00004078000080fa0024
:103c5800000006000000fa00101180000080fa0041
:103c6800000006000000fa0062ff07000004e00000
:103c7800100032007142800060428000808f500046
:103c880006003600704280008000780060428000a4
:103c9800008050000000e9000700370070428000f3
:103ca800800078006042800000805000680040007a
:103cb800010037000000eb000080fa000000060059
:103cc8000000fa0030ff07000004e0001000320096
:103cd8005142800040428000808f5000060036002c
:103ce80050428000800078004042800000805000f0
:103cf8000000e9000700370050428000800078008b
:103d080040428000008050006800400001003700f9
:103d18000000eb000080fa00000006000000fa0036
:103d280021e2a8002342a8000080fa000000060053
:103d38000000fa0021e2a9002342a9000080fa004d
:103d4800000006000800fa001007980021079800f4
:103d5800320798000000eb00000f780019003700c8
:103d68001e00780000004000ae00900080804000f7
:103d78001e007800000040001e0190000000410075
:103d8800100078004800de00004078008048780085
:103d98001e007800000040000000e800ae0090001f
:103da800808040001e007800000040001e01900046
:103db800000041001000780000407800804878003a
:103dc8001e0fe8003e0090009e007800808f500093
:103dd800e3ff35000080fa00000006001201fa0037
:103de800600799007107990002579a000010200097
:103df800300798006e0091008000eb0010079800d3
:103e0800210798001e019000ae0190004c18dd00bb
:103e1800c410de00810070004c10dd00100798000f
:103e2800210798007e0091000000e8008000eb0068
:103e380040079800510798004e019000de0190005d
:103e48004c18dd00c410de00810070004c10dd004d
:103e58004007980051079800260037001e0190007f
:103e6800ae0190004e009000de009000800f5100df
:103e7800818f59001b0031006c0047000001780059
:103e88001e009000ae009000a6fb07000000eb00ab
:103e9800000f7800080037006c0047001e00400043
:103ea800104078000080fb001602070000b32800cd
:103eb800140207001e0fe8003e0090009e007800e4
:103ec800808f5000f4ff35001e009000ae00900077
:103ed8000010b0000180b00010079800210798007a
:103ee800040037000040eb0000579a0020b3280078
:103ef800040207000e5092000004e000d7ff3a00c9
:103f08000080fa00000006001800fa00889fbe0032
:103f1800200f9800615798000f0478000f00780070
:103f28008004780000082000400798004e009000a8
:103f38008000e90051079800000040000000e800f8
:103f48000000e8000000d100800040000f00780069
:103f5800818747000000e8000000d1000000400011
:103f6800600798004e009000000040008000e900c3
:103f7800710798000000e8000000e8000000d10088
:103f8800800040000f007800818747000000e800ab
:103f98000000d10000004000000f98000000eb0076
:103fa800000f780010c0b300204798009df9070063
:103fb8001c00370090438000e10f500017003a00c2
:103fc8002104800000402000008060000000e00024
:103fd800140032008540a900cd82a8007228ef00a5
:103fe800411280006e0190001e0078000000400021
:103ff80000004100010878001e0fe8004e00900004
:104008009e007800808f500002003d0085f907006f
:10401800040037007228ef00020037000040eb0070
:10402800204798002e4090000004e000e1ff3a008d
:104038008e0890006e0090000208200041ff0700e3
:104048000000eb00200798000000eb003007980004
:104058005800370010c0b3002047980010c0b300c4
:1040680030479800a9fc0700c2fc07006df907005b
:104078000e08900000017800ae0090003e0090000d
:104088006ffc07002d00370090438000e10f5000bf
:1040980019003a00210480000040200000806000e0
:1040a8000000e000160032008540a900cd82a8007b
:1040b8007228ef00411280006e0190001e00780007
:1040c8000000400000004100010878001e0fe800d1
:1040d8004e0090009e007800808f500004003a0047
:1040e8000000eb00000f78007228ef000400370092
:1040f8004cf90700020037000040eb002047980009
:1041080080438000e10f50000a003a00400480001c
:10411800620060000000e000080032008820a9006a
:104128007028ef00401380002057980091fc07008a
:10413800020037000040eb00304798002e40900006
:104148000004e000d0ff3a003e4090000004e00088
:10415800cdff3a008e0890006e0090000208200003
:10416800f8fe07002e0090000010b000200798000d
:10417800ae00900000002100808f50000d003a0032
:104188000000eb00200798003e0090000000e800c7
:1041980030079800be0090002e089000808f5000d5
:1041a8000400360080b32800560107000040eb00e9
:1041b800605798006e5090000004e000a5ff3a0098
:1041c80089077800880778004f04be000080fa004d
:1041d800000006000000fa0020532000101288009a
:1041e80010002000201288004001280000128800da
:1041f8000080fa00000006000400fa00000f7800b2
:1042080011079800000000000012800062006000a2
:104218000000e000fcff3a001e0078001000780063
:1042280040128800000000000112800000022000f7
:10423800008060000000e000fbff3a001e009000d4
:1042480041128000010878000080fa000000060092
:104258001800fa00100f9800210f9800320f9800ec
:104268000000eb00000f78000000eb00100798003a
:104278000000eb00700798000000eb00000f9800aa
:1042880020002000600798002e0890000000d10050
:10429800200f98001e0890000000e00005003a007a
:1042a8000000eb00500798007000470020079800b6
:1042b80004003700ee009000510798009e08900017
:1042c800210798003e0890000000e00005003a0031
:1042d8000000eb00400798006e0047003007980088
:1042e80005003700ee00900041079800be089000d6
:1042f8003107980000000000001280006200600092
:104308000000e000fcff3a001b00370000128000ac
:10431800620060000000e00008003a002e009000f3
:104328001000780040128800ae0090005e009000f7
:1043380000804000200798001e0fe800011280004e
:1043480000022000008060000000e0000a003a003f
:104358003e0090004112800001087800be009000e5
:104368004e00900000804000300798001e0090002a
:104378000000e800100798002e0890009e007800c2
:10438800808f5000e1ff39000f00370001128000d4
:1043980000022000008060000000e0000a003a00ef
:1043a8003e0090004112800001087800be00900095
:1043b8004e00900000804000300798001e009000da
:1043c8000000e800100798009e0090002e0890005a
:1043d800808f5000edff39001e0078000080fa0041
:1043e800000006000400fa00100798008e0078000c
:1043f8000e80e80080ff07001e0078000080fa00a9
:10440800000006000600fa00000f78001107980067
:1044180022079800ae0090001e0078000101780085
:104428009e0090008aff07000080fa000000060046
:104438000000fa0011128000004020000080600097
:104448000000e00002003a000000eb000100370025
:10445800100020000080fa00000006000000fa00aa
:10446800001280000080fa00000006000000fa0038
:1044780061e2a9000080fa00000006000200fa00cc
:10448800000f780001138000000028000080600001
:104498000000e00025003a001e007800c300dd009f
:1044a800e0b3280000804000100078001013880056
:1044b8001e0078004300dd008080e800e0b328009b
:1044c8000080400010007800201388001e0078004b
:1044d8004300dd00e4004000e0b328000080400015
:1044e8001000780000f0a000001388001e0078007b
:1044f8004300dd00e6004000e0b3280000804000f3
:1045080010407800614060000080fb00610060009e
:104518004500dd00411680000150a1000100700037
:104528004016880010c0b300010037000040eb00bf
:104538000080fa00000006000200fa00004f780030
:104548001e80fb004013880000000000001380005c
:10455800610060000000e000fcff320040138000b2
:10456800004078000080fa00000006000600fa000b
:1045780010079800210798009e009000010f78000e
:10458800060037001e00780010407800eaff070098
:104598009e007800804878001e0fe8002e009000ea
:1045a80000f0a7000000ea000000ea004f00de006b
:1045b80000407800ae0090008100e90021079800d3
:1045c8000004e000efff3a000080fa000000060057
:1045d8000600fa0010079800210798009e00900036
:1045e800010f7800040037001e00780010407800a2
:1045f8001e0fe800d0ff07002e00900000f0a70073
:104608000000ea000000ea004f00de0000407800e9
:10461800ae0090008100e900210798000004e00046
:10462800f1ff3a000080fa00000006000600fa00d8
:1046380010079800210798009e009000010f78004d
:10464800050037000040eb00bbff07009e00780024
:10465800804878001e0fe8002e00900000f0a700a8
:104668000000ea000000ea004f00de000040780089
:10467800ae0090008100e900210798000004e000e6
:10468800f0ff3a000080fa00000006000200fa007d
:10469800004f78001e80fb00401388000080fa005d
:1046a800000006000000fa00401380000040780077
:1046b8000080fa00000006000000fa0040048000b4
:1046c800620060000000e00006003200b043800095
:1046d8000000e00002003200b0438000000001004a
:1046e8008820a9000080fa00000006000200fa00f5
:1046f800000f78009e007800b14388000080fa001f
:10470800000006000400fa00100798000040eb00c3
:10471800004f78000b003700000000006ffc070016
:104728000004a2000004e000fcff3a001e80fb0029
:104738009e00900000804000104078001e4fe80066
:1047480046fc07001e80fb009e0090000080400091
:10475800104078000004e000efff3a000080fa0003
:10476800000006000200fa0026fc0700004f78004f
:104778001e80fb006101b900d0f92f00f1ff2f0066
:1047880002004000838048005201200003002000fe
:10479800820f5000838f58004f003e0000600100d8
:1047a80046003700360037003e0037004c0037001f
:1047b8004b0037004a0037001b003700480037001d
:1047c8004700370046003700220037004400370012
:1047d800430037003b00370041003700090037002d
:1047e8003f003700040037003d0037003c00370029
:1047f8003b00370020003700e0b12800c1ff070068
:104808003800370018f407000004e0000300320005
:10481800e0b12800bbff07003200370040b2280093
:10482800b8ff07002f00370000002000a147240030
:104838003bf707000004e00003003200a0b22800a4
:10484800b0ff07002700370040b22800adff07007f
:104858002400370062fa07000004e0000300320079
:10486800e0b12800a7ff07001e00370040b228006b
:10487800a4ff07001b00370000fb070019003700e2
:1048880046fb07000004e00003003200e0b1280006
:104898009cff07001300370040b2280099ff07006b
:1048a80010003700f5f9070010c0b30039fa070007
:1048b800a0b2280093ff07000a00370084f8070019
:1048c8000800370012c0b300110020000000eb0000
:1048d80042fd070003003700000000000100370018
:0c48e800000000000080fa000000060044
:020000040000fa
:1048f400740800000200000002000000ffff000036
:104904002808000020000000000000004808000003
:1049140020000000000000007608000002000000f3
:10492400000000006808000008000000000000000b
:1049340000080000280000000000000070080000cb
:104944000400000000000000780800008800000057
:104954000200000001000000009e08009f089e0065
:10496400089e08009e089e00088e080000000000b3
:104974000000000000000000000000000000000033
:104984000000000000000000000208000101c60051
:1049940008c70800c608c60008c60800c608b6004e
:1049a40008000000000000000000000000000000fb
:1049b40000000000000000000000000000000200f1
:1049c40008020200ee08ef0008ee0800ee08ee0010
:1049d40008ee0800de0800000000000000000000ef
:1049e40000000000000000000000000000000000c3
:1049f400000000007808a00008c8080000000000bb
:104a04000000000000000000000000000409000095
:104a1400020000000000000006090000020000007f
:104a2400020000000400000000090000040000006f
:104a3400000000000809000002000000020000005d
:104a4400010000000a09000002000000000000004c
:044a5400000000005e
:020000040000fa
:104a58000000fa0000002300203a88004827ef00f1
:104a68004e27ef007027ef007227ef007427ef0042
:104a78007627ef001200200080072000a1092000ff
:104a88003374200080497800814978008249780091
:104a98000001eb0060042000710520002374200051
:104aa8008049780081497800824978000080fa00be
:104ab800000006000000fa007028ef000080fa00ed
:104ac800000006000200fa00004f78001e80fb007c
:104ad8004013880010002000804388000080fa00fe
:104ae800000006000000fa007228ef000080fa00bb
:104af800000006000200fa00000f78009e0078000f
:104b08004112880010002000904388000080fa00bd
:104b1800000006000000fa00c422ef00cc22ef00db
:104b28006009200000168800f071240040168800f3
:104b38005620ef005820ef005a20ef006e20ef00bb
:104b48007020ef007220ef00c622ef00ce22ef00a7
:104b580060002000002788008001240010278800ba
:104b68000080fa00000006000000fa003e0007007e
:104b780000a0260081012000210007000000eb00b2
:104b88003efe0700c402a800cd82a800a8f90700cd
:104b9800c8ff0700d3ff0700e1f207000100370054
:104ba8000000000042fb07000004e000fcff3200a8
:104bb800ecfe0700fbff37000000fa00210680002a
:104bc800f0f82f00008060000040a0002006880058
:104bd8005105800080ff2f00008060000000a000c9
:104be8005005880041058000f0ff28000080600023
:104bf80000c0a000400588000080fa000000060000
:020000040000fa
:104c0800f03fb1000180b10006003500ee03090055
:104c180000000000403fb1000180b100fbff3d00f3
:104c28001000b000203fb0000200350000800900ed
:084c380000000000000006006e
:020000040000fa
:104c40000200fa00000f78009e007800a14388005f
:104c5000ffff37000000fa00808220008007780004
:104c600000842000000188000080fa000000060097
:104c70000000fa00a9ff070077ff0700d0ff070038
:104c800056fd0700a9fa07000080fa0000000600a0
:020000040000fa
:0200000401f009
:04000000ffff0000fe
:020000040000fa
:0200000401f009
:04000800ffff0000f6
:020000040000fa
:0200000401f009
:04000c00f9ff0000f8
:020000040000fa
:0200000401f009
:04001000bfff00002e
:020000040000fa
:0200000401f009
:040014005fff00008a
:020000040000fa
:0200000401f009
:04001800ffff0000e6
:020000040000fa
:0200000401f009
:04001c00ffff0000e2
:020000040000fa
:0200000401f009
:04002000ffff0000de
:00000001FF
