:020000040000fa
:080000000002040000000000f2
:020000040000fa
:0400080032040000be
:020000040000fa
:04000c00d802000016
:020000040000fa
:040010001a030000cf
:020000040000fa
:04001400f8020000ee
:020000040000fa
:040018003a030000a7
:020000040000fa
:04001c0032040000aa
:020000040000fa
:0400200032040000a6
:020000040000fa
:0400240032040000a2
:020000040000fa
:04002800320400009e
:020000040000fa
:04002c00320400009a
:020000040000fa
:040030003204000096
:020000040000fa
:040034003204000092
:020000040000fa
:04003800320400008e
:020000040000fa
:04003c00320400008a
:020000040000fa
:040040003204000086
:020000040000fa
:040044003204000082
:020000040000fa
:04004800320400007e
:020000040000fa
:04004c00320400007a
:020000040000fa
:040050003204000076
:020000040000fa
:04005400b6030000ef
:020000040000fa
:040058005a03000047
:020000040000fa
:04005c00320400006a
:020000040000fa
:040060003204000066
:020000040000fa
:040064003204000062
:020000040000fa
:04006800320400005e
:020000040000fa
:04006c00320400005a
:020000040000fa
:040070003204000056
:020000040000fa
:040074003204000052
:020000040000fa
:04007800320400004e
:020000040000fa
:04007c00320400004a
:020000040000fa
:040080003204000046
:020000040000fa
:040084003204000042
:020000040000fa
:04008800320400003e
:020000040000fa
:04008c00320400003a
:020000040000fa
:040090003204000036
:020000040000fa
:040094003204000032
:020000040000fa
:04009800320400002e
:020000040000fa
:04009c00320400002a
:020000040000fa
:0400a0003204000026
:020000040000fa
:0400a4003204000022
:020000040000fa
:0400a800320400001e
:020000040000fa
:0400ac00320400001a
:020000040000fa
:0400b0003204000016
:020000040000fa
:0400b4003204000012
:020000040000fa
:0400b800320400000e
:020000040000fa
:0400bc00320400000a
:020000040000fa
:0400c0003204000006
:020000040000fa
:0400c4003204000002
:020000040000fa
:0400c80032040000fe
:020000040000fa
:0400cc0032040000fa
:020000040000fa
:0400d00032040000f6
:020000040000fa
:0400d40032040000f2
:020000040000fa
:0400d80032040000ee
:020000040000fa
:0400dc0032040000ea
:020000040000fa
:0400e00032040000e6
:020000040000fa
:0400e40032040000e2
:020000040000fa
:0400e80032040000de
:020000040000fa
:0400ec0032040000da
:020000040000fa
:0400f00032040000d6
:020000040000fa
:0400f40032040000d2
:020000040000fa
:0400f80032040000ce
:020000040000fa
:0400fc0032040000ca
:020000040000fa
:0401000032040000c5
:020000040000fa
:0401040032040000c1
:020000040000fa
:0401080032040000bd
:020000040000fa
:04010c0032040000b9
:020000040000fa
:0401100032040000b5
:020000040000fa
:0401140032040000b1
:020000040000fa
:0401180032040000ad
:020000040000fa
:04011c0032040000a9
:020000040000fa
:0401200032040000a5
:020000040000fa
:0401240032040000a1
:020000040000fa
:04012800320400009d
:020000040000fa
:04012c001c040000af
:020000040000fa
:040130003204000095
:020000040000fa
:040134003204000091
:020000040000fa
:04013800320400008d
:020000040000fa
:04013c003204000089
:020000040000fa
:040140003204000085
:020000040000fa
:040144003204000081
:020000040000fa
:04014800320400007d
:020000040000fa
:04014c003204000079
:020000040000fa
:040150003204000075
:020000040000fa
:040154003204000071
:020000040000fa
:04015800320400006d
:020000040000fa
:04015c003204000069
:020000040000fa
:040160003204000065
:020000040000fa
:040164003204000061
:020000040000fa
:04016800320400005d
:020000040000fa
:0402080032040000bc
:020000040000fa
:04020c00d802000014
:020000040000fa
:040210001a030000cd
:020000040000fa
:04021400f8020000ec
:020000040000fa
:040218003a030000a5
:020000040000fa
:04021c0032040000a8
:020000040000fa
:0402200032040000a4
:020000040000fa
:0402240032040000a0
:020000040000fa
:04022800320400009c
:020000040000fa
:04022c003204000098
:020000040000fa
:040230003204000094
:020000040000fa
:040234003204000090
:020000040000fa
:04023800320400008c
:020000040000fa
:04023c003204000088
:020000040000fa
:040240003204000084
:020000040000fa
:040244003204000080
:020000040000fa
:04024800320400007c
:020000040000fa
:04024c003204000078
:020000040000fa
:040250003204000074
:020000040000fa
:04025400b6030000ed
:020000040000fa
:040258005a03000045
:020000040000fa
:04025c003204000068
:020000040000fa
:040260003204000064
:020000040000fa
:040264003204000060
:020000040000fa
:04026800320400005c
:020000040000fa
:04026c003204000058
:020000040000fa
:040270003204000054
:020000040000fa
:040274003204000050
:020000040000fa
:04027800320400004c
:020000040000fa
:04027c003204000048
:020000040000fa
:040280003204000044
:020000040000fa
:040284003204000040
:020000040000fa
:04028800320400003c
:020000040000fa
:04028c003204000038
:020000040000fa
:040290003204000034
:020000040000fa
:040294003204000030
:020000040000fa
:04029800320400002c
:020000040000fa
:04029c003204000028
:020000040000fa
:0402a0003204000024
:020000040000fa
:0402a4003204000020
:020000040000fa
:0402a800320400001c
:020000040000fa
:0402ac003204000018
:020000040000fa
:0402b0003204000014
:020000040000fa
:0402b4003204000010
:020000040000fa
:0402b800320400000c
:020000040000fa
:0402bc003204000008
:020000040000fa
:0402c0003204000004
:020000040000fa
:0402c4003204000000
:020000040000fa
:0402c80032040000fc
:020000040000fa
:0402cc0032040000f8
:020000040000fa
:0402d00032040000f4
:020000040000fa
:0402d40032040000f0
:020000040000fa
:0402d80032040000ec
:020000040000fa
:0402dc0032040000e8
:020000040000fa
:0402e00032040000e4
:020000040000fa
:0402e40032040000e0
:020000040000fa
:0402e80032040000dc
:020000040000fa
:0402ec0032040000d8
:020000040000fa
:0402f00032040000d4
:020000040000fa
:0402f40032040000d0
:020000040000fa
:0402f80032040000cc
:020000040000fa
:0402fc0032040000c8
:020000040000fa
:0403000032040000c3
:020000040000fa
:0403040032040000bf
:020000040000fa
:0403080032040000bb
:020000040000fa
:04030c0032040000b7
:020000040000fa
:0403100032040000b3
:020000040000fa
:0403140032040000af
:020000040000fa
:0403180032040000ab
:020000040000fa
:04031c0032040000a7
:020000040000fa
:0403200032040000a3
:020000040000fa
:04032400320400009f
:020000040000fa
:04032800320400009b
:020000040000fa
:04032c001c040000ad
:020000040000fa
:040330003204000093
:020000040000fa
:04033400320400008f
:020000040000fa
:04033800320400008b
:020000040000fa
:04033c003204000087
:020000040000fa
:040340003204000083
:020000040000fa
:04034400320400007f
:020000040000fa
:04034800320400007b
:020000040000fa
:04034c003204000077
:020000040000fa
:040350003204000073
:020000040000fa
:04035400320400006f
:020000040000fa
:04035800320400006b
:020000040000fa
:04035c003204000067
:020000040000fa
:040360003204000063
:020000040000fa
:04036400320400005f
:020000040000fa
:04036800320400005b
:020000040000fa
:100400002f8f20000eff20000e018800000000004a
:10041000000020000000e000020032000001200087
:100420002002880014000700850107000000e0009a
:1004300003003a00c05a22000100200002003700e9
:100440000000200001002000810f70000100320038
:1004500014000700000020000000e000020032004d
:100460000000020000000000ea2602000000000078
:100470000040da000000fe004440a900a007200070
:100480000000e0000300320000002000a00188000e
:100490004440a800000006008a1f78008b1f7800e7
:1004a0000000060091018800800478000000eb0045
:1004b0001a003700e284440032a0b4009905ba0063
:1004c000e284440032a0b4009906ba00e2844400f9
:1004d00032a0b4000006eb00476fde00fd07b2005b
:1004e000636ce10003003a00ebff07000000eb0043
:1004f0000a003700606ce10004003a00005deb0088
:100500008b05e900fdff3e00040037006168e10053
:10051000010032000086eb000b00070019c7ba008b
:100520001905ba000e04e00003003a000a00e000da
:10053000e0ff3a0000000600fe07b2009e018800be
:100540008a047800f5ff3700395dba008b05e900b1
:100550000c003200295dba008b05e900080032006a
:100560000c00e00003003a00e284440032a0b40032
:10057000f5ff370019ddba008b05e900faff3a00f4
:100580008904e800e184440032a0b40000000600c1
:10059000000000000000000000000000000000005b
:1005a000000000000000000000000000000000004b
:1005b0003600f800809fbe00829fbe00849fbe0070
:1005c000869fbe000000fa008020a9000000eb001a
:1005d000341207000080fa004f03be004f02be0035
:1005e0004f01be004f00be003600f900004006007b
:1005f0003600f800809fbe00829fbe00849fbe0030
:10060000869fbe000000fa002b1207008040a90060
:1006100010002000231207000080fa004f03be00e4
:100620004f02be004f01be004f00be003600f90071
:10063000004006003600f800809fbe00829fbe008a
:10064000849fbe00869fbe000000fa008060a90063
:1006500020002000131207000080fa004f03be00a4
:100660004f02be004f01be004f00be003600f90031
:10067000004006003600f800809fbe00829fbe004a
:10068000849fbe00869fbe000000fa008080a90003
:1006900030002000031207000080fa004f03be0064
:1006a0004f02be004f01be004f00be003600f900f1
:1006b000004006003600f800809fbe00829fbe000a
:1006c000849fbe00869fbe000000fa00e0418000cb
:1006d000000001003141800020418000808f5000e7
:1006e00002003a009580a900190037008580a90012
:1006f0001000370030418000904078008180fb007e
:10070000211188000000e80030418800314180005c
:1007100020832000808f500002003a009082200049
:10072000304188003141800020418000808f50009e
:1007300006003200111180000020200000806000bf
:100740000000e000ebff3200010037000000000075
:100750000080fa004f03be004f02be004f01be00f2
:100760004f00be003600f900004006003600f800d9
:10077000809fbe00829fbe00849fbe00869fbe00f9
:100780000000fa00f0418000000001008560a9002f
:100790001e00370000418000311180008140780048
:1007a0000148780001418000a0832000808f500024
:1007b00009003200004180008000e8001041800004
:1007c000808f500004003200004180000000e800eb
:1007d000004188000d00370001418000a083200007
:1007e000808f500007003a001141800020832000d4
:1007f000808f5000030032002083200000418800d9
:100800000200370010c0b30028e8b70010118000c4
:10081000610060000000e000deff3a000080fa00a6
:100820004f03be004f02be004f01be004f00be008e
:100830003600f90000400600801f78000000fa0032
:1008400010118000620060000000e0000100320032
:100850002222a9008c20a9000080fa004f00780015
:10086000004006000040da000000fe000a00fa0026
:1008700011002000b1bf9f00c0bf9f006a805700d9
:100880009b0307004fb897000080fa0000000600a5
:100890000a00fa00e20f500034003e00704780006a
:1008a000e10f500003003200e20f500011003a0047
:1008b0000c003700032220000300e00001003a0092
:1008c0000040da002002e200020035002822ef009a
:1008d00021e2a8002342ab000d003a002342a80009
:1008e0000b003700032320000300e00001003a0062
:1008f0000040da003002e200020035003822ef004a
:1009000031e2a8003342ab0001003a003342a800b4
:10091000820178000b0037003102fb00e10f50002c
:1009200004003a002322ab00feff3a0024118800a5
:10093000030037003322ab00feff3a00a411880009
:100940008301e9000300e000f3ff3a00e10f5000eb
:1009500003003a002302ab00feff32000b00370019
:100960003302ab00feff32000800370033002000e6
:10097000b3bf9f00c0bf9f00d1bf9f00e2bf9f00d9
:100980006a8057005c0307006fb997000200780087
:100990000080fa00000006000a00fa005100200062
:1009a000b1bf9f00c0bf9f006a805700540307007b
:1009b0005fb897000080fa0000000600889fbe0024
:1009c00080047800804780000000e00004003a00c6
:1009d0000e0007000084eb000000e0000800350076
:1009e000884780000900e00005003200090044004b
:1009f000060007000000e00001003d000084eb005d
:100a0000080078004f04be00000006008000780057
:100a10000100e00003003a00000020008047880049
:100a2000000005000080eb0002002000828f5000d3
:100a300002003e00814788000000eb000000060035
:100a400000000500889fbe008a9fbe008c1f7800b2
:100a5000660007006d00330003866c006450e100ff
:100a60002e0032006420e100330032006150e100ca
:100a70002f0032006120e1003100320085855500f1
:100a8000eb07b00009002000080420000500370033
:100a90000804440089844c000a0031000603430026
:100aa00087834b000001530081815b00f8ff330016
:100ab0000203be000800a0000804440089844c0022
:100ac000f6ff3900c639dd008301730001003200f2
:100ad000130020008904d1000884d3000998a300e2
:100ae000050032000800a7000300a0008904d1001f
:100af0000884d3008b05e8008904d1000884d30062
:100b00000001eb000281d2001200070001f0a100f9
:100b10000cf0a70001f0a000450037006420e100c0
:100b2000470032000801be000200be00f7ff370098
:100b30006120e100420032006000b800f3ff37009e
:100b40000000200001f82700f0ff3700140020000b
:100b50007a00370081002000618055000b003d00c5
:100b60000b00200061fe2f000100e1001d00340099
:100b700082817100610164008904d1000884d3007e
:100b80000000e800faff3a007100200061006400f4
:100b9000030070000200600009003200610444009c
:100ba000e0844c000988a500050032008b05e800b0
:100bb0006808e10002003a008904d1000884d300eb
:100bc000f20f20000258e10005003d00c75ddd0086
:100bd000f907b2008980750008007800000006005f
:100be0000bf827008b007800000005000004be0011
:100bf0006d0007000003be000405be000200be0039
:100c000069000700844f7500000006000200be0066
:100c10006450e100050036006420e1000200360067
:100c20000968a30001003a000800be000160a000ae
:100c30004f0678004f05be004f04be0000000600be
:100c4000f0ff2f00f1ff2700f9ff37006022b80006
:100c5000060220000000d0008180d2000482d20071
:100c60008582d2000000a0000202520083825a0056
:100c7000030031000202420083824a000000a1000a
:100c80000603e900f3ff3a0000000600efff07004b
:100c90000400be0000000600889fbe008a9fbe00c0
:100ca0008c1f78000006eb00e00f5000e08f58002a
:100cb000e00f5900e08f590007003d006044b80084
:100cc0006055b8000000540081805c0002015d00a6
:100cd00083815d001c002000e00f5200e08f5a006d
:100ce000e00f5b00e08f5b0007003d006044b80050
:100cf0006055b8000402540085825c0006035d0064
:100d000087835d000c00a2003c0007000c00e0009f
:100d1000060032006022b8006033b80000005200c4
:100d200081805a0002015b0083815b004f067800de
:100d30004f05be004f04be0000000600889fbe00a5
:100d40008a9fbe00841f7800a8ff07004f0078002c
:100d500011003300f0ff2f00838f6c0006003b0072
:100d6000040565000a00a7000800370009f0a60086
:100d70001000200008003700820f5400838f5c00b1
:100d8000030039001000200001003e000000200098
:100d900009f0a7000000ea004f05be004f04be00a6
:100da0000000e00000000600c70ade00f107b20004
:100db000f50fb20008003200e1cf4200020032001d
:100dc0000170a00024000500810f700001003200b6
:100dd0000408050044000500810f700002003a007d
:100de000140005008502e9000000400081c04800b1
:100df000fcff3b000170a00024000500889fbe009e
:100e00008a9fbe008c9fbe000404b8000506b8008f
:100e10008904460060854e000606b8000a054600b3
:100e2000e0854e000706b8008b054600040eb800aa
:100e3000890446000a854e00e0854d00050eb80085
:100e40000a0546008b854e00060eb8008b0546004d
:100e50000416b8000a0546008b854e000516b8003a
:100e60008b054600041eb8008b0546000800be0036
:100e70000a01be004f06be004f05be004f04be0073
:100e8000000006008001780002003700b1597800a8
:100e90000201e9000200e000fcff3a000000060049
:100ea000618820006b000700800078000080eb0064
:100eb0000100e0000400350061882000a00020004f
:100ec000020007004f80de0000000600889fbe0081
:100ed0008a1f78000004be00c900900069009000dd
:100ee000808f50000600390009007800b10007002b
:100ef000800078000080eb000100e0001700350062
:100f0000084578004900900008587800c00498000f
:100f10001900780000b8a30004003a0000a8a3005c
:100f200008003200ea4f540006003a000900780039
:100f30000d000700800078000080eb000100e00059
:100f400006003a0000c020001900600002003200d4
:100f500049009000e00498000a80fb004f057800eb
:100f60004f04be0000000600889fbe008a1f780064
:100f7000000478000800e0000d003a00488d2000d1
:100f8000700544008004eb00580078000000e00089
:100f900004003200f4ff07000000e00001003d0003
:100fa0008084eb008a0f5400f7ff3a0025003700d9
:100fb00000002200180060008004eb0021003200d5
:100fc000a80490000f00370009015100384090003c
:100fd0000000fb00890078002dfe07000000e00003
:100fe00007003c002800900040049800600498002e
:100ff000500c98001890a0008084eb00110037007e
:101000008084440048019000828f5400eeff390034
:1010100028009000400498009800780002c020004a
:101020000281600001003a003800900001e8a3004e
:10103000020032006004980001003700500c980054
:101040008004eb00090078004f0578004f04be00d3
:1010500000000600889fbe008a9fbe0080047800c2
:10106000010478002c003700c80090006800900050
:10107000808f500004003900080078004d00070000
:101080000000e0003700350000402000180060003c
:1010900009003200a1002000090078003b00070091
:1010a000800578000b00e000030032006185140029
:1010b0000a85450004003700090078002d0007006c
:1010c000000578008005eb0048009000e8009000e3
:1010d000808050008a8f50000200310001057800a6
:1010e0008005eb000a0178008900780065ff0700a1
:1010f000480090000a004000400498000b00e00007
:10110000040032000800780097ff07000000e000ac
:1011100014003a008a8444001904e000d2ff3a0027
:1011200000802000180060000600320008007800ef
:101130008dff0700800078000080eb000100e000d8
:1011400009003a0001c02000988060000000eb0018
:101150000500320048009000600498000000eb0099
:10116000010037000080eb004f05be004f04be00b9
:101170000000060080007800010178003104e000e2
:10118000fdff3a0000005100000006000001eb00e6
:1011900000027800b041780081cf510001003a0090
:1011a000040178000304e000f9ff3a00020078002f
:1011b00000000600889fbe008a1f780000047800a7
:1011c000c8009000680190000000eb00828f500082
:1011d0003c0039001800780022002900020160005c
:1011e000e20f510007003200012024000000e0005f
:1011f00001003d0001202000008c70000080eb0009
:10120000300037000200260002006000820f50000c
:1012100009003a0038009000808f50000600390025
:101220000800780050ff0700800078000080eb0085
:101230000100e00023003a001805780000c02000fb
:101240000000650018003a00a80490006002200029
:1012500008004000808f540013003a000020200056
:10126000ef000700200498000000e00005003a00ad
:1012700029049800490498008904e800390498007a
:10128000080037000a60a0000a0c780040049800ab
:10129000012020008080400031049800400c98001c
:1012a000500c98000c000700280090005004980093
:1012b000380090006004980000002600180c7000b0
:1012c0000000eb004f0578004f04be000000060050
:1012d000e0a0200061003700881f7800a88e200061
:1012e0001804e00003003a00f9ff070020c0b30033
:1012f000004c78004f04780000000600889fbe0074
:10130000000478000800780017ff070080047800c8
:101310000004200018006000020032002800900045
:101320005a0007000000eb002004980038409000ad
:101330000004e000050035000000fb004bfd070045
:101340000000e000010032008084eb0018109000e3
:101350000000e000080032008ffd07000000e00000
:10136000010032008084eb00181090004700070055
:101370000000eb0010149800000820001800600026
:10138000150032000001eb006000b800638d200002
:101390000202d00063027a00880f520005003a0072
:1013a0000000400081804800008041000008eb0000
:1013b0000600370061004000e08048000201e800bc
:1013c000e80f5000e08f5800f0ff3a000800780066
:1013d0002e0007000e003700000c780000c0eb0064
:1013e000304498006002200008004000200498006b
:1013f0004004980050049800400c98006004980045
:10140000500c98007004980076004400000c98007e
:10141000090078004f04be0000000600881f780015
:101420000004eb006140b800e2ff2f00f3ff2f0043
:10143000b5000700428e2000620078000000e00046
:1014400001003200adff07000804e800e80f540077
:10145000f4ff3a004f04780000000600010020006d
:101460000100e00008003200010080000100e000ff
:10147000050032008100e900010088008100d000f1
:101480000200800000b17800000006000000e000cb
:101490002f003200c0017800e38f51002c0036008d
:1014a0000308a3002a003a00414780000100e00041
:1014b00002003200810f500004003100110098003a
:1014c0004047880016003700820078001101900024
:1014d0000200e00002003200800f5100faff3900e4
:1014e0001102780084824000850f500018003900f6
:1014f000808f520003003a00830842000100780008
:10150000070037000200e0000300320083014000c2
:10151000830f51000e0039001200980090009800cf
:10152000900090000100e00009003200100140002e
:10153000828f500006003a00628e20000009eb0006
:1015400010017800110841009100900011009800ee
:1015500000000600889fbe0000047800314780002c
:101560000100e00002003200010078000d003700a9
:1015700041478000808e200004003700910f540006
:10158000250036000180e800910090000100e00095
:10159000faff3a0010003700920f54001e00360088
:1015a0000280e800100178000200e000faff3a0033
:1015b0001101780041478000808e20000400370030
:1015c000910f5400140036000180e8009100900053
:1015d000828f5000faff3a0069478000888f5400dc
:1015e0000100310088047800090078003600070007
:1015f0000000e00004003a00888f5400050032002b
:101600008904d100f5ff3700091878009fff070013
:10161000d2ff37000000eb004f04be0000000600c0
:10162000881f7800630440000800a1008000eb00e0
:10163000800f540021003600e30f540001003e00eb
:101640004800200008007800c2ff07008000eb007f
:101650000000e0001900320090007800910178004d
:1016600064815100880f5100030031001101900086
:10167000020878000700370008814000020878005f
:1016800091019000130198001001780011091400d5
:1016900088087800100178000000eb000200e000ec
:1016a00004003200920190000300e00001003200cb
:1016b0000280e800304788008180e800010078005f
:1016c0004f04780000000600800078000000eb0066
:1016d0000100e0000500340001007800b7fc0700bd
:1016e000e10f400001003a000000eb00000006009e
:1016f00000c0da000000060000c0da0000000600aa
:1017000000c0da0000000600020ab900001bb900a0
:101710000200b80081004200810043000000060082
:020000040000fa
:101720005265000067690000737400006572000074
:1017300020610000646400007265000073730000a3
:10174000206f000075740000206f0000662000000c
:10175000726100006e67000065280000302d0000f7
:1017600036330000292e00002000000052650000e2
:101770006769000073740000657200002064000057
:1017800061740000612000006f750000742000008b
:101790006f66000020720000616e00006765000047
:1017a000283000002d32000035350000292e0000c1
:1017b0002000000070610000737300000a00000048
:1017c00066610000696c00000a000000646f0000a0
:1017d0006e6500000a000000737400006172000072
:1017e000740a0000006400006f6e0000650a0000cb
:1017f000000a0000000000002101000000000000bd
:101800000000000000000000646f00006e65000032
:041810000a000000ca
:020000040000fa
:101814001200fa00000f98000e089000c800dd00c6
:1018240000002c0001007000100798009e0090003a
:10183400210798000000eb00300798000000eb003f
:10184400400798000000eb00000f78000e003700fe
:10185400cd82a9001e00780000004000000047006f
:1018640020009000710b0700800078001e007800b3
:1018740000004000000047006a00400001087800b2
:10188400cd82a8001e0fe8001e007800e20f500071
:10189400efff34007e0090000080fa000000060094
:1018a4000000fa005028ef000080fa000000060053
:1018b4000000fa0080428000e30f5000280032004c
:1018c400e30f500005003e00e10f50001400320009
:1018d400e10f50001a003e0009003700e50f5000e8
:1018e4002f003200e50f500025003900e60f5000ac
:1018f40031003200e70f5000350032003700370066
:101904008002200062010700cd82a900a04280006d
:10191400120d070010002000804288002f003700bd
:10192400900220005a010700cd82a900a042800045
:101934000a0d07002000200080428800270037009d
:10194400a002200052010700cd82a900a04280001d
:10195400020d070030002000804288001f0037007d
:10196400b00220004a010700cd82a900a0428000f5
:10197400fa0c07004000200080428800170037005e
:10198400c002200042010700cd82a900a0428000cd
:10199400f20c070050002000804288000f0037003e
:1019a400cd82a9000000eb00ec0c070060002000d1
:1019b4008042880009003700cd82a9000000eb00b6
:1019c400e60c070070002000804288000300370006
:1019d4005028ef005828ef00000000000080fa00b3
:1019e400000006001400fa000000eb001007980045
:1019f40010c0b300004f7800adff07001800370097
:101a0400c0428000e10f500013003a00210480001e
:101a140000402000008060000000e0001000320060
:101a24008540a900cd82a8005828ef00411280000b
:101a34001e009000000040000000470066004000c7
:101a4400010878001e0090000000e80010079800cc
:101a540097ff0700020037000040eb00004f7800ba
:101a64001e4078000004e000e5ff3a00de0090002c
:101a7400f00f200080806000900420000080680047
:101a840000f0a7000000ea000000e9004f00de00bb
:101a9400404798004e4090008080fb006e0190000b
:101aa400f00f200000016100e00420000000690044
:101ab40000f0a7000000ea000000e9004f00de008b
:101ac4000080600000f0a7000000ea000000ea00c7
:101ad4004f00de00404798004e4090008080fb009d
:101ae4007e019000f00f20000001610040052000fd
:101af4000000690000f0a7000000ea000000e9000f
:101b04004f00de000080600000f0a7000000ea0043
:101b14000000ea004f00de00404798004e4090006d
:101b24008080fb000e099000f00f2000000161008e
:101b3400100420000000690000f0a7000000ea0083
:101b44000000e9004f00de000080600000f0a70004
:101b54000000ea000000ea004f00de004047980061
:101b64004e4090008080fb001e099000f00f200082
:101b740000016100e00420000000690000f0a700fb
:101b84000000ea000000e9004f00de000080600071
:101b940000f0a7000000ea000000ea004f00de00a9
:101ba400404798004e4090000080fa000000060074
:101bb4001600fa0080022000000f78000000eb00fd
:101bc40020079800190037002e009000e40f500001
:101bd400030034000000eb001007980005003700f4
:101be4001e007800c800dd0000002c000100700019
:101bf40010079800cd82a9001e0090008b0a0700f0
:101c0400800078002e009000000040000000470093
:101c14006800400001087800cd82a8001e0fe8008b
:101c24002e0090000000e800200798002e0090008d
:101c3400e60f5000e4ff3400ee009000f00f2000a7
:101c440080806000900420000080680000f0a700fd
:101c54000000ea000000e9004f00de006047980041
:101c64006e4090008080fb007e019000f00f200009
:101c740000016100e00420000000690000f0a700fa
:101c84000000ea000000e9004f00de000080600070
:101c940000f0a7000000ea000000ea004f00de00a8
:101ca400604798006e4090008080fb000e09900011
:101cb400f00f2000000161004005200000006900d1
:101cc40000f0a7000000ea000000e9004f00de0079
:101cd4000080600000f0a7000000ea000000ea00b5
:101ce4004f00de00604798006e4090008080fb004b
:101cf4001e099000f00f2000000161001004200074
:101d04000000690000f0a7000000ea000000e900fc
:101d14004f00de000080600000f0a7000000ea0031
:101d24000000ea004f00de00604798006e4090001b
:101d34008080fb002e099000f00f2000000161005c
:101d4400e00420000000690000f0a7000000ea00a1
:101d54000000e9004f00de000080600000f0a700f2
:101d64000000ea000000ea004f00de00604798002f
:101d74006e4090000080fa00000006001400fa0093
:101d8400000f9800110f98008e089000f0032000b7
:101d9400808f50000400360000b928003ffc070083
:101da4000040eb00310037009e089000f00f200047
:101db400808f50000400360060bb280037fc070009
:101dc4000040eb00290037000e089000c800dd0039
:101dd4001e0890000100700000f0a0001007980099
:101de4009e009000210798000000eb003007980047
:101df4000000eb00400798000000eb00000f7800a3
:101e04000e003700cd82a9001e00780000004000bb
:101e14000000470020009000040a070080007800ba
:101e24001e00780000004000000047006a004000e7
:101e340001087800cd82a8001e0fe8001e0078007b
:101e4400e20f5000efff3400fe009000f00f20007e
:101e5400808060001e089000808f500002003a00cd
:101e640010c0b300010037000040eb000080fa000e
:101e7400000006000200fa00000f78001e0078003f
:101e84004800dd00904288000080fa00000006004f
:101e94000200fa00000f78001e007800c800dd0080
:101ea40000002c0001007000a04288000080fa00ad
:101eb400000006001800fa000050250020079800d2
:101ec40010002000000f7800070037001e00780083
:101ed4000000400000004700640040008000eb0068
:101ee400010878001e0fe8001e007800e90f50007a
:101ef400f6ff34000000eb00000f78000900370003
:101f0400cd82a9001e0078000000400000004700b8
:101f140020009000c509070010079800cd82a80092
:101f24001e0fe8001e007800e90f5000f4ff340093
:101f34000080fa00000006000200fa00cd82a90029
:101f440000a02300b9090700000f7800cd82a80083
:101f54000080fa0000000600c400fa00881f780020
:101f6400709f980001a7980012a798000000eb004a
:101f74003007980002002000031824007e98900087
:101f84008ea09000aefa0700400798005107980011
:101f94000000eb006007980018c0b30002002000a6
:101fa400032f24004e009000de009000e6fa0700a4
:101fb4000000e000010035000044eb000804e000ec
:101fc4000500320080022000100798000002200063
:101fd400000f78007400370018c0b300020020001e
:101fe400c33024004e009000de009000d6fa0700b3
:101ff4000000e000010035000044eb000804e000ac
:102004000500320080022000100798000001200023
:10201400000f78006400370018c0b30002002000ed
:10202400f33224004e009000de009000c6fa070050
:102034000000e000010035000044eb000804e0006b
:102044000500320080022000100798008000200064
:10205400000f78005400370018c0b30002002000bd
:10206400c33524004e009000de009000b6fa07004d
:102074000000e000010035000044eb000804e0002b
:1020840005003200000220001007980080002000a4
:10209400000f78004400370018c0b300020020008d
:1020a400c33824004e009000de009000a6fa07001a
:1020b4000000e000010035000044eb000804e000eb
:1020c40005003200a00120001007980080002000c5
:1020d400000f78003400370018c0b300020020005d
:1020e400f33a24004e009000de00900096fa0700b8
:1020f4000000e000010035000044eb000804e000ab
:102104000500320020012000100798004000200044
:10211400000f78002400370018c0b300020020002c
:10212400c33d24004e009000de00900086fa0700b4
:102134000000e000010035000044eb000804e0006a
:102144000500320000012000100798003000200034
:10215400000f78001400370018c0b30002002400f8
:10216400334024004e009000de00900076fa070011
:102174000000e000010035000044eb000804e0002a
:102184000500320070002000100798003000200085
:10219400000f78000400370040002000100798006a
:1021a40020002000000f7800300020007007980005
:1021b4000000eb00000f980010002000100f9800a2
:1021c40030002000200f980020002000300f9800dd
:1021d40010002000400f98000000eb00500f980002
:1021e4000000eb00600f98000000eb00700f9800f7
:1021f4000000eb00001798000000eb001017980097
:1022040010002000201798000000eb003017980001
:102214000000eb00401798001000200050179800b1
:10222400100020006017980010002000701798001c
:102234000000eb00001f98000000eb00101f980046
:102244000000eb00201f98000000eb00301f9800f6
:102254000000eb00401f98000000eb00501f9800a6
:102264000000eb00601f98000000eb00701f980056
:102274000000eb00002798001000200010279800b1
:10228400100020002027980010002000302798001c
:10229400e0022000402798002000200050279800ea
:1022a400e00120006027980030002000702798008b
:1022b400c0022000002f980060002000102f98001a
:1022c4000000eb00202f98000000eb00200798008e
:1022d400090037002e009000000040000000470075
:1022e400a005b00011002000010878002e00900025
:1022f4000000e800200798002e009000ff0f500017
:10230400f4ff34007e009000c600dd000e0890004b
:102314004500dd00810070001e0890004400dd00cf
:10232400810070002e0890004200dd0081007000e2
:102334003e08900001007000508f98004e089000f5
:102344004600dd001e007000608f98001e009000a3
:10235400708f98006e009000c500dd006e0890003c
:102364004400dd00810070005e0890004300dd0041
:10237400810070007e0890004200dd008100700042
:102384001e10900000004000810070000e109000ac
:1023940001007000009798002e109000c700dd0027
:1023a4003e1090004600dd00810070004e10900049
:1023b4004500dd00810070005e1090004400dd00e7
:1023c400810070006e10900001007000109798005a
:1023d4007e109000c600dd000e1890004500dd0060
:1023e400810070001e1890004300dd008100700021
:1023f4002e1890004200dd00810070003e1890000d
:1024040000004000810070004e1890000100700030
:10241400209798003e009000309798005e18900036
:10242400409798006e189000c700dd004e20900081
:1024340001007000509798001e209000c700dd0036
:102444005e20900001007000609798007e18900054
:10245400c700dd006e2090000100700070979800a6
:102464002e209000c700dd007e2090000100700047
:10247400009f98000e209000c700dd000e289000f9
:1024840001007000109f98003e209000c700dd00fe
:102494002e2890004600dd00810070001e28900068
:1024a40001007000209f98004e309000c700dd00ae
:1024b4003e3090004600dd00810070002e30900018
:1024c4004500dd00810070001e3090004400dd00f6
:1024d400810070000e3090004300dd008100700028
:1024e4007e2890004200dd00810070006e2890007c
:1024f40000004000810070005e2890000100700020
:10250400309f98004e389000c700dd003e389000a0
:102514004600dd00810070002e3890004500dd008b
:10252400810070001e3890004400dd0081007000be
:102534000e3890004300dd00810070007e30900072
:102544004200dd00810070006e3090000000400009
:10255400810070005e28900001007000409f980088
:102564004e389000c700dd003e3890004600dd0084
:10257400810070002e3890004500dd00810070005d
:102584001e3890004400dd00810070000e38900079
:102594004300dd00810070007e3090004200dd00c9
:1025a400810070006e3090000000400081007000d7
:1025b4005e28900001007000509f98004e889000a3
:1025c400c700dd003e8890004600dd0081007000f9
:1025d4002e8890004500dd00810070001e88900068
:1025e4004400dd00810070000e8890004300dd008f
:1025f400810070007e8090004200dd008100700048
:102604006e80900000004000810070005e809000a9
:1026140001007000609f9800a00920000e00400097
:1026240042022000800078001ea0900014fa0700e7
:102634000000eb0020079800120037002e009000e5
:102644004800dd00800078002e009000000040006b
:1026540000004700508890000100700000f0a000c6
:10266400302f9800cd82a9003e289000ef07070084
:10267400402f9800cd82a8002e0090000000e800b2
:10268400200798002e009000f10f5000ebff34005b
:102694004f0478000080fa00000006005000fa00a1
:1026a40060279800712798006400470000017800b3
:1026b4006e209000fe20900027fe070000e8230013
:1026c40001002000e8090700fafd070010c0b3006c
:1026d400004f78000000eb00100798000b00370053
:1026e4001e0090004afc0700800078001e00900045
:1026f40000004000000047008002b000010878009c
:102704001e0090000000e800100798001e009000d2
:10271400f10f5000f2ff34000000eb0010079800a6
:10272400190037009e80fb001e009000000040004e
:1027340000004700401190001e009000000040007f
:10274400000047002000900000016900f00f200005
:102754000000610000f0a7000000ea000000e900aa
:102764004f00de000080600000f0a7000000ea00d7
:102774000000ea004f00de00004f78001e009000c9
:102784000000e800100798001e009000f10f5000b0
:10279400e4ff34001e4078000080fa0000000600c8
:1027a4000600fa0050c0b300204798000040eb0038
:1027b40030479800c402a9000000eb00000f780025
:1027c400080037000e80e8001e004000104078002a
:1027d400eb070700e40047009e8040008048780033
:1027e4001e0fe8001e007800e10f5000f5ff3400d2
:1027f400c402a8005e4090000080fa0000000600b9
:102804000c00fa0050079800f0c9b3002047980064
:1028140010002000000f7800050037000e80e8004b
:102824001e0040008040eb00014878001e0fe800c5
:102834001e007800e30f5000f8ff3400c402a90022
:102844000000eb00000f7800080037000e80e8005d
:102854001e00400010407800c9070700e60047004a
:102864009e804000804878001e0fe8001e0078001b
:10287400e30f5000f5ff3400c402a80066004700cf
:102884000000e80032002000800078005e00900024
:102894007bf907000080fa00000006000200fa003d
:1028a400bfff0700004f78001e80fb00610060003e
:1028b400004078000004e0000200320010c0b300c1
:1028c400010037000040eb000080fa000000060021
:1028d4000200fa00b2ff0700004f78001e80fb00e0
:1028e400620060000000e0000200320010c0b3008b
:1028f400010037000040eb000080fa0000000600f1
:102904000200fa0060c0b300004f7800c402a900be
:102914001e4078009a07070010479800c402a800d8
:102924000080fa00000006000200fa0040c0b30074
:10293400004f7800c402a9001e40780090070700e9
:1029440010479800c402a8000080fa0000000600a6
:102954001200fa00889fbe008a1f78006007980062
:1029640071079800020f98000f0478000f00780098
:102974008004780000102000100798001e009000ca
:10298400640040008000e900210798000000e8008e
:102994000000e8000000d100800040000f00780033
:1029a400818747000000e8000000d10000004000db
:1029b400300798003e00900031c0b3000148780011
:1029c4006e009000fe0090004008de008040780019
:1029d4003e009000114098006e009000fe009000b0
:1029e4004809dd004800de0000007100c808de0070
:1029f400804078003e009000214098006e009000d6
:102a0400804078003e009000314098004000200053
:102a1400000f7800050037003e0090001e004000c3
:102a24008040eb00014878001e0fe8001e00900073
:102a3400640040009e0f5000f7ff3c001e00900011
:102a4400640040008f007800010578008000e900f0
:102a5400410798000000e8000000e8000000d100f1
:102a6400800040000f007800818747000000e800e4
:102a74000000d1000000400050079800c402a900e3
:102a84000000eb00000f7800080037003e009000c3
:102a94001e0040001040780039070700de00900057
:102aa4009e804000804878001e0fe8001e009000c1
:102ab400640040009e0f5000f4ff3c00c402a800d4
:102ac4009e0090005e0090006400400001017800c8
:102ad400800078000e089000e9f807008a07780063
:102ae40089077800880778004f0578004f04be00f6
:102af4000080fa00000006001400fa00889fbe005f
:102b040070079800010f9800120f98000f047800c6
:102b14000f0078008004780000102000100798004f
:102b24007e0090008000eb00200798003107980099
:102b34002e019000be0190004c18dd00c410de0090
:102b4400810070004c10dd002007980031079800c8
:102b54000e0890008000eb002e019000be01900052
:102b64000200400083804800200798003107980045
:102b740063ff07001e009000640040008000e9002d
:102b8400410798000000e8000000e8000000d100c0
:102b9400800040000f007800818747000000e800b3
:102ba4000000d10000004000500798005e00900033
:102bb40021c0b300014878002e009000be009000b0
:102bc4004008de00804078005e00900011409800cc
:102bd4002e009000be0090004809dd004800de0091
:102be40000007100c808de00804078005e0090009c
:102bf400214098002e009000804078005e009000f4
:102c0400314098009e0090005e00900064004000f7
:102c1400010178009e08900099f80700c402a900f9
:102c24000000eb00000f7800060037005e00900003
:102c34001e00400010407800d1060700404f980065
:102c44001e0fe8001e009000640040009e0f50001c
:102c5400f6ff3c00c402a800000000000fff0700bc
:102c64000004e000fdff3a00890778008807780037
:102c74004f04be000080fa00000006000200fa00c3
:102c8400d0c8b300004f78001dff0700c402a9009c
:102c94001e407800ba06070010479800c402a80036
:102ca4000080fa00000006000200fa0080c9b300a8
:102cb400004f780012ff0700c402a9001e407800ec
:102cc400af06070010479800c402a8000080fa006d
:102cd400000006001200fa007007980001579800df
:102ce40000c2b300204798007e0090008000eb00f3
:102cf40020079800310798002e019000be01900033
:102d04004c18dd00c410de00810070004c10dd00a2
:102d14002007980031079800ae409000114f9800aa
:102d24002e009000be0090004008de0000407800b5
:102d3400204f98002e009000be0090004809dd004e
:102d44004800de0000007100c808de000040780082
:102d5400304f98002e00900000407800404f9800bb
:102d6400e7fe0700c402a9000000eb00000f780092
:102d740006003700690047001e004000104078003c
:102d84007f060700004f98001e0fe8001e00780021
:102d9400e30f5000f7ff3400c402a8000000000055
:102da400befe07000004e000030032000e50900055
:102db4000004e000faff3a000080fa000000060078
:102dc4000400fa002047980070ccb300004f78004c
:102dd400cbfe0700c402a9001e4078006806070065
:102de40010479800c402a80000000000abfe0700d2
:102df4000004e000030032002e4090000004e000d4
:102e0400faff3a000080fa00000006000400fa000d
:102e14000e0078007afe07009e407800f0cbb300e5
:102e240080cf50000a003a009e40900060c2b30078
:102e340080cf500006003a00ae40900010c4b300aa
:102e440080cf500002003a0010c0b30001003700e8
:102e54000040eb000080fa00000006000000fa00c9
:102e64004c28ef000080fa00000006000a00fa0077
:102e74002007980031079800420798002e00900020
:102e84008000eb00008fbe001e01be004c18dd0068
:102e9400c410de00810070004c10dd00008fbe0005
:102ea4003e0090008000eb001e0f40005e9748003b
:102eb4001e00be004008de000040780040e8b70075
:102ec4001e00be004809dd004800de00000071005d
:102ed400c808de000040780041e8b7001e00780012
:102ee4000040780042e8b70062002000ce00900065
:102ef40060842000e2f70700600020002042880080
:102f04008820a90060c2a9006022a9000080fa00fc
:102f1400000006000200fa008820a90060c2a9008f
:102f24006022a90010c0b300004f7800c402a900b9
:102f340060c0b3007d0707000d003700b042800079
:102f4400e10f50000a003a00400480006200600073
:102f54000000e000060032008820a9005628ef0097
:102f640060c2a900c402a8000040eb00004f780032
:102f74001e4078000004e000f0ff3a000080fa00f0
:102f8400000006000000fa0060428000e20f5000da
:102f940019003200e20f500005003e000000e0007e
:102fa4000a003200e10f50000e00320034003700f6
:102fb400e40f50001a003200e40f500013003900ef
:102fc400e50f5000280032002d003700c402a9008c
:102fd40020c0b3005507070010002000604288009d
:102fe4002700370040c8bf0050070700200020001a
:102ff400604288002200370041c8bf004b07070029
:1030040030002000604288001d00370042c8bf0025
:10301400460707004000200060428800180037007f
:1030240020428000e6001000608420000080400000
:10303400104078003d070700204280000000e900ae
:1030440020428800204280000000e0000300340099
:103054004000200060428800090037005000200032
:103064006042880006003700c402a8004c28ef0024
:103074005628ef0040c02800340607000000000076
:103084000080fa00000006001a00fa00889fbe00c3
:103094000f0478000f00780080047800600020009e
:1030a400200798002e009000800078008100e9003d
:1030b400310798000000e8000000e8000000d1009b
:1030c400800040000f007800818747000000e8007e
:1030d4000000d10000004000400798002e0090003e
:1030e400800078008100e900510798000000e800a2
:1030f4000000e8000000d100800040000f007800cc
:10310400818747000000e8000000d1000000400073
:10311400600798004e009000b1c4b30001487800e5
:103124004e00900041c5b300114098004e0090003d
:1031340081c4b300214098004e00900051c4b300f4
:10314400314098004e009000d1c4b3004140980033
:103154004e00900071c4b300514098002e009000be
:10316400800078008100e900710798000000e80001
:103174000000e8000000d100800040000f0078004b
:10318400818747000000e8000000d10000004000f3
:10319400000f98000000eb00100f98000000eb00f7
:1031a400200f9800c0fe070011c0b3001e08900055
:1031b400c8fe070010c0b3001047980055ff070071
:1031c4004e00900000017800ae0890001e089000a8
:1031d40026ff07006bff07000e003700b042800097
:1031e400e10f500009003a004004800062006000d2
:1031f4000000e000070032008820a9005628ef00f4
:1032040060c2a9005fff0700020037000040eb0026
:10321400104798001e4090000004e000efff3a00c1
:103224009efd07001e089000cc00dd002e089000d3
:10323400010070008000eb00300f9800410f9800ef
:103244006e009000000178003e089000ce089000c7
:103254002e00070010c0b300004f78000000eb0000
:10326400100798001f0037009e80fb006e0190003d
:103274001e0090000000410010417800ce01900033
:103284001e0090000080410010407800004069005a
:103294000080fb000000e9004f00de0000806000b9
:1032a40000f0a7000000ea000000ea004f00de0082
:1032b400004f7800ee0090001e0090000080400057
:1032c40010407800804078000e0990001e009000a5
:1032d40000004100014878001e0090000000e80052
:1032e400100798009e0090002e009000808f5000e0
:1032f400ddff39001e4078008907780088077800d0
:103304004f04be000080fa00000006001c00fa0012
:10331400300f9800410f9800520f980030c0b3004e
:10332400204798003e089000ce0890004008de0038
:1033340000407800304798003e089000ce08900086
:103344004809dd004800de0000007100c808de0006
:1033540000407800404798003e0890000040780004
:103364005047980040002000000f78000500370007
:103374000e80e8001e0040008040eb000148780009
:103384001e0fe8001e007800e90f5000f8ff34001b
:10339400c402a9000000eb00000f78000800370009
:1033a4000e80e8001e00400010407800f40407007e
:1033b400ec0047009e804000804878001e0fe80023
:1033c4001e007800e90f5000f5ff3400c402a80085
:1033d4006c00470064004000620020008000780018
:1033e4005e089000a6f607000080fa0000000600c0
:1033f4000800fa0010079800210798003207980087
:103404000000eb00000f7800190037001e00780060
:1034140000004000ae009000808040001e00780054
:10342400000040001e0190000000410010007800e0
:103434004800de0000407800804878001e007800d4
:10344400000040000000e800ae00900080804000d2
:103454001e007800000040001e01900000004100a2
:103464001000780000407800804878001e0fe800c3
:103474003e0090009e007800808f5000e3ff3500ee
:103484000080fa00000006001e00fa00889fbe00bb
:10349400200f9800310f9800420f9800530f9800a6
:1034a400445f98000f0478000f00780080047800cf
:1034b4002e0890004800dd0030079800001020001e
:1034c400400798004e009000cf00de0000804000ce
:1034d4000080d1008000e9005107980000004000fe
:1034e4000000e8000000e8000000d1008000400077
:1034f4000f007800818747000000e8000000d10039
:1035040000004000600798004e0090008000e90031
:10351400710798000000e8000000e8000000d100f6
:10352400800040000f007800818747000000e80019
:103534000000d10000004000000f98000000eb00e4
:10354400000f78000000eb0010079800d6fd07007c
:1035540010c0b3001afe0700ce089000210798009f
:10356400c0be2800f9040700480037001e00780098
:10357400e10f500007003c00cd82a9003e009000fe
:103584002a040700100f9800c402a8001e0fe800c8
:103594003e0037004e009000cf00de000080400067
:1035a4000080d100800078001e009000808f5000c1
:1035b4000e003400cd82a9003e0090001b040700d9
:1035c400800078006e0190001e0090000000400012
:1035d4000000410001087800cd82a8001e00900080
:1035e4000000e80010079800280037000000eb00f6
:1035f40010079800acfd07004e009000cf00de00dd
:10360400008040000080d100000178008e08900006
:103614006e00900076ff07000e089000000178000d
:10362400ae0090003e08900033fd07002e0090008d
:103634000010b00020079800ae009000f0ff2000ba
:10364400808f5000050036000000eb002007980032
:103654003e0890000000e800300f9800be0890007b
:103664005e089000808f500004003e00be08900069
:1036740000202000808f5000040036000040eb0042
:10368400405f980030bf2800b00407004e589000f7
:103694000004e000b5ff3a00890778008807780045
:1036a4004f04be000080fa00000006001600fa0075
:1036b4002057980031579800220f98002e50900000
:1036c4000080fb00300798003e0090004800dd00b9
:1036d400300798003e5090000080fb00be00900030
:1036e40000804000300798003e0090008000eb000e
:1036f4006011b80004f82400250120006033b800ec
:1037040064f5070040079800510798006207980085
:10371400730798004e009000de0090006e01900048
:10372400fe0190000100780082007800008fbe0046
:103734002e089000680040008040eb0001487800ab
:1037440070002000200798001d0037002e00900014
:10375400e40f500006003a002e009000ae089000de
:1037640000804000e1c2b300014878001100370036
:103774001e00be00a20020000300200042f5070046
:10378400000f98001e00be00a200200003002000cd
:103794002df50700008fbe002e009000ae089000ab
:1037a400008040008e089000814078000143b00002
:1037b400014878002e0090000000e90020079800de
:1037c4002e0090000000e000e0ff3d000080fa00c1
:1037d400000006001c01fa00300f9900410f990007
:1037e400225f9a0000102000300798003e089100e4
:1037f4008000eb0010079800210798001e0190003c
:10380400ae0190004c18dd00c410de008100700091
:103814004c10dd0010079800210798004e08910015
:103824000000e8008000eb00400798005107980072
:103834004e019000de0190004c18dd00c410de0043
:10384400810070004c10dd0040079800510798007b
:103854002d0037001e019000ae0190004e00900034
:10386400de009000800f5100818f5900220031004a
:103874006c004700000178001e009000ae0090002c
:1038840033fc07000000eb00000f78000f00370046
:103894001e00e80000004700c04890006c0047008c
:1038a4001e00400010407800c21020000e014100ac
:1038b4007eff0700c01020000e0040002304070014
:1038c40090bf2800210407001e8fe8003e009000ee
:1038d4009e007800808f5000edff35001e009000a0
:1038e400ae0090000010b0000180b00010079800f6
:1038f40021079800040037000040eb00205f9a0085
:1039040030bf2800110407002e5892000004e00084
:10391400d0ff3a000080fa00000006002600fa00fa
:10392400889fbe008a9fbe008c9fbe00101798001f
:10393400416798000f0578000f0078008005780033
:103944000010200050079800200020006007980015
:103954005e009000cf00de00008040000080d100b7
:1039640000047800ee0290000800e9007007980057
:103974000800780000004000000678000500e90017
:10398400000f9800080078006101b8000500780075
:103994008000eb00009bb90006027800028bb9009e
:1039a40006037800060242000010b800010242003b
:1039b40084007800080078006101b80005007800f0
:1039c4008000eb00009bb90006027800028bb9006e
:1039d40006037800060242000010b800010242000b
:1039e4008400780088007800050078000088b90019
:1039f40000007800000040000000e8000000e8003b
:103a04000000d100800040000f007800818747004b
:103a14000000e8000000d10000004000100f9800f2
:103a2400de049000ee0290000900e900200f9800e7
:103a34000500e900300f9800090078006101b80022
:103a4400050078008000eb00009bb90006027800b6
:103a5400028bb90006037800060242000010b80089
:103a64000102420084007800090078006101b80076
:103a7400050078008000eb00009bb9000602780086
:103a8400028bb90006037800060242000010b80059
:103a94000102420084007800890078000500780063
:103aa4000088b900000078000000e8000000e80089
:103ab4000000d100800040000f007800818747009b
:103ac4000000e8000000d10000004000400f980012
:103ad4006e0090008000e900510f98000000400043
:103ae4000000e8000000e8000000d1008000400071
:103af4000f007800818747000000e8000000d10033
:103b040000004000600f98000000eb0040079800a0
:103b14000000eb001007980011003700012020007e
:103b24006e00900000017800110009008200d800a6
:103b3400800078001e0090000088b90080007800a2
:103b44006e0990001e00900000004000000041003b
:103b5400010878001e0090000000e800100798009b
:103b64009e0090006e009000808f5000ebff3500a7
:103b74000000eb00200798000000eb0030079800dd
:103b840049fc070010c0b3008dfc07000000eb00e7
:103b9400000f78000000eb00100798000c003700bd
:103ba4001e0078004800dd00700f9800cd82a90047
:103bb4007e0890009d02070000179800cd82a8009f
:103bc4001e0fe8001e0090000000e8001007980097
:103bd4001e009000e10f5000f1ff3400c0be280029
:103be4005a0307007b0037005e009000cf00de0020
:103bf400008040000080d100800078002e009000fa
:103c0400808f5000260034000000eb00100798005d
:103c14001b0037001e0078004800dd00700f98007c
:103c2400cd82a9008c06d1007e0890007f02070097
:103c3400000178009e0990001e00900000e8b90081
:103c4400800078002e0090000080400000004000ba
:103c54000080410002087800cd82a8001e0fe80011
:103c64006e0090009e0f500002003a000000eb002e
:103c7400000f78001e0090000000e8001007980074
:103c84009e0090006e009000808f5000e1ff350090
:103c94002e0090000000e800200798004d00370037
:103ca4000000eb0020079800fffb07000000eb007a
:103cb40010079800260037005e009000cf00de0059
:103cc400008040000080d10000017800ce099000ff
:103cd400890078001e0090000088b9000000780078
:103ce400808141001e0a9000880078001e00900028
:103cf4000088b90000007800000040000000420085
:103d040083007800bafd07004e099000890078000e
:103d14001e0090000088b900000078008000410077
:103d24006e0990001e0090000000400062017800bf
:103d34003e0090000000410001017800ce00900098
:103d44006dfb07001e0090000000e80010079800bb
:103d54009e0090006e009000808f5000d6ff3500ca
:103d64004e0090000010b00040079800ce00900074
:103d7400f0ff2000808f5000050036000000eb00ab
:103d8400400798003e0090000000e80030079800cb
:103d9400012020006e00900000017800110009004d
:103da4008200d800800078003e009000808f500090
:103db40004003200be0090001e109000808f50005e
:103dc40004003a000040eb004067980030bf280030
:103dd400de0207004e6090000004e00082ff3a001b
:103de4008b0778008a0778004f06be004f05be0097
:103df4004f04be000080fa00000006000000fa0034
:103e04009580a9009560a900800020000011880019
:103e14002222ef00001a2000401188009082200026
:103e240030418800908220002041880020832000b7
:103e34001041880020832000004188002868ef009a
:103e4400c0f4210007000700a0f6210014000700b9
:103e54009560a80021e2a8002342a8000080fa008f
:103e6400000006000200fa00000f78001e0078002f
:103e74000000e00003003a00c0f42100e0418800a3
:103e8400020037009e007800e14188000080fa00bb
:103e9400000006000000fa000080fa00000006009e
:103ea4000200fa00000f78001e0078000000e00015
:103eb40003003a00a0f62100f04188000200370018
:103ec4009e007800f14188000080fa00000006009e
:103ed4000000fa000080fa00000006000200fa0068
:103ee4000040eb00004f780000000000114180000a
:103ef40000418000808f5000fcff320010418000a0
:103f0400104f7800104180000000e8001041880044
:103f140011418000b0832000808f500002003a00dd
:103f240020832000104188001e4078000080fa00a1
:103f3400000006000200fa00004f780000000000b4
:103f44001c0007000004a2000004e000fcff3a008b
:103f5400204180001e487800204180000000e800d5
:103f6400204188002141800020832000808f500060
:103f740002003a0090822000204188009580a80029
:103f84000080fa00000006000000fa0011418000e1
:103f9400004180000080680000f0a7000000ea00f3
:103fa4000000ea004f00de00004078000080fa00c4
:103fb400000006000400fa00314180001107980057
:103fc400214180001e009000808f500006003100c7
:103fd4009e00900020418000008050000000e90015
:103fe400000f7800050037009e00900020418000fb
:103ff4000080500068004000000f78001e00780028
:1040040000f0a7000000ea000000ea004f00de0014
:10401400004078000080fa00000006000000fa006a
:104024002141800030418000808f500009003a0017
:1040340011118000001020000080600000f0a70033
:104044000000ea000000ea004f00de0000407800b3
:10405400010037000040eb000080fa000000060079
:104064000400fa000141800011079800104180000b
:104074009e009000808f5000060031009e0090004a
:10408400104180000080500069004000000f78005b
:10409400040037009e009000104180000080500012
:1040a400000f7800f00f20009e007800808f5000f1
:1040b4000200360000c0eb00020037001e0078004a
:1040c400004078000080fa00000006000400fa00b6
:1040d4003141800011079800214180001e009000aa
:1040e400808f5000060031009e0090002041800027
:1040f400008050000000e900000f78000500370040
:104104009e00900020418000008050006800400024
:10411400000f7800f00f20009e007800808f500080
:104124000200360000c0eb00020037001e007800d9
:10413400004078000080fa00000006000800fa0041
:104144002007980031079800c5ff07000080fb0096
:10415400000f78003e0090009e0f500002003100d6
:10416400be009000010f78000000eb0010079800db
:104174000900370059ff0700ae009000804878001e
:104184002e0090000000e800200798001e00900018
:104194000000e800100798001e0090009e0f5000d9
:1041a400f4ff39001e0078000080fa0000000600c9
:1041b4000800fa002007980031079800c3ff0700a1
:1041c4000080fb00000f78003e0090009e0f50001e
:1041d40002003100be009000010f78000000eb00e7
:1041e40010079800090037002e0090001040780056
:1041f400ae0090008100e800210798004dff070001
:104204001e0090000000e800100798001e009000b7
:104214009e0f5000f4ff39001e0078000080fa0061
:10422400000006000400fa000000eb00000f780014
:104234008bff070020479800a4ff07003047980031
:104244002e4090000080fb000000e00003003200dc
:10425400e90f500003003200040037001e20a000c4
:10426400040037001e00a000020037001e10a0004a
:10427400000000003e4090000080fb000000e000d1
:1042840003003200e90f500003003200040037003d
:104294001e30a000020037001e40a00000000000f5
:1042a4001e0078000080fa00000006000400fa00f6
:1042b40010079800114180001e009000008f4000fc
:1042c400020037009e007800698f5000b083200000
:1042d4009e007800808f5000faff3e001e00780098
:1042e400104078000080fa00000006000000fa0088
:1042f4005bff07000080fb000000e9004f00de00c8
:10430400004078000080fa00000006000000fa0077
:104314006eff07000080fb000000e9004f00de0094
:10432400004078000080fa00000006000000fa0057
:10433400101180000080fa00000006000000fa005e
:1043440062ff07000004e0001000320031418000e9
:1043540020418000808f50000600360030418000ec
:104364008000780020418000008050000000e900b7
:104374000700370030418000800078002041800031
:104384000080500068004000010037000000eb008e
:104394000080fa00000006000000fa0030ff070069
:1043a4000004e00010003200114180000041800050
:1043b400808f500006003600104180008000780095
:1043c40000418000008050000000e9000700370031
:1043d400104180008000780000418000008050007f
:1043e40068004000010037000000eb000080fa0084
:1043f400000006000000fa0021e2a8002342a80001
:104404000080fa00000006000000fa0021e2a90082
:104414002342a9000080fa00000006000000fa0010
:104424002052200010128800100020002012880062
:1044340040012800001288000080fa0000000600f5
:104444000400fa00000f7800110798000000000033
:1044540000128000620060000000e000fcff3a00ef
:104464001e00780010007800401288000000000050
:104474000112800000022000008060000000e000c3
:10448400fbff3a001e0090004112800001087800f2
:104494000080fa00000006001800fa00100f9800cf
:1044a400210f9800320f98000000eb00000f7800f5
:1044b4000000eb00100798000000eb007007980064
:1044c4000000eb00000f9800200020006007980017
:1044d4002e0890000000d100200f98001e089000c4
:1044e4000000e00005003a000000eb0050079800cf
:1044f400700047002007980004003700ee00900089
:10450400510798009e089000210798003e089000eb
:104514000000e00005003a000000eb0040079800ae
:104524006e0047003007980005003700ee00900049
:1045340041079800be089000310798000000000071
:1045440000128000620060000000e000fcff3a00fe
:104554001b00370000128000620060000000e000d1
:1045640008003a002e0090001000780040128800e5
:10457400ae0090005e00900000804000200798008c
:104584001e0fe8000112800000022000008060007d
:104594000000e0000a003a003e0090004112800052
:1045a40001087800be0090004e009000008040009a
:1045b400300798001e0090000000e80010079800e3
:1045c4002e0890009e007800808f5000e1ff390093
:1045d4000f003700011280000002200000806000fc
:1045e4000000e0000a003a003e0090004112800002
:1045f40001087800be0090004e009000008040004a
:10460400300798001e0090000000e8001007980092
:104614009e0090002e089000808f5000edff39001e
:104624001e0078000080fa00000006000400fa0072
:10463400100798008e0078000e80e80080ff0700c5
:104644001e0078000080fa00000006000600fa0050
:10465400000f78001107980022079800ae00900020
:104664001e007800010178009e0090008aff070078
:104674000080fa00000006000000fa001112800019
:1046840000402000008060000000e00002003a00ca
:104694000000eb0001003700100020000080fa0049
:1046a400000006000000fa00001280000080fa00fa
:1046b400000006000000fa0061e2a9000080fa0090
:1046c400000006000200fa00000f780001138000c9
:1046d40000002800008060000000e00025003a008f
:1046e4001e007800c300dd00c0bf28000080400029
:1046f40010007800101388001e0078004300dd00cd
:104704008080e800c0bf28000080400010007800ce
:10471400201388001e0078004300dd00e400400000
:10472400c0bf2800008040001000780000f0a00006
:10473400001388001e0078004300dd00e6004000fe
:10474400c0bf280000804000104078006140600035
:104754000080fb00610060004500dd004116800020
:104764000150a100010070004016880010c0b30081
:10477400010037000040eb000080fa000000060052
:104784000200fa00004f78001e80fb0040138800ee
:104794000000000000138000610060000000e000e1
:1047a400fcff320040138000004078000080fa00d3
:1047b400000006000600fa00100798002107980080
:1047c4009e009000010f7800060037001e0078005c
:1047d40010407800eaff07009e00780080487800c7
:1047e4001e0fe8002e00900000f0a7000000ea0071
:1047f4000000ea004f00de0000407800ae009000a8
:104804008100e900210798000004e000efff3a006e
:104814000080fa00000006000600fa001007980065
:10482400210798009e009000010f780004003700d3
:104834001e007800104078001e0fe800d0ff07002b
:104844002e00900000f0a7000000ea000000ea003b
:104854004f00de0000407800ae0090008100e900c7
:10486400210798000004e000f1ff3a000080fa00fc
:10487400000006000600fa001007980021079800bf
:104884009e009000010f7800050037000040eb0007
:10489400bbff07009e007800804878001e0fe800e8
:1048a4002e00900000f0a7000000ea000000ea00db
:1048b4004f00de0000407800ae0090008100e90067
:1048c400210798000004e000f0ff3a000080fa009d
:1048d400000006000200fa00004f78001e80fb0072
:1048e400401388000080fa00000006000000fa006f
:1048f40040138000004078000080fa0000000600a9
:104904000000fa0040048000620060000000e00043
:1049140006003200e04280000000e00002003200a5
:10492400e0428000000001008820a9000080fa0015
:10493400000006000200fa00000f78009e007800d4
:10494400e14288000080fa00000006000400fa003a
:10495400100798000040eb00004f78000b00370070
:104964000000000093fd07000004a2000004e00022
:10497400fcff3a001e80fb009e0090000080400077
:10498400104078001e4fe8006afd07001e80fb00ff
:104994009e00900000804000104078000004e00079
:1049a400efff3a000080fa00000006000200fa005f
:1049b4004afd0700004f78001e80fb006101b9002a
:1049c400d0f92f00f1ff2f0002004000838048003f
:1049d4001201200003002000820f5000838f580032
:1049e40057003e00006001004000370030003700ef
:1049f40038003700540037005300370052003700a6
:104a040017003700500037004f0037004e003700c2
:104a14001e0037004c003700440037003a003700ce
:104a240049003700050037003c003700000037001c
:104a3400a0bd2800c5ff070044003700e9f30700c4
:104a44000004e00003003200a0bd2800bfff0700ff
:104a54003e00370000be2800bcff07003b003700c3
:104a640000002000a14724000cf707000004e00028
:104a74000300320060be2800b4ff07003300370093
:104a840000be2800b1ff070030003700dff8070040
:104a94000004e00003003200a0bd2800abff0700c3
:104aa4002a00370000be2800a8ff070027003700af
:104ab40075f907000004e00003003200a0bd2800df
:104ac400a2ff07002100370000be28009fff070057
:104ad4001e00370074f8070010c0b300b8f80700d0
:104ae40060be280099ff07001800370014c0b30007
:104af400130020000001eb008000eb000000eb003d
:104b040061fa07001100370012c0b3001100200041
:104b14000000eb002ffb07000c00370011c0b300ae
:104b2400200020007dfb07000800370012c0b300fe
:104b3400012020000000eb0026fb070003003700e3
:104b44000000000001003700000000000080fa00af
:044b54000000060057
:020000040000fa
:104b58005a0800000200000002000000ffff0000e9
:104b680000080000200000000000000020080000ed
:104b780020000000000000005c08000002000000a7
:104b8800000000004e0800000800000000000000bf
:104b9800400800000e000000000000005608000059
:104ba80004000000000000005e080000880000000b
:104bb800020000000100000000840800850884004d
:104bc80008840800840884000874080000000000b5
:104bd80000000000000000000000000000000000cd
:104be8000000000000000000000208000101ac0005
:104bf80008ad0800ac08ac0008ac0800ac089c0084
:104c08000800000000000000000000000000000094
:104c1800000000000000000000000000000002008a
:104c280008020200d408d50008d40800d408d4002b
:104c380008d40800c40800000000000000000000bc
:104c4800000000000000000000000000000000005c
:104c5800000000005e08860008ae080000000000a2
:104c6800000000000000000000000000ea0800004a
:104c78000200000000000000ec0800000200000034
:104c88000200000004000000e60800000400000024
:104c980000000000ee080000020000000200000012
:104ca80001000000f0080000020000000000000001
:044cb80000000000f8
:020000040000fa
:104cbc000000fa0000002300203a88004827ef008b
:104ccc004e27ef007027ef007227ef007427ef00dc
:104cdc007627ef001200200080072000a109200099
:104cec00337420008049780081497800824978002b
:104cfc000001eb00600420007105200023742000eb
:104d0c008049780081497800824978000080fa0057
:104d1c00000006000000fa005628ef000080fa00a0
:104d2c00000006000200fa00004f78001e80fb0015
:104d3c004013880010002000b04288000080fa0068
:104d4c00000006000000fa005828ef000080fa006e
:104d5c00000006000200fa00000f78009e007800a8
:104d6c004112880010002000c04288000080fa0028
:104d7c00000006000000fa00c422ef00cc22ef0075
:104d8c006009200000168800f0712400401688008d
:104d9c005620ef005820ef005a20ef006e20ef0055
:104dac007020ef007220ef00c622ef00ce22ef0041
:104dbc006000200000278800800124001027880054
:104dcc000080fa00000006000000fa003e00070018
:104ddc0000a0260081012000210007000000eb004c
:104dec0036fe0700c402a800cd82a80019f80700ff
:104dfc00c8ff0700d3ff0700a7f207000100370028
:104e0c00000000005efc07000004e000fcff320024
:104e1c00e4fe0700fbff37000000fa0021068000cb
:104e2c00f0f82f00008060000040a00020068800f1
:104e3c005105800080ff2f00008060000000a00062
:104e4c005005880041058000f0ff280000806000bc
:104e5c0000c0a000400588000080fa000000060099
:020000040000fa
:104e6c00f03fb1000180b10006003500ee030900ef
:104e7c0000000000403fb1000180b100fbff3d008d
:104e8c001000b000203fb000020035000080090087
:084e9c00000000000000060008
:020000040000fa
:104ea4000200fa00000f78009e007800d1428800ca
:104eb400ffff37000000fa00008020008007780020
:104ec40080812000000188000080fa0000000600b4
:104ed4000000fa00a9ff0700d1ff070076ff0700d2
:104ee4004efd0700c5fb07000080fa000000060025
:020000040000fa
:0200000401f009
:04000000ffff0000fe
:020000040000fa
:0200000401f009
:04000800ffff0000f6
:020000040000fa
:0200000401f009
:04000c00f9ff0000f8
:020000040000fa
:0200000401f009
:04001000bfff00002e
:020000040000fa
:0200000401f009
:040014005fff00008a
:020000040000fa
:0200000401f009
:04001800ffff0000e6
:020000040000fa
:0200000401f009
:04001c00ffff0000e2
:020000040000fa
:0200000401f009
:04002000ffff0000de
:00000001FF
