:020000040000fa
:080000000002040000000000f2
:020000040000fa
:0400080032040000be
:020000040000fa
:04000c00d802000016
:020000040000fa
:040010001a030000cf
:020000040000fa
:04001400f8020000ee
:020000040000fa
:040018003a030000a7
:020000040000fa
:04001c0032040000aa
:020000040000fa
:0400200032040000a6
:020000040000fa
:0400240032040000a2
:020000040000fa
:04002800320400009e
:020000040000fa
:04002c00320400009a
:020000040000fa
:040030003204000096
:020000040000fa
:040034003204000092
:020000040000fa
:04003800320400008e
:020000040000fa
:04003c00320400008a
:020000040000fa
:040040003204000086
:020000040000fa
:040044003204000082
:020000040000fa
:04004800320400007e
:020000040000fa
:04004c00320400007a
:020000040000fa
:040050003204000076
:020000040000fa
:04005400b6030000ef
:020000040000fa
:040058005a03000047
:020000040000fa
:04005c00320400006a
:020000040000fa
:040060003204000066
:020000040000fa
:040064003204000062
:020000040000fa
:04006800320400005e
:020000040000fa
:04006c00320400005a
:020000040000fa
:040070003204000056
:020000040000fa
:040074003204000052
:020000040000fa
:04007800320400004e
:020000040000fa
:04007c00320400004a
:020000040000fa
:040080003204000046
:020000040000fa
:040084003204000042
:020000040000fa
:04008800320400003e
:020000040000fa
:04008c00320400003a
:020000040000fa
:040090003204000036
:020000040000fa
:040094003204000032
:020000040000fa
:04009800320400002e
:020000040000fa
:04009c00320400002a
:020000040000fa
:0400a0003204000026
:020000040000fa
:0400a4003204000022
:020000040000fa
:0400a800320400001e
:020000040000fa
:0400ac00320400001a
:020000040000fa
:0400b0003204000016
:020000040000fa
:0400b4003204000012
:020000040000fa
:0400b800320400000e
:020000040000fa
:0400bc00320400000a
:020000040000fa
:0400c0003204000006
:020000040000fa
:0400c4003204000002
:020000040000fa
:0400c80032040000fe
:020000040000fa
:0400cc0032040000fa
:020000040000fa
:0400d00032040000f6
:020000040000fa
:0400d40032040000f2
:020000040000fa
:0400d80032040000ee
:020000040000fa
:0400dc0032040000ea
:020000040000fa
:0400e00032040000e6
:020000040000fa
:0400e40032040000e2
:020000040000fa
:0400e80032040000de
:020000040000fa
:0400ec0032040000da
:020000040000fa
:0400f00032040000d6
:020000040000fa
:0400f40032040000d2
:020000040000fa
:0400f80032040000ce
:020000040000fa
:0400fc0032040000ca
:020000040000fa
:0401000032040000c5
:020000040000fa
:0401040032040000c1
:020000040000fa
:0401080032040000bd
:020000040000fa
:04010c0032040000b9
:020000040000fa
:0401100032040000b5
:020000040000fa
:0401140032040000b1
:020000040000fa
:0401180032040000ad
:020000040000fa
:04011c0032040000a9
:020000040000fa
:0401200032040000a5
:020000040000fa
:0401240032040000a1
:020000040000fa
:04012800320400009d
:020000040000fa
:04012c001c040000af
:020000040000fa
:040130003204000095
:020000040000fa
:040134003204000091
:020000040000fa
:04013800320400008d
:020000040000fa
:04013c003204000089
:020000040000fa
:040140003204000085
:020000040000fa
:040144003204000081
:020000040000fa
:04014800320400007d
:020000040000fa
:04014c003204000079
:020000040000fa
:040150003204000075
:020000040000fa
:040154003204000071
:020000040000fa
:04015800320400006d
:020000040000fa
:04015c003204000069
:020000040000fa
:040160003204000065
:020000040000fa
:040164003204000061
:020000040000fa
:04016800320400005d
:020000040000fa
:0402080032040000bc
:020000040000fa
:04020c00d802000014
:020000040000fa
:040210001a030000cd
:020000040000fa
:04021400f8020000ec
:020000040000fa
:040218003a030000a5
:020000040000fa
:04021c0032040000a8
:020000040000fa
:0402200032040000a4
:020000040000fa
:0402240032040000a0
:020000040000fa
:04022800320400009c
:020000040000fa
:04022c003204000098
:020000040000fa
:040230003204000094
:020000040000fa
:040234003204000090
:020000040000fa
:04023800320400008c
:020000040000fa
:04023c003204000088
:020000040000fa
:040240003204000084
:020000040000fa
:040244003204000080
:020000040000fa
:04024800320400007c
:020000040000fa
:04024c003204000078
:020000040000fa
:040250003204000074
:020000040000fa
:04025400b6030000ed
:020000040000fa
:040258005a03000045
:020000040000fa
:04025c003204000068
:020000040000fa
:040260003204000064
:020000040000fa
:040264003204000060
:020000040000fa
:04026800320400005c
:020000040000fa
:04026c003204000058
:020000040000fa
:040270003204000054
:020000040000fa
:040274003204000050
:020000040000fa
:04027800320400004c
:020000040000fa
:04027c003204000048
:020000040000fa
:040280003204000044
:020000040000fa
:040284003204000040
:020000040000fa
:04028800320400003c
:020000040000fa
:04028c003204000038
:020000040000fa
:040290003204000034
:020000040000fa
:040294003204000030
:020000040000fa
:04029800320400002c
:020000040000fa
:04029c003204000028
:020000040000fa
:0402a0003204000024
:020000040000fa
:0402a4003204000020
:020000040000fa
:0402a800320400001c
:020000040000fa
:0402ac003204000018
:020000040000fa
:0402b0003204000014
:020000040000fa
:0402b4003204000010
:020000040000fa
:0402b800320400000c
:020000040000fa
:0402bc003204000008
:020000040000fa
:0402c0003204000004
:020000040000fa
:0402c4003204000000
:020000040000fa
:0402c80032040000fc
:020000040000fa
:0402cc0032040000f8
:020000040000fa
:0402d00032040000f4
:020000040000fa
:0402d40032040000f0
:020000040000fa
:0402d80032040000ec
:020000040000fa
:0402dc0032040000e8
:020000040000fa
:0402e00032040000e4
:020000040000fa
:0402e40032040000e0
:020000040000fa
:0402e80032040000dc
:020000040000fa
:0402ec0032040000d8
:020000040000fa
:0402f00032040000d4
:020000040000fa
:0402f40032040000d0
:020000040000fa
:0402f80032040000cc
:020000040000fa
:0402fc0032040000c8
:020000040000fa
:0403000032040000c3
:020000040000fa
:0403040032040000bf
:020000040000fa
:0403080032040000bb
:020000040000fa
:04030c0032040000b7
:020000040000fa
:0403100032040000b3
:020000040000fa
:0403140032040000af
:020000040000fa
:0403180032040000ab
:020000040000fa
:04031c0032040000a7
:020000040000fa
:0403200032040000a3
:020000040000fa
:04032400320400009f
:020000040000fa
:04032800320400009b
:020000040000fa
:04032c001c040000ad
:020000040000fa
:040330003204000093
:020000040000fa
:04033400320400008f
:020000040000fa
:04033800320400008b
:020000040000fa
:04033c003204000087
:020000040000fa
:040340003204000083
:020000040000fa
:04034400320400007f
:020000040000fa
:04034800320400007b
:020000040000fa
:04034c003204000077
:020000040000fa
:040350003204000073
:020000040000fa
:04035400320400006f
:020000040000fa
:04035800320400006b
:020000040000fa
:04035c003204000067
:020000040000fa
:040360003204000063
:020000040000fa
:04036400320400005f
:020000040000fa
:04036800320400005b
:020000040000fa
:100400006f9320000eff20000e0188000000000006
:10041000000020000000e000020032000001200087
:100420002002880014000700850107000000e0009a
:1004300003003a00205a2200010020000200370089
:100440000000200001002000810f70000100320038
:1004500014000700000020000000e000020032004d
:100460000000020000000000fe2602000000000064
:100470000040da000000fe004440a900a007200070
:100480000000e0000300320000002000a00188000e
:100490004440a800000006008a1f78008b1f7800e7
:1004a0000000060091018800800478000000eb0045
:1004b0001a003700e284440032a0b4009905ba0063
:1004c000e284440032a0b4009906ba00e2844400f9
:1004d00032a0b4000006eb00476fde00fd07b2005b
:1004e000636ce10003003a00ebff07000000eb0043
:1004f0000a003700606ce10004003a00005deb0088
:100500008b05e900fdff3e00040037006168e10053
:10051000010032000086eb000b00070019c7ba008b
:100520001905ba000e04e00003003a000a00e000da
:10053000e0ff3a0000000600fe07b2009e018800be
:100540008a047800f5ff3700395dba008b05e900b1
:100550000c003200295dba008b05e900080032006a
:100560000c00e00003003a00e284440032a0b40032
:10057000f5ff370019ddba008b05e900faff3a00f4
:100580008904e800e184440032a0b40000000600c1
:10059000000000000000000000000000000000005b
:1005a000000000000000000000000000000000004b
:1005b0003600f800809fbe00829fbe00849fbe0070
:1005c000869fbe000000fa008020a9000000eb001a
:1005d0002a1207000080fa004f03be004f02be003f
:1005e0004f01be004f00be003600f900004006007b
:1005f0003600f800809fbe00829fbe00849fbe0030
:10060000869fbe000000fa00211207008040a9006a
:1006100010002000191207000080fa004f03be00ee
:100620004f02be004f01be004f00be003600f90071
:10063000004006003600f800809fbe00829fbe008a
:10064000849fbe00869fbe000000fa008060a90063
:1006500020002000091207000080fa004f03be00ae
:100660004f02be004f01be004f00be003600f90031
:10067000004006003600f800809fbe00829fbe004a
:10068000849fbe00869fbe000000fa008080a90003
:1006900030002000f91107000080fa004f03be006f
:1006a0004f02be004f01be004f00be003600f900f1
:1006b000004006003600f800809fbe00829fbe000a
:1006c000849fbe00869fbe000000fa006044800048
:1006d00000000100b1438000a0438000808f5000e3
:1006e00002003a009580a900190037008580a90012
:1006f00010003700b0438000904078008180fb00fc
:10070000211188000000e800b0438800b143800058
:1007100020882000808f500002003a00908720003f
:10072000b0438800b1438000a0438000808f500018
:1007300006003200111180000020200000806000bf
:100740000000e000ebff3200010037000000000075
:100750000080fa004f03be004f02be004f01be00f2
:100760004f00be003600f900004006003600f800d9
:10077000809fbe00829fbe00849fbe00869fbe00f9
:100780000000fa0070448000000001008560a900ac
:100790001e003700804380003111800081407800c6
:1007a0000148780081438000a0882000808f50009d
:1007b00009003200804380008000e8009043800000
:1007c000808f500004003200804380000000e80069
:1007d000804388000d00370081438000a0882000fe
:1007e000808f500007003a0091438000208820004d
:1007f000808f500003003200208820008043880052
:100800000200370010c0b30078e8b7001011800074
:10081000610060000000e000deff3a000080fa00a6
:100820004f03be004f02be004f01be004f00be008e
:100830003600f90000400600801f78000000fa0032
:1008400010118000620060000000e0000100320032
:100850002222a9008c20a9000080fa004f00780015
:10086000004006000040da000000fe000a00fa0026
:1008700011002000b1bf9f00c0bf9f006a805700d9
:100880003d0307004fb897000080fa000000060003
:100890000a00fa00e20f500034003e009049800048
:1008a000e10f500003003200e20f500011003a0047
:1008b0000c003700032220000300e00001003a0092
:1008c0000040da002002e200020035002822ef009a
:1008d00021e2a8002342ab000d003a002342a80009
:1008e0000b003700032320000300e00001003a0062
:1008f0000040da003002e200020035003822ef004a
:1009000031e2a8003342ab0001003a003342a800b4
:10091000820178000b0037003102fb00e10f50002c
:1009200004003a002322ab00feff3a0024118800a5
:10093000030037003322ab00feff3a00a411880009
:100940008301e9000300e000f3ff3a00e10f5000eb
:1009500003003a002302ab00feff32000b00370019
:100960003302ab00feff32000800370033002000e6
:10097000b3bf9f00c0bf9f00d1bf9f00e2bf9f00d9
:100980006a805700fe0207006fb9970002007800e6
:100990000080fa00000006000a00fa005100200062
:1009a000b1bf9f00c0bf9f006a805700f6020700da
:1009b0005fb897000080fa0000000600889fbe0024
:1009c00080047800a04980000000e00004003a00a4
:1009d0000e0007000084eb000000e0000800350076
:1009e000a84980000900e000050032000900440029
:1009f000060007000000e00001003d000084eb005d
:100a0000080078004f04be00000006008000780057
:100a10000100e00003003a0000002000a049880027
:100a2000000005000080eb0002002000828f5000d3
:100a300002003e00a14988000000eb000000060013
:100a400000000500889fbe008a9fbe008c1f7800b2
:100a5000660007006d00330003866c006450e100ff
:100a60002e0032006420e100330032006150e100ca
:100a70002f0032006120e1003100320085855500f1
:100a8000eb07b00009002000080420000500370033
:100a90000804440089844c000a0031000603430026
:100aa00087834b000001530081815b00f8ff330016
:100ab0000203be000800a0000804440089844c0022
:100ac000f6ff3900c639dd008301730001003200f2
:100ad000130020008904d1000884d3000998a300e2
:100ae000050032000800a7000300a0008904d1001f
:100af0000884d3008b05e8008904d1000884d30062
:100b00000001eb000281d2001200070001f0a100f9
:100b10000cf0a70001f0a000450037006420e100c0
:100b2000470032000801be000200be00f7ff370098
:100b30006120e100420032006000b800f3ff37009e
:100b40000000200001f82700f0ff3700140020000b
:100b50003e00370081002000618055000b003d0001
:100b60000b00200061fe2f000100e1001d00340099
:100b700082817100610164008904d1000884d3007e
:100b80000000e800faff3a007100200061006400f4
:100b9000030070000200600009003200610444009c
:100ba000e0844c000988a500050032008b05e800b0
:100bb0006808e10002003a008904d1000884d300eb
:100bc000f20f20000258e10005003d00c75ddd0086
:100bd000f907b2008980750008007800000006005f
:100be0000bf827008b007800000005000004be0011
:100bf000310007000003be000405be000200be0075
:100c00002d000700844f7500000006000200be00a2
:100c10006450e100050036006420e1000200360067
:100c20000968a30001003a000800be000160a000ae
:100c30004f0678004f05be004f04be0000000600be
:100c4000f0ff2f00f1ff2700f9ff3700889fbe005b
:100c50008a9fbe00841f7800e4ff07004f007800e1
:100c600011003300f0ff2f00838f6c0006003b0063
:100c7000040565000a00a7000800370009f0a60077
:100c80001000200008003700820f5400838f5c00a2
:100c9000030039001000200001003e000000200089
:100ca00009f0a7000000ea004f05be004f04be0097
:100cb0000000e00000000600c70ade00f107b200f5
:100cc000f50fb20008003200e1cf4200020032000e
:100cd0000170a00024000500810f700001003200a7
:100ce0000408050044000500810f700002003a006e
:100cf000140005008502e9000000400081c04800a2
:100d0000fcff3b000170a00024000500800178007a
:100d100002003700b15978000201e9000200e0004a
:100d2000fcff3a0000000600a18c20006b000700c9
:100d3000800078000080eb000100e0000400350036
:100d4000a18c2000a0002000020007004f80de00e0
:100d500000000600889fbe008a1f78000004be00c5
:100d6000c900900069009000808f50000600390093
:100d700009007800b1000700800078000080eb00d7
:100d80000100e00017003500084578004900900098
:100d900008587800c00498001900780000b8a30033
:100da00004003a0000a8a30008003200ea4f5400f3
:100db00006003a00090078000d0007008000780066
:100dc0000080eb000100e00006003a0000c02000b7
:100dd000190060000200320049009000e004980011
:100de0000a80fb004f0578004f04be00000006009b
:100df000889fbe008a1f7800000478000800e00089
:100e00000d003a0088912000700544008004eb003a
:100e1000580078000000e00004003200f4ff0700f2
:100e20000000e00001003d008084eb008a0f5400c8
:100e3000f7ff3a002500370000002200180060008c
:100e40008004eb0021003200a80490000f0037005e
:100e500009015100384090000000fb008900780033
:100e60008bfe07000000e00007003c002800900017
:100e70004004980060049800500c98001890a0005e
:100e80008084eb001100370080844400480190000a
:100e9000828f5400eeff3900280090004004980033
:100ea0009800780002c020000281600001003a0032
:100eb0003800900001e8a3000200320060049800ae
:100ec00001003700500c98008004eb000900780006
:100ed0004f0578004f04be0000000600889fbe004a
:100ee0008a9fbe0080047800010478002c0037003f
:100ef000c800900068009000808f50000400390006
:100f0000080078004d0007000000e00037003500c1
:100f1000004020001800600009003200a1002000fd
:100f2000090078003b000700800578000b00e00016
:100f300003003200618514000a8545000400370073
:100f4000090078002d000700000578008005eb00ff
:100f500048009000e8009000808050008a8f500088
:100f600002003100010578008005eb000a017800dd
:100f70008900780065ff0700480090000a004000e3
:100f8000400498000b00e0000400320008007800e4
:100f900097ff07000000e00014003a008a84440034
:100fa0001904e000d2ff3a00008020001800600021
:100fb00006003200080078008dff070080007800ee
:100fc0000080eb000100e00009003a0001c02000b1
:100fd000988060000000eb0005003200480090009f
:100fe000600498000000eb00010037000080eb0077
:100ff0004f05be004f04be000000060080007800d0
:10100000010178003104e000fdff3a0000005100ca
:10101000000006000001eb0000027800b0417800fb
:1010200081cf510001003a00040178000304e00080
:10103000f9ff3a000200780000000600889fbe0019
:101040008a1f780000047800c800900068019000b2
:101050000000eb00828f50003c003900180078003f
:101060002200290002016000e20f51000700320057
:10107000012024000000e00001003d0001202000cc
:10108000008c70000080eb0030003700020026006a
:1010900002006000820f500009003a003800900002
:1010a000808f5000060039000800780050ff0700cc
:1010b000800078000080eb000100e00023003a008f
:1010c0001805780000c020000000650018003a00f4
:1010d000a80490006002200008004000808f5400a7
:1010e00013003a0000202000ef00070020049800c1
:1010f0000000e00005003a00290498004904980027
:101100008904e80039049800080037000a60a0004c
:101110000a0c7800400498000120200080804000e4
:1011200031049800400c9800500c98000c00070007
:101130002800900050049800380090006004980047
:1011400000002600180c70000000eb004f0578002e
:101150004f04be000000060020952000610037000b
:10116000881f7800e89220001804e00003003a008d
:10117000f9ff070020c0b300004c78004f0478004e
:1011800000000600889fbe00000478000800780078
:1011900017ff07008004780000042000180060009a
:1011a00002003200280090005a0007000000eb0007
:1011b00020049800384090000004e000050035004d
:1011c0000000fb00a9fd07000000e0000100320064
:1011d0008084eb00181090000000e000080032004e
:1011e000edfd07000000e000010032008084eb000c
:1011f00018109000470007000000eb001014980042
:101200000008200018006000150032000001eb000b
:101210006000b800a39120000202d00063027a00af
:10122000880f520005003a0000004000818048000d
:10123000008041000008eb0006003700610040001c
:10124000e08048000201e800e80f5000e08f5800fd
:10125000f0ff3a00080078002e0007000e0037006b
:10126000000c780000c0eb003044980060022000c1
:1012700008004000200498004004980050049800a2
:10128000400c980060049800500c9800700498007e
:1012900076004400000c9800090078004f04be005e
:1012a00000000600881f78000004eb006140b800d1
:1012b000e2ff2f00f3ff2f00b5000700829220000d
:1012c000620078000000e00001003200adff07007e
:1012d0000804e800e80f5400f4ff3a004f047800d7
:1012e00000000600010020000100e00008003200bc
:1012f000010080000100e000050032008100e900eb
:10130000010088008100d0000200800000b1780058
:10131000000006000000e0002f003200c00178004d
:10132000e38f51002c0036000308a3002a003a0086
:10133000614980000100e00002003200810f50008e
:101340000400310011009800604988001600370041
:1013500082007800110190000200e00002003200db
:10136000800f5100faff390011027800848240009a
:10137000850f500018003900808f520003003a009a
:101380008308420001007800070037000200e000f7
:101390000300320083014000830f51000e0039002a
:1013a0001200980090009800900090000100e0006a
:1013b0000900320010014000828f500006003a0000
:1013c000a29220000009eb001001780011084100f2
:1013d000910090001100980000000600889fbe0058
:1013e00000047800514980000100e0000200320052
:1013f000010078000d00370061498000c092200094
:1014000004003700910f5400250036000180e800e9
:10141000910090000100e000faff3a001000370050
:10142000920f54001e0036000280e8001001780080
:101430000200e000faff3a001101780061498000e3
:10144000c092200004003700910f540014003600b1
:101450000180e80091009000828f5000faff3a006e
:1014600089498000888f5400010031008804780089
:1014700009007800360007000000e00004003a0090
:10148000888f5400050032008904d100f5ff370031
:10149000091878009fff0700d2ff37000000eb001b
:1014a0004f04be0000000600881f7800630440005f
:1014b0000800a1008000eb00800f540021003600de
:1014c000e30f540001003e004800200008007800af
:1014d000c2ff07008000eb000000e00019003200ae
:1014e000900078009101780064815100880f5100cc
:1014f0000300310011019000020878000700370056
:1015000008814000020878009101900013019800c2
:101510001001780011091400880878001001780083
:101520000000eb000200e000040032009201900095
:101530000300e000010032000280e800504988000a
:101540008180e800010078004f0478000000060068
:10155000800078000000eb000100e000050034008e
:101560000100780015fd0700e10f400001003a007e
:101570000000eb000000060000c0da0000000600da
:1015800000c0da000000060000c0da00000006001b
:10159000020ab900001bb9000200b8008100420035
:0815a000810043000000060079
:020000040000fa
:1015a80052650000676900007374000065720000ee
:1015b800206100006464000072650000737300001d
:1015c800206f000075740000206f00006620000086
:1015d800726100006e67000065280000302d000071
:1015e80036330000292e000020000000526500005c
:1015f80067690000737400006572000020640000d1
:1016080061740000612000006f7500007420000004
:101618006f66000020720000616e000067650000c0
:10162800283000002d32000035350000292e00003a
:101638002000000053500000493100003a0000002b
:1016480070610000737300002e00000066610000e6
:10165800696c00002e000000535000004932000061
:101668003a00000055410000525400003a000000c2
:10167800646f00006e6500002e0000004d650000dc
:10168800617300002e000000646f00006e650000aa
:041698002e00000020
:020000040000fa
:10169c001200fa00000f98000e089000c800dd0040
:1016ac0000002c0001007000100798009e009000b4
:1016bc00210798000000eb00300798000000eb00b9
:1016cc00400798000000eb00000f78000e00370078
:1016dc00cd82a9001e0078000000400000004700e9
:1016ec0020009000f20c0700800078001e007800ab
:1016fc0000004000000047006a004000010878002c
:10170c00cd82a8001e0fe8001e007800e20f5000ea
:10171c00efff34007e0090000080fa00000006000d
:10172c000000fa009028ef000080fa00000006008c
:10173c000000fa0080448000e30f500029003200c2
:10174c00e30f500005003e00e10f50001500320081
:10175c00e10f50001b003e0009003700e50f500060
:10176c0030003200e50f500026003900e60f500023
:10177c0032003200e70f50003600320038003700dc
:10178c008540a9008002200062010700cd82a900db
:10179c00a0448000670d07001000200080448800e2
:1017ac002f003700900220005a010700cd82a900bb
:1017bc00a04480005f0d07002000200080448800ba
:1017cc0027003700a002200052010700cd82a9009b
:1017dc00a0448000570d0700300020008044880092
:1017ec001f003700b00220004a010700cd82a9007b
:1017fc00a04480004f0d070040002000804488006a
:10180c0017003700c002200042010700cd82a9005a
:10181c00a0448000470d0700500020008044880041
:10182c000f003700cd82a9000000eb00410d07002e
:10183c00600020008044880009003700cd82a90098
:10184c000000eb003b0d0700700020008044880076
:10185c00030037009028ef009e28ef0000000000e6
:10186c000080fa00000006001400fa000000eb00f3
:10187c001007980010c0b300004f7800acff0700b1
:10188c0018003700f0448000e10f500013003a00bc
:10189c002104800000402000008060000000e00077
:1018ac00100032008540a900cd82a8009e28ef00d0
:1018bc00411280001e009000000040000000470014
:1018cc0066004000010878001e0090000000e8004f
:1018dc001007980096ff0700020037000040eb004d
:1018ec00004f78001e4078000004e000e5ff3a004d
:1018fc00de009000f00f200080806000900420003b
:10190c000080680000f0a7000000ea000000e90079
:10191c004f00de00404798004e4090008080fb0056
:10192c006e019000f00f200000016100e004200027
:10193c000000690000f0a7000000ea000000e900c8
:10194c004f00de000080600000f0a7000000ea00fd
:10195c000000ea004f00de00404798004e40900027
:10196c008080fb007e019000f00f200000016100e0
:10197c00400520000000690000f0a7000000ea000c
:10198c000000e9004f00de000080600000f0a700be
:10199c000000ea000000ea004f00de00404798001b
:1019ac004e4090008080fb000e099000f00f20004c
:1019bc0000016100100420000000690000f0a70085
:1019cc000000ea000000e9004f00de00008060002b
:1019dc0000f0a7000000ea000000ea004f00de0063
:1019ec00404798004e4090008080fb001e099000fc
:1019fc00f00f200000016100e004200000006900ed
:101a0c0000f0a7000000ea000000e9004f00de0033
:101a1c000080600000f0a7000000ea000000ea006f
:101a2c004f00de00404798004e4090000080fa00c6
:101a3c00000006001600fa0080022000000f78005b
:101a4c000000eb0020079800190037002e009000d2
:101a5c00e40f5000030034000000eb001007980066
:101a6c00050037001e007800c800dd0000002c00c7
:101a7c000100700010079800cd82a9001e00900094
:101a8c000b0c0700800078002e0090000000400036
:101a9c00000047006800400001087800cd82a800d3
:101aac001e0fe8002e0090000000e80020079800b0
:101abc002e009000e60f5000e4ff3400ee00900082
:101acc00f00f2000808060009004200000806800ef
:101adc0000f0a7000000ea000000e9004f00de0063
:101aec00604798006e4090008080fb007e01900063
:101afc00f00f200000016100e004200000006900ec
:101b0c0000f0a7000000ea000000e9004f00de0032
:101b1c000080600000f0a7000000ea000000ea006e
:101b2c004f00de00604798006e4090008080fb0004
:101b3c000e099000f00f200000016100400520000c
:101b4c000000690000f0a7000000ea000000e900b6
:101b5c004f00de000080600000f0a7000000ea00eb
:101b6c000000ea004f00de00604798006e409000d5
:101b7c008080fb001e099000f00f20000001610026
:101b8c00100420000000690000f0a7000000ea002b
:101b9c000000e9004f00de000080600000f0a700ac
:101bac000000ea000000ea004f00de0060479800e9
:101bbc006e4090008080fb002e099000f00f2000fa
:101bcc0000016100e00420000000690000f0a700a3
:101bdc000000ea000000e9004f00de000080600019
:101bec0000f0a7000000ea000000ea004f00de0051
:101bfc00604798006e4090000080fa0000000600dc
:101c0c001400fa00000f9800110f98008e08900035
:101c1c00f0032000808f50000400360040ad2800f7
:101c2c003efc07000040eb00310037009e0890009e
:101c3c00f00f2000808f500004003600a0af280069
:101c4c0036fc07000040eb00290037000e0890001e
:101c5c00c800dd001e0890000100700000f0a0001c
:101c6c00100798009e009000210798000000eb00e0
:101c7c00300798000000eb00400798000000eb00d4
:101c8c00000f78000e003700cd82a9001e007800ee
:101c9c00000040000000470020009000840b07006b
:101cac00800078001e007800000040000000470013
:101cbc006a00400001087800cd82a8001e0fe800e1
:101ccc001e007800e20f5000efff3400fe00900081
:101cdc00f00f2000808060001e089000808f500064
:101cec0002003a0010c0b300010037000040eb00c6
:101cfc000080fa00000006000200fa00000f7800d5
:101d0c001e0078004800dd00904488000080fa0036
:101d1c00000006000200fa00000f78001e00780098
:101d2c00c800dd0000002c0001007000a0448800f9
:101d3c000080fa00000006001800fa000050250090
:101d4c002007980010002000000f780007003700d3
:101d5c001e007800000040000000470064004000b6
:101d6c008000eb00010878001e0fe8001e007800d0
:101d7c00e90f5000f6ff34000000eb00000f780074
:101d8c0009003700cd82a9001e0078000000400039
:101d9c000000470020009000450b0700100798003a
:101dac00cd82a8001e0fe8001e007800e90f50003d
:101dbc00f4ff34000080fa00000006000200fa0074
:101dcc00cd82a90000a02300390b0700000f78007a
:101ddc00cd82a8000080fa0000000600c400fa00c2
:101dec00881f7800709f980001a7980012a7980090
:101dfc000000eb00300798000200200003182400bc
:101e0c007e9890008ea090000bfb07004007980076
:101e1c00510798000000eb006007980018c0b30051
:101e2c0002002000032f24004e009000de009000e2
:101e3c0043fb07000000e000010035000044eb000c
:101e4c000804e00005003200800220001007980012
:101e5c0000022000000f78007400370018c0b30097
:101e6c0002002000c33024004e009000de009000e1
:101e7c0033fb07000000e000010035000044eb00dc
:101e8c000804e000050032008002200010079800d2
:101e9c0000012000000f78006400370018c0b30068
:101eac0002002000f33224004e009000de0090006f
:101ebc0023fb07000000e000010035000044eb00ac
:101ecc000804e00005003200800220001007980092
:101edc0080002000000f78005400370018c0b300b9
:101eec0002002000c33524004e009000de0090005c
:101efc0013fb07000000e000010035000044eb007c
:101f0c000804e000050032000002200010079800d1
:101f1c0080002000000f78004400370018c0b30088
:101f2c0002002000c33824004e009000de00900018
:101f3c0003fb07000000e000010035000044eb004b
:101f4c000804e00005003200a001200010079800f2
:101f5c0080002000000f78003400370018c0b30058
:101f6c0002002000f33a24004e009000de009000a6
:101f7c00f3fa07000000e000010035000044eb001c
:101f8c000804e00005003200200120001007980032
:101f9c0040002000000f78002400370018c0b30068
:101fac0002002000c33d24004e009000de00900093
:101fbc00e3fa07000000e000010035000044eb00ec
:101fcc000804e00005003200000120001007980012
:101fdc0030002000000f78001400370018c0b30048
:101fec0002002400334024004e009000de009000dc
:101ffc00d3fa07000000e000010035000044eb00bc
:10200c000804e00005003200700020001007980062
:10201c0030002000000f7800040037004000200042
:10202c001007980020002000000f780030002000de
:10203c00700798000000eb00000f980010002000c3
:10204c00100f980030002000200f98002000200076
:10205c00300f980010002000400f98000000eb009b
:10206c00500f98000000eb00600f98000000eb0090
:10207c00700f98000000eb00001798000000eb00b8
:10208c001017980010002000201798000000eb009b
:10209c00301798000000eb0040179800100020004b
:1020ac0050179800100020006017980010002000b6
:1020bc00701798000000eb00001f98000000eb0068
:1020cc00101f98000000eb00201f98000000eb0090
:1020dc00301f98000000eb00401f98000000eb0040
:1020ec00501f98000000eb00601f98000000eb00f0
:1020fc00701f98000000eb000027980010002000d3
:10210c0010279800100020002027980010002000b5
:10211c0030279800e0022000402798002000200083
:10212c0050279800e0012000602798003000200024
:10213c0070279800c0022000002f9800600020003b
:10214c00102f98000000eb00202f98000000eb00ef
:10215c0020079800090037002e0090000000400076
:10216c0000004700a005b000110020000108780015
:10217c002e0090000000e800200798002e00900030
:10218c00ff0f5000f4ff34007e009000c600dd000d
:10219c000e0890004500dd00810070001e089000c4
:1021ac004400dd00810070002e0890004200dd002c
:1021bc00810070003e08900001007000508f980064
:1021cc004e0890004600dd001e007000608f9800e5
:1021dc001e009000708f98006e009000c500dd000e
:1021ec006e0890004400dd00810070005e089000d5
:1021fc004300dd00810070007e0890004200dd008d
:10220c00810070001e1090000000400081007000e2
:10221c000e10900001007000009798002e10900096
:10222c00c700dd003e1090004600dd00810070000c
:10223c004e1090004500dd00810070005e10900093
:10224c004400dd00810070006e10900001007000f1
:10225c00109798007e109000c600dd000e189000bc
:10226c004500dd00810070001e1890004300dd0069
:10227c00810070002e1890004200dd00810070007b
:10228c003e18900000004000810070004e18900035
:10229c0001007000209798003e0090003097980045
:1022ac005e189000409798006e189000c700dd00f3
:1022bc004e20900001007000509798001e20900056
:1022cc00c700dd005e209000010070006097980050
:1022dc007e189000c700dd006e2090000100700099
:1022ec00709798002e209000c700dd007e20900093
:1022fc0001007000009f98000e209000c700dd00c8
:10230c000e28900001007000109f98003e20900055
:10231c00c700dd002e2890004600dd008100700013
:10232c001e28900001007000209f98004e309000f5
:10233c00c700dd003e3090004600dd0081007000db
:10234c002e3090004500dd00810070001e309000a2
:10235c004400dd00810070000e3090004300dd0071
:10236c00810070007e2890004200dd00810070002a
:10237c006e28900000004000810070005e289000e4
:10238c0001007000309f98004e389000c700dd00af
:10239c003e3890004600dd00810070002e38900021
:1023ac004500dd00810070001e3890004400dd0007
:1023bc00810070000e3890004300dd008100700039
:1023cc007e3090004200dd00810070006e30900085
:1023dc0000004000810070005e2890000100700039
:1023ec00409f98004e389000c700dd003e389000aa
:1023fc004600dd00810070002e3890004500dd00a5
:10240c00810070001e3890004400dd0081007000d7
:10241c000e3890004300dd00810070007e3090008b
:10242c004200dd00810070006e3090000000400022
:10243c00810070005e28900001007000509f980091
:10244c004e889000c700dd003e8890004600dd00fd
:10245c00810070002e8890004500dd008100700026
:10246c001e8890004400dd00810070000e889000f2
:10247c004300dd00810070007e8090004200dd0092
:10248c00810070006e8090000000400081007000a0
:10249c005e80900001007000609f9800a0092000f1
:1024ac000e00400042022000800078001ea0900028
:1024bc0013fa07000000eb00200798001200370009
:1024cc002e0090004800dd00800078002e00900067
:1024dc000000400000004700508890000100700090
:1024ec0000f0a000302f9800cd82a9003e2890006b
:1024fc006f090700402f9800cd82a8002e00900095
:10250c000000e800200798002e009000f10f50000a
:10251c00ebff34004f0478000080fa000000060046
:10252c005000fa006027980071279800640047005b
:10253c00000178006e209000fe20900027fe07001e
:10254c0000e82300010020003b0a0700fafd070009
:10255c0010c0b300004f78000000eb00100798008b
:10256c000b0037001e00900049fc0700800078002b
:10257c001e00900000004000000047008002b000e8
:10258c00010878001e0090000000e8001007980079
:10259c001e009000f10f5000f2ff34000000eb0021
:1025ac0010079800190037009e80fb001e00900059
:1025bc000000400000004700401190001e009000f9
:1025cc00000040000000470020009000000169005e
:1025dc00f00f20000000610000f0a7000000ea00ee
:1025ec000000e9004f00de000080600000f0a70052
:1025fc000000ea000000ea004f00de00004f780007
:10260c001e0090000000e800100798001e009000cb
:10261c00f10f5000e4ff34001e4078000080fa00f7
:10262c00000006000400fa00000f78001107980063
:10263c009e007800b1448800b0448000c0448800fb
:10264c009e009000d14488000080fa000000060033
:10265c000000fa008540a900c0448000a6fd0700d8
:10266c00cd82a90090448000b2090700c0448000cc
:10267c000000e800c0448800c1448000d0448000c1
:10268c00808f500002003600b0448000c0448800a7
:10269c000080fa00000006004800fa00202798008d
:1026ac003127980010c0b300004f78000000eb00f9
:1026bc0010079800be2090002e209000d9ff070034
:1026cc00e3ff07001d003700f0448000e10f5000cd
:1026dc0018003a00210480000040200000806000b7
:1026ec000000e000150032008540a900cd82a80052
:1026fc009e28ef00411280001e0090000000400058
:10270c000000470064004000010878001e009000a3
:10271c000000e800100798001e009000ff0f50000a
:10272c0002003c00caff0700040037009e28ef009f
:10273c00020037000040eb00004f78001e4078008c
:10274c000004e000e0ff3a000080fa000000060000
:10275c000600fa0050c0b300204798000040eb0080
:10276c0030479800c402a9000000eb00000f78006d
:10277c00080037000e80e8001e0040001040780072
:10278c0026080700e40047009e804000804878003f
:10279c001e0fe8001e007800e10f5000f5ff34001a
:1027ac00c402a8005e4090000080fa000000060001
:1027bc000c00fa0050079800f0c9b30020479800ad
:1027cc0010002000000f7800050037000e80e80094
:1027dc001e0040008040eb00014878001e0fe8000e
:1027ec001e007800e30f5000f8ff3400c402a9006b
:1027fc000000eb00000f7800080037000e80e800a6
:10280c001e0040001040780004080700e600470056
:10281c009e804000804878001e0fe8001e00780063
:10282c00e30f5000f5ff3400c402a8006600470017
:10283c000000e80032002000800078005e0090006c
:10284c002ff907000080fa00000006000000fa00d3
:10285c0070428000e10f50000c003200e10f50007c
:10286c0003003900e20f50000d0032001d0037004c
:10287c008820a900c402a90050c0b3002109070098
:10288c001000200070428800160037000040eb005a
:10289c001c0907002000200070428800110037003e
:1028ac00c402a80048c8bf000080fb0061006000a3
:1028bc00004078000004e000070032008820a900e6
:1028cc00c402a90050c0b3000e090700100020007c
:1028dc0070428800030037004a28ef009c28ef0064
:1028ec00000000000080fa00000006000600fa005c
:1028fc000000eb001007980010c0b300004f7800e8
:10290c008820a900d1ff070015003700e0448000a3
:10291c00e10f500010003a0040048000620060009b
:10292c000000e0000e0032008820a9009c28ef0077
:10293c00401380004047980070428000e20f500026
:10294c0003003a004e4190008184200082487800b8
:10295c00beff0700020037000040eb00004f78007c
:10296c001e4078000004e000e8ff3a000080fa0006
:10297c00000006000200fa0075ff0700004f780007
:10298c001e80fb0061006000004078000004e00045
:10299c000200320010c0b300010037000040eb0011
:1029ac000080fa00000006000200fa0068ff070031
:1029bc00004f78001e80fb00620060000000e00009
:1029cc000200320010c0b300010037000040eb00e1
:1029dc000080fa00000006000200fa0060c0b3009c
:1029ec00004f7800c402a9001e4078008b07070036
:1029fc0010479800c402a8000080fa0000000600ee
:102a0c000200fa0040c0b300004f7800c402a900d5
:102a1c001e4078008107070010479800c402a800e8
:102a2c000080fa00000006001200fa00889fbe0029
:102a3c008a1f78006007980071079800020f9800b1
:102a4c000f0478000f00780080047800001020003c
:102a5c00100798001e009000640040008000e90000
:102a6c00210798000000e8000000e8000000d100f9
:102a7c00800040000f007800818747000000e800cc
:102a8c000000d10000004000300798003e0090008c
:102a9c0031c0b300014878006e009000fe00900039
:102aac004008de00804078003e0090001140980005
:102abc006e009000fe0090004809dd004800de002a
:102acc0000007100c808de00804078003e009000d5
:102adc00214098006e009000804078003e009000ed
:102aec003140980040002000000f780005003700ae
:102afc003e0090001e0040008040eb000148780032
:102b0c001e0fe8001e009000640040009e0f500055
:102b1c00f7ff3c001e009000640040008f0078001e
:102b2c00010578008000e900410798000000e800ea
:102b3c000000e8000000d100800040000f00780089
:102b4c00818747000000e8000000d1000000400031
:102b5c0050079800c402a9000000eb00000f780099
:102b6c00080037003e0090001e0040001040780026
:102b7c002a070700de0090009e8040008048780005
:102b8c001e0fe8001e009000640040009e0f5000d5
:102b9c00f4ff3c00c402a8009e0090005e00900070
:102bac006400400001017800800078000e0890005d
:102bbc0053f807008a07780089077800880778009f
:102bcc004f0578004f04be000080fa00000006009c
:102bdc001400fa00889fbe0070079800010f98003f
:102bec00120f98000f0478000f0078008004780012
:102bfc0000102000100798007e0090008000eb0071
:102c0c0020079800310798002e019000be0190001b
:102c1c004c18dd00c410de00810070004c10dd008b
:102c2c0020079800310798000e0890008000eb00f8
:102c3c002e019000be0190000200400083804800ed
:102c4c00200798003107980063ff07001e009000d2
:102c5c00640040008000e900410798000000e80093
:102c6c000000e8000000d100800040000f00780058
:102c7c00818747000000e8000000d1000000400000
:102c8c00500798005e00900021c0b3000148780006
:102c9c002e009000be0090004008de0080407800be
:102cac005e009000114098002e009000be00900035
:102cbc004809dd004800de0000007100c808de0095
:102ccc00804078005e009000214098002e0090001b
:102cdc00804078005e009000314098009e0090008b
:102cec005e00900064004000010178009e08900096
:102cfc0003f80700c402a9000000eb00000f7800e5
:102d0c00060037005e0090001e0040001040780066
:102d1c00c2060700404f98001e0fe8001e009000ee
:102d2c00640040009e0f5000f6ff3c00c402a80057
:102d3c00000000000fff07000004e000fdff3a0058
:102d4c0089077800880778004f04be000080fa00dd
:102d5c00000006000200fa00d0c8b300004f780053
:102d6c001dff0700c402a9001e407800ab06070037
:102d7c0010479800c402a8000080fa00000006006a
:102d8c000200fa0080c9b300004f780012ff070060
:102d9c00c402a9001e407800a00607001047980046
:102dac00c402a8000080fa00000006001200fa001d
:102dbc00700798000157980000c2b3002047980094
:102dcc007e0090008000eb002007980031079800ef
:102ddc002e019000be0190004c18dd00c410de00e6
:102dec00810070004c10dd0020079800310798001e
:102dfc00ae409000114f98002e009000be00900045
:102e0c004008de0000407800204f98002e00900013
:102e1c00be0090004809dd004800de000000710093
:102e2c00c808de0000407800304f98002e0090005b
:102e3c0000407800404f9800e7fe0700c402a9004c
:102e4c000000eb00000f7800060037006900470017
:102e5c001e0040001040780070060700004f9800dc
:102e6c001e0fe8001e007800e30f5000f7ff34003f
:102e7c00c402a80000000000befe07000004e00031
:102e8c00030032000e5090000004e000faff3a00fc
:102e9c000080fa00000006000400fa0020479800a9
:102eac0070ccb300004f7800cbfe0700c402a90021
:102ebc001e4078005906070010479800c402a8006d
:102ecc0000000000abfe07000004e000030032002d
:102edc002e4090000004e000faff3a000080fa0057
:102eec00000006000400fa000e00780030fe070017
:102efc009e407800f0cbb30080cf50000a003a001f
:102f0c009e40900060c2b30080cf500006003a0093
:102f1c00ae40900010c4b30080cf500002003a00c5
:102f2c0010c0b300010037000040eb000080fa0035
:102f3c00000006000000fa004a28ef004c28ef00c1
:102f4c004e28ef000080fa00000006000c00fa008a
:102f5c0030079800410798005207980000042000a1
:102f6c00000f78003e0090008000eb0010079800e6
:102f7c00210798001e019000ae0190004c18dd0056
:102f8c00c410de00810070004c10dd0010079800aa
:102f9c00210798004e0090008000eb001e0190006d
:102fac00ae0190000200400083804800100798009a
:102fbc00210798001e009000ae0090004008de0033
:102fcc000040780000e8b7001e009000ae009000b2
:102fdc004809dd004800de0000007100c808de0072
:102fec000040780001e8b7001e0090000040780017
:102ffc0002e8b7001e00780000017800de009000a7
:10300c00808020003ef707009e0078002140880059
:10301c0030002000304088000080fa0000000600dc
:10302c000200fa0010c0b300004f7800c402a900df
:10303c008820a90060c0b300320707000e003700db
:10304c00e0448000e10f50000b003a004004800087
:10305c00620060000000e000070032008820a90038
:10306c009c28ef004013800010479800c402a80071
:10307c000040eb00004f78001e4078000004e00098
:10308c00efff3a000080fa00000006000000fa0092
:10309c0050428000e10f50000e003200e10f500052
:1030ac0005003900e20f50001c003200e70f500001
:1030bc002d003200300037008820a900c402a9007e
:1030cc0020c0b3000f0707001000200050428800fa
:1030dc002900370030408000e30010000080200001
:1030ec000080400010407800060707003040800048
:1030fc000000e90030408800304080000000e00013
:10310c000300340010002000504288001a003700e1
:10311c00200020005042880017003700204080001b
:10312c00010420008080500080802000008040003e
:10313c0010407800f3060700204080000000e900f2
:10314c0020408800204080000000e0000300340094
:10315c00200020005042880007003700700020003b
:10316c005042880004003700c402a8004a28ef002f
:10317c009c28ef00000000000080fa000000060010
:10318c000000fa0050428000e30f50003a00320079
:10319c00e30f500005003e00e10f5000110032001b
:1031ac00e10f500021003e0007003700e50f5000f2
:1031bc003e003200e50f500035003900e60f50009c
:1031cc003f0032004f0037008820a900c402a9003c
:1031dc0020c0b300cb06070010002000504288002e
:1031ec004800370030408000e300100000802000d1
:1031fc000080400010407800c2060700304080007c
:10320c000000e90030408800304080000000e00001
:10321c0003003400100020005042880039003700b1
:10322c0020002000504288003600370020408000eb
:10323c00010420008080500080802000008040002d
:10324c0010407800af060700204080000000e90025
:10325c0020408800204080000000e0000300340083
:10326c00200020005042880026003700300020004b
:10327c005042880023003700c402a8000040eb0035
:10328c00a006070040002000504288001d003700b7
:10329c008820a900c402a90050c0b30099060700f9
:1032ac005000200050428800160037000040eb0010
:1032bc00940607006000200050428800110037007f
:1032cc00c402a80048c8bf000080fb006100600079
:1032dc00004078000004e000070032008820a900bc
:1032ec00c402a90050c0b30086060700500020009d
:1032fc0070428800030037004a28ef009c28ef003a
:10330c00000000000080fa00000006000c00fa002b
:10331c00889fbe000f0478000f00780080047800ae
:10332c0000042000100798001e0090008000780018
:10333c008100e900210798000000e8000000e80087
:10334c000000d100800040000f007800818747000a
:10335c000000e8000000d100000040003007980099
:10336c000000eb00000f7800080037001e0078000a
:10337c000040780002c3b300824040003e00900041
:10338c001e004000014878001e0fe800f0032000ea
:10339c009e007800808f5000f4ff34000000eb009a
:1033ac00400798000000eb005007980074fe0700df
:1033bc0011c0b3004e0090007cfe07003e00900050
:1033cc0000017800de0090004e009000dffe070048
:1033dc0089077800880778004f04be000080fa0047
:1033ec00000006001001fa000004200020079800dd
:1033fc0010c0b300004f780009ff07000000eb007d
:10340c00300798000000eb00400798005cff0700b5
:10341c0015003700e0448000e10f500010003a0026
:10342c0040048000620060000000e0000e003200ea
:10343c008820a9009c28ef0040138000204f9800a2
:10344c0050428000e60f500003003a002e499000d5
:10345c00818420008248780049ff07000200370071
:10346c000040eb00004f78001e4078000004e000a4
:10347c00e8ff3a003e009000cc00dd004e009000ca
:10348c00010070008000eb00600798007107980045
:10349c0070004700000178006e009000fe00900064
:1034ac0061fd070010c0b300104798000000eb004e
:1034bc0010079800170037001e4090008080fb001a
:1034cc00700147001e009000000041001041780080
:1034dc009e01900080802000008041001040780008
:1034ec00004069000080fb000000e9004f00de0096
:1034fc000080600000f0a7000000ea000000ea0075
:10350c004f00de00104798001e0090000000e800fd
:10351c00100798009e0090002e009000808f5000a5
:10352c00e5ff35001e4090000080fa000000060008
:10353c000000fa0060428000e20f500018003200d8
:10354c00e20f500005003e000000e00008003200d1
:10355c00e10f50000d0032001e003700e30f500049
:10356c0014003200e40f500017003200190037002d
:10357c008820a900c402a900f0c9b300e105070026
:10358c001000200060428800120037000040eb0061
:10359c00dc05070020002000604288000d00370089
:1035ac000040eb00d7050700300020006042880087
:1035bc00080037000040eb00d20507004000200057
:1035cc006042880003003700c402a8004c28ef00ba
:1035dc00000000000080fa00000006000a00fa005b
:1035ec000000eb001007980010c0b300004f7800eb
:1035fc008820a900ceff070016003700e0448000a9
:10360c00e10f500011003a0040048000620060009d
:10361c000000e0000f0032008820a9009c28ef0079
:10362c004013800080407800650147001e00900028
:10363c0000004100014878001e0090000000e800e6
:10364c0010079800baff0700020037000040eb009b
:10365c00004f78001e4078000004e000e7ff3a00bd
:10366c00ee409000f0cbb30000c068000080fb007f
:10367c000000e9004f00de00404798004e409000eb
:10368c008080fb007e41900060c2b3000040690066
:10369c000080fb000000e9004f00de0000806000ad
:1036ac0000f0a7000000ea000000ea004f00de0076
:1036bc00404798004e4090008080fb000e499000df
:1036cc0010c4b300004069000080fb000000e9005a
:1036dc004f00de000080600000f0a7000000ea0050
:1036ec000000ea004f00de00404798004e4090007a
:1036fc000080fa00000006000000fa009580a90086
:10370c009560a90080002000001188002222ef00a3
:10371c00200220004011880090872000b0438800d0
:10372c0090872000a04388002088200090438800c8
:10373c0020882000804388007868ef00e0bc2100de
:10374c0007000700c0be2100140007009560a80008
:10375c0021e2a8002342a8000080fa000000060025
:10376c000200fa00000f78001e0078000000e00054
:10377c0003003a00e0bc21006044880002003700de
:10378c009e007800614488000080fa00000006006a
:10379c000000fa000080fa00000006000200fa00a7
:1037ac00000f78001e0078000000e00003003a00d3
:1037bc00c0be210070448800020037009e007800d3
:1037cc00714488000080fa00000006000000fa0036
:1037dc000080fa00000006000200fa000040eb0036
:1037ec00004f78000000000091438000804380006f
:1037fc00808f5000fcff320090438000104f780007
:10380c00904380000000e8009043880091438000c2
:10381c00b0882000808f500002003a0020882000e1
:10382c00904388001e4078000080fa0000000600db
:10383c000200fa00004f7800000000001c00070096
:10384c000004a2000004e000fcff3a00a04380004a
:10385c001e487800a04380000000e800a0438800c8
:10386c00a143800020882000808f500002003a0085
:10387c0090872000a04388009580a8000080fa0063
:10388c00000006000000fa00914380008043800095
:10389c000080680000f0a7000000ea000000ea00c9
:1038ac004f00de00004078000080fa0000000600a7
:1038bc000400fa00b143800011079800a143800076
:1038cc001e009000808f5000060031009e0090007a
:1038dc00a0438000008050000000e900000f780039
:1038ec00050037009e009000a0438000008050002f
:1038fc0068004000000f78001e00780000f0a70060
:10390c000000ea000000ea004f00de0000407800f2
:10391c000080fa00000006000000fa00a1438000bd
:10392c00b0438000808f500009003a0011118000d4
:10393c00001020000080600000f0a7000000ea00ea
:10394c000000ea004f00de00004078000100370064
:10395c000040eb000080fa00000006000400fa00b2
:10396c008143800011079800904380009e009000d6
:10397c00808f5000060031009e0090009043800024
:10398c000080500069004000000f780004003700f0
:10399c009e0090009043800000805000000f780043
:1039ac00f00f20009e007800808f5000020036003f
:1039bc0000c0eb00020037001e00780000407800c9
:1039cc000080fa00000006000400fa00b1438000f9
:1039dc0011079800a14380001e009000808f5000ba
:1039ec00060031009e009000a04380000080500033
:1039fc000000e900000f7800050037009e009000e1
:103a0c00a04380000080500068004000000f780048
:103a1c00f00f20009e007800808f500002003600ce
:103a2c0000c0eb00020037001e0078000040780058
:103a3c000080fa00000006000800fa002007980039
:103a4c0031079800c5ff07000080fb00000f7800cd
:103a5c003e0090009e0f500002003100be0090000e
:103a6c00010f78000000eb001007980009003700e8
:103a7c0059ff0700ae009000804878002e0090009f
:103a8c000000e800200798001e0090000000e800ed
:103a9c00100798001e0090009e0f5000f4ff390094
:103aac001e0078000080fa00000006000800fa00f2
:103abc002007980031079800c3ff07000080fb0027
:103acc00000f78003e0090009e0f50000200310065
:103adc00be009000010f78000000eb00100798006a
:103aec00090037002e00900010407800ae009000c6
:103afc008100e800210798004dff07001e00900090
:103b0c000000e800100798001e0090009e0f500067
:103b1c00f4ff39001e0078000080fa000000060057
:103b2c000400fa000000eb00000f78008bff070088
:103b3c0020479800a4ff0700304798002e409000c3
:103b4c000080fb000000e00003003200e90f500091
:103b5c0003003200040037001e20a00004003700d0
:103b6c001e00a000020037001e10a0000000000084
:103b7c003e4090000080fb000000e000030032009b
:103b8c00e90f500003003200040037001e30a00083
:103b9c00020037001e40a000000000001e0078004c
:103bac000080fa00000006000400fa0010079800dc
:103bbc00914380001e009000008f400002003700ef
:103bcc009e007800698f5000b08820009e0078001d
:103bdc00808f5000faff3e001e00780010407800e5
:103bec000080fa00000006000000fa005bff0700ee
:103bfc000080fb000000e9004f00de000040780070
:103c0c000080fa00000006000000fa006eff0700ba
:103c1c000080fb000000e9004f00de00004078004f
:103c2c000080fa00000006000000fa00101180006d
:103c3c000080fa00000006000000fa0062ff070096
:103c4c000004e00010003200b1438000a04380006b
:103c5c00808f500006003600b04380008000780052
:103c6c00a0438000008050000000e90007003700ee
:103c7c00b043800080007800a0438000008050009a
:103c8c0068004000010037000000eb000080fa00e3
:103c9c00000006000000fa0030ff07000004e000fe
:103cac00100032009143800080438000808f5000d0
:103cbc00060036009043800080007800804380002e
:103ccc00008050000000e90007003700904380009e
:103cdc008000780080438000008050006800400025
:103cec00010037000000eb000080fa000000060025
:103cfc000000fa0021e2a8002342a8000080fa008c
:103d0c00000006000000fa0021e2a9002342a900ed
:103d1c000080fa00000006000800fa001007980066
:103d2c0021079800320798000000eb00000f780084
:103d3c00190037001e00780000004000ae00900013
:103d4c00808040001e007800000040001e019000a2
:103d5c0000004100100078004800de0000407800b0
:103d6c00804878001e007800000040000000e80049
:103d7c00ae009000808040001e00780000004000e3
:103d8c001e019000000041001000780000407800f7
:103d9c00804878001e0fe8003e0090009e007800de
:103dac00808f5000e3ff35000080fa000000060011
:103dbc002000fa00889fbe00500f9800610f9800f9
:103dcc00625f98000f0478000f0078008004780080
:103ddc000010200040079800400020005007980079
:103dec00ce0090005e0090000001780011000900e8
:103dfc008200d800600798004e0090008000e90017
:103e0c00710798000000e8000000e8000000d100f5
:103e1c00800040000f007800818747000000e80018
:103e2c000000d10000004000000f98005e009000e0
:103e3c008000e900110f98000000e8000000e80085
:103e4c000000d100800040000f00780081874700ff
:103e5c000000e8000000d10000004000200f980096
:103e6c005e0890008000eb00200798003107980056
:103e7c002e019000be0190004c18dd00c410de0035
:103e8c00810070004c10dd0020079800310798006d
:103e9c006e0890008000eb00300f9800410f9800e6
:103eac003e099000ce0990004c18dd00c410de00d5
:103ebc00810070004c10dd00300f9800410f98000d
:103ecc004a0037002e019000be0190003e08900081
:103edc00ce089000800f5100818f59003e003100b8
:103eec000e089000000178002e009000be0090009b
:103efc00cdfa07000000eb00000f78002900370016
:103f0c000000eb00100798001e0037009e007800a0
:103f1c005e0090000088b900800078001e009000c0
:103f2c00008040008e089000e14078002e0990003f
:103f3c001e0090000000410001487800ae0890007f
:103f4c001e00900000804000104078000004e0004b
:103f5c0009003a00ae0890001e009000008040005e
:103f6c00104078008040e8002e0990001e00900060
:103f7c0000004100014878001e0090000000e8009d
:103f8c00100798009e0090005e009000808f5000fb
:103f9c00deff35002e089000de009000f3000700d5
:103fac001e0fe8006e0090009e007800808f50007d
:103fbc00d3ff35004e009000cf80de002e01900024
:103fcc00be0190000200400083804800200798004a
:103fdc003107980005003700110020000000eb00ad
:103fec00e20007000040eb00605f98006e58900004
:103ffc000004e000b3ff3a008907780088077800d6
:10400c004f04be000080fa00000006001e00fa00fb
:10401c00889fbe00300f9800410f9800520f9800f7
:10402c00435f98000f0478000f007800800478003c
:10403c0000022000500798005e0090008000e9000c
:10404c0061079800000040000000e8000000e80054
:10405c000000d100800040000f00780081874700ed
:10406c000000e8000000d10000004000700798003c
:10407c005e009000000040008000e900010f9800f5
:10408c000000e8000000e8000000d10080004000c3
:10409c000f007800818747000000e8000000d10085
:1040ac0000004000100f98000000eb00000f78009b
:1040bc00ce0890003e0890005af9070064f90700fa
:1040cc001e003700f0448000e10f500019003a0048
:1040dc002104800000402000008060000000e0000f
:1040ec00160032008540a900cd82a8009e28ef0062
:1040fc00411280007e0190001e00780000004000fc
:10410c0000004100010878001e0fe8005e009000de
:10411c009e007800808f500002003d004cf9070093
:10412c00060037009e28ef000000eb00000f78001f
:10413c00020037000040eb00204798002e40900012
:10414c000004e000dfff3a009e0890007e00900023
:10415c005e019000f0fe07000000eb0030079800b5
:10416c000000eb00400798006000370010c0b3005f
:10417c002047980010c0b30030479800a8fb0700f8
:10418c0033f90700fefb07001e08900000017800c1
:10419c00be0090004e0090006cfb0700330037000f
:1041ac00f0448000e10f500019003a002104800017
:1041bc0000402000008060000000e000160032008b
:1041cc008540a900cd82a8009e28ef0041128000f6
:1041dc007e0190001e0078000000400000004100ad
:1041ec00010878001e0fe8005e0090009e00780029
:1041fc00808f500004003a000000eb00000f7800a4
:10420c009e28ef000400370011f907000200370068
:10421c000040eb0020479800e0448000e10f500084
:10422c0010003a0040048000620060000000e000d2
:10423c000e0032008820a9009c28ef00401380005b
:10424c004057980050428000e60f500003003a009f
:10425c004e5190008184200082487800c8fb0700f2
:10426c00020037000040eb00304798002e409000d1
:10427c000004e000caff3a003e4090000004e00059
:10428c00c7ff3a009e0890007e0090005e019000ef
:10429c00a1fe07005e00900000004000be009000f0
:1042ac000080400030079800be0090000000210004
:1042bc00808f50000d003a000000eb003007980092
:1042cc004e0090000000e80040079800ce009000df
:1042dc005e089000808f50000400360080b42800e7
:1042ec000a0007000040eb00404798004e40900049
:1042fc000004e0009dff3a008907780088077800e9
:10430c004f04be000080fa00000006000400fa0012
:10431c00100798000040eb00004f780006003700b3
:10432c001e80fb009e009000008040001040780032
:10433c001e4fe8003efd07001e80fb009e00900013
:10434c0000804000104078000004e000f4ff3a00c8
:10435c000000000070fd07000004a2000004e00053
:10436c00fcff3a000080fa00000006000600fa008c
:10437c0010079800210798000000eb00000f780050
:10438c00060037001e0078009e0090000080400060
:10439c001040780026fd07001e0fe8002e0090004c
:1043ac009e007800808f5000f6ff35000000000062
:1043bc0059fd07000004a2000004e000fcff3a00d5
:1043cc000080fa00000006000200fa0002fd07005f
:1043dc00004f78001e80fb006101b90030fb2f00fc
:1043ec00f1ff2f000200400083804800b202200041
:1043fc0003002000820f5000838f58007c003e0089
:10440c0000600100720037007b0037007a00370033
:10441c0079003700780037007700370076003700d6
:10442c0075003700740037007300370072003700d6
:10443c0071003700700037006f0037006e003700d6
:10444c006d0037006c0037006b0037006a003700d6
:10445c006900370068003700670037001500370027
:10446c003b00370043003700630037006200370021
:10447c0061003700290037005f0037005e0037000d
:10448c005d0037004a0037005b0037005a003700e8
:10449c004200370058003700570037003b00370008
:1044ac001900370054003700530037005200370012
:1044bc0025003700e0b1280094ff07005df50700e8
:1044cc000004e0000300320040b228008fff070018
:1044dc0002003700a0b228008cff070000b32800b0
:1044ec008aff07007ffa07000004e0000300320097
:1044fc0040b2280085ff070040003700a0b228001a
:10450c0082ff07003d00370060b328007fff0700e3
:10451c0040b228007dff0700380037000000200063
:10452c00a1472400fef707000004e000030032005e
:10453c00c0b3280075ff070030003700a0b2280078
:10454c0072ff07002d00370070fb07002b003700af
:10455c00a4fb07000004e0000300320040b2280076
:10456c006aff070025003700a0b2280067ff07008c
:10457c002200370002fa070010c0b30046fa070009
:10458c00c0b3280061ff07001c003700a100200009
:10459c000000eb0040f807001800370012c0b30011
:1045ac00010420000000eb0001fe0700130037009f
:1045bc0020b4280055ff070013c0b30002042000ec
:1045cc008000eb000000eb0090fe07000b003700b2
:1045dc0020b428004dff070013c0b30002042000d4
:1045ec00310020000000eb0088fe070003003700bc
:1045fc000000000001003700000000000080fa00fd
:10460c00000006000000fa00301320001013880090
:10461c00100020002013880040012800001388009f
:10462c000080fa00000006000400fa00000f780079
:10463c001107980000000000001380006200600069
:10464c000000e000fcff3a001e00780010407800eb
:10465c000080fb0040138800000000000113800064
:10466c0000022000008060000000e000fbff3a0028
:10467c0040138000804078001e00900001487800b4
:10468c000080fa00000006001800fa00100f9800d5
:10469c00210f9800320f98000000eb00000f7800fb
:1046ac000000eb00100798000000eb00700798006a
:1046bc000000eb00000f980010002000600798002d
:1046cc001e0890000000e00005003a000000eb001e
:1046dc00500798007000470020079800040037002e
:1046ec00ee009000510798009e089000210798005a
:1046fc003e0890000000e00005003a000000eb00ce
:10470c00400798006e0047003007980005003700fe
:10471c00ee00900041079800be0890003107980009
:10472c000000000000138000620060000000e00048
:10473c00fcff3a001d00370000138000620060008f
:10474c000000e00009003a002e00900010407800b4
:10475c000080fb0040138800ae0090005e009000cb
:10476c0000804000200798001e0fe8000113800015
:10477c0000022000008060000000e0000b003a0006
:10478c0040138000804078003e0090000148780083
:10479c00be0090004e009000008040003007980052
:1047ac001e0090000000e800100798002e089000f2
:1047bc009e007800808f5000dfff3900100037001a
:1047cc000113800000022000008060000000e00067
:1047dc000b003a0040138000804078003e009000af
:1047ec0001487800be0090004e0090000080400010
:1047fc00300798001e0090000000e8001007980099
:10480c009e0090002e089000808f5000ecff390025
:10481c001e0078000080fa00000006000400fa0078
:10482c00204798000e80e8008e0078007eff07007d
:10483c001e4078000080fa00000006000600fa0016
:10484c00000f780011079800220798002e019000a5
:10485c009e0090001e0078008bff07000080fa007d
:10486c00000006000000fa00111380000040200038
:10487c00008060000000e00002003a000000eb0045
:10488c0001003700100020000080fa000000060034
:10489c000000fa00001380000080fa0000000600ff
:1048ac000000fa0020522000101288001000200096
:1048bc002012880040012800001288000080fa00b5
:1048cc00000006000400fa00000f780011079800a1
:1048dc000000000000128000620060000000e00098
:1048ec00fcff3a001e00780010007800401288008f
:1048fc000000000001128000000220000080600017
:10490c000000e000fbff3a001e0090004112800006
:10491c00010878000080fa00000006001800fa0078
:10492c00100f9800210f9800320f98000000eb0038
:10493c00000f78000000eb00100798000000eb005f
:10494c00700798000000eb00000f9800200020007a
:10495c00600798002e0890000000d100200f9800ee
:10496c001e0890000000e00005003a000000eb007b
:10497c00500798007000470020079800040037008b
:10498c00ee009000510798009e08900021079800b7
:10499c003e0890000000e00005003a000000eb002b
:1049ac00400798006e00470030079800050037005c
:1049bc00ee00900041079800be0890003107980067
:1049cc000000000000128000620060000000e000a7
:1049dc00fcff3a001b0037000012800062006000f0
:1049ec000000e00008003a002e0090001000780053
:1049fc0040128800ae0090005e00900000804000e5
:104a0c00200798001e0fe800011280000002200011
:104a1c00008060000000e0000a003a003e009000b8
:104a2c004112800001087800be0090004e009000fa
:104a3c0000804000300798001e0090000000e80045
:104a4c00100798002e0890009e007800808f500070
:104a5c00e1ff39000f003700011280000002200036
:104a6c00008060000000e0000a003a003e00900068
:104a7c004112800001087800be0090004e009000aa
:104a8c0000804000300798001e0090000000e800f5
:104a9c00100798009e0090002e089000808f500008
:104aac00edff39001e0078000080fa0000000600bf
:104abc000400fa00100798008e0078000e80e800c1
:104acc0080ff07001e0078000080fa00000006003e
:104adc000600fa00000f78001107980022079800d2
:104aec00ae0090001e007800010178009e0090003e
:104afc008aff07000080fa00000006000000fa00a0
:104b0c001112800000402000008060000000e000d6
:104b1c0002003a000000eb000100370010002000fa
:104b2c000080fa00000006000000fa00001280006d
:084b3c000080fa0000000600f1
:020000040000fa
:104b4400a00800000200000002000000ffff0000b7
:104b54005008000020000000000000007008000061
:104b64002000000000000000900800000c0000007d
:104b740000000000000800005000000000000000d9
:104b84009c0800000400000000000000a2080000cf
:104b940088000000020000000100000000c80800b6
:104ba400c908c80008c80800c808c80008b8080030
:104bb40000000000000000000000000000000000f1
:104bc40000000000000000000000000000020800d7
:104bd4000101f00008f10800f008f00008f00800f6
:104be400f008e000080000000000000000000000e1
:104bf40000000000000000000000000000000000b1
:104c0400000002000802020018091900091809002e
:104c1400180918000918090008090000000000001c
:104c24000000000000000000000000000000000080
:104c34000000000000000000a208ca0008f20800fa
:104c44000000000000000000000000000000000060
:104c54002e090000020000000000000030090000de
:104c64000200000002000000040000002a09000005
:104c740004000000000000003209000002000000ef
:104c840002000000010000003409000002000000de
:084c9400000000000000000018
:020000040000fa
:104c9c000000fa0000002300203a88004827ef00ab
:104cac004e27ef007027ef007227ef007427ef00fc
:104cbc007627ef001200200080072000a1092000b9
:104ccc00337420008049780081497800824978004b
:104cdc000001eb006004200071052000237420000b
:104cec008049780081497800824978000080fa0078
:104cfc00000006000000fa009c28ef000080fa007b
:104d0c00000006000200fa00004f78001e80fb0035
:104d1c004013880010002000e04488000080fa0056
:104d2c00000006000000fa009e28ef000080fa0048
:104d3c00000006000200fa00000f78009e007800c8
:104d4c004112880010002000f04488000080fa0016
:104d5c00000006000000fa00c422ef00cc22ef0095
:104d6c006009200000168800f071240040168800ad
:104d7c005620ef005820ef005a20ef006e20ef0075
:104d8c007020ef007220ef00c622ef00ce22ef0061
:104d9c006000200000278800800124001027880074
:104dac000080fa00000006000000fa0021068000d6
:104dbc00f0f82f00008060000040a0002006880062
:104dcc005105800080ff2f00008060000000a000d3
:104ddc005005880041058000f0ff2800008060002d
:104dec0000c0a000400588000080fa00000006000a
:104dfc000000fa002a00070000a026008101200014
:104e0c000d000700cd82a800c402a80049f80700d5
:104e1c00b8ff0700c3ff070041f20700010037008d
:104e2c000000000097fa07000004e000fcff3200cd
:084e3c0065fd0700fbff3700d4
:020000040000fa
:104e4400f03fb1000180b10006003500ee03090017
:104e540000000000403fb1000180b100fbff3d00b5
:104e64001000b000203fb0000200350000800900af
:084e7400000000000000060030
:020000040000fa
:104e7c000200fa00000f78009e00780001458800bf
:104e8c00ffff37000000fa00008520008007780043
:104e9c0080862000000188000080fa0000000600d7
:104eac000000fa00abff0700bfff070078ff070008
:104ebc007bfe0700d3fd07000ffa07000080fa0005
:044ecc0000000600dc
:020000040000fa
:0200000401f009
:04000000ffff0000fe
:020000040000fa
:0200000401f009
:04000800ffff0000f6
:020000040000fa
:0200000401f009
:04000c00f9ff0000f8
:020000040000fa
:0200000401f009
:04001000bfff00002e
:020000040000fa
:0200000401f009
:040014005fff00008a
:020000040000fa
:0200000401f009
:04001800ffff0000e6
:020000040000fa
:0200000401f009
:04001c00ffff0000e2
:020000040000fa
:0200000401f009
:04002000ffff0000de
:00000001FF
