:020000040000fa
:080000000002040000000000f2
:020000040000fa
:0400080032040000be
:020000040000fa
:04000c00d802000016
:020000040000fa
:040010001a030000cf
:020000040000fa
:04001400f8020000ee
:020000040000fa
:040018003a030000a7
:020000040000fa
:04001c0032040000aa
:020000040000fa
:0400200032040000a6
:020000040000fa
:0400240032040000a2
:020000040000fa
:04002800320400009e
:020000040000fa
:04002c00320400009a
:020000040000fa
:040030003204000096
:020000040000fa
:040034003204000092
:020000040000fa
:04003800320400008e
:020000040000fa
:04003c00320400008a
:020000040000fa
:040040003204000086
:020000040000fa
:040044003204000082
:020000040000fa
:04004800320400007e
:020000040000fa
:04004c00320400007a
:020000040000fa
:040050003204000076
:020000040000fa
:04005400b6030000ef
:020000040000fa
:040058005a03000047
:020000040000fa
:04005c00320400006a
:020000040000fa
:040060003204000066
:020000040000fa
:040064003204000062
:020000040000fa
:04006800320400005e
:020000040000fa
:04006c00320400005a
:020000040000fa
:040070003204000056
:020000040000fa
:040074003204000052
:020000040000fa
:04007800320400004e
:020000040000fa
:04007c00320400004a
:020000040000fa
:040080003204000046
:020000040000fa
:040084003204000042
:020000040000fa
:04008800320400003e
:020000040000fa
:04008c00320400003a
:020000040000fa
:040090003204000036
:020000040000fa
:040094003204000032
:020000040000fa
:04009800320400002e
:020000040000fa
:04009c00320400002a
:020000040000fa
:0400a0003204000026
:020000040000fa
:0400a4003204000022
:020000040000fa
:0400a800320400001e
:020000040000fa
:0400ac00320400001a
:020000040000fa
:0400b0003204000016
:020000040000fa
:0400b4003204000012
:020000040000fa
:0400b800320400000e
:020000040000fa
:0400bc00320400000a
:020000040000fa
:0400c0003204000006
:020000040000fa
:0400c4003204000002
:020000040000fa
:0400c80032040000fe
:020000040000fa
:0400cc0032040000fa
:020000040000fa
:0400d00032040000f6
:020000040000fa
:0400d40032040000f2
:020000040000fa
:0400d80032040000ee
:020000040000fa
:0400dc0032040000ea
:020000040000fa
:0400e00032040000e6
:020000040000fa
:0400e40032040000e2
:020000040000fa
:0400e80032040000de
:020000040000fa
:0400ec0032040000da
:020000040000fa
:0400f00032040000d6
:020000040000fa
:0400f40032040000d2
:020000040000fa
:0400f80032040000ce
:020000040000fa
:0400fc0032040000ca
:020000040000fa
:0401000032040000c5
:020000040000fa
:0401040032040000c1
:020000040000fa
:0401080032040000bd
:020000040000fa
:04010c0032040000b9
:020000040000fa
:0401100032040000b5
:020000040000fa
:0401140032040000b1
:020000040000fa
:0401180032040000ad
:020000040000fa
:04011c0032040000a9
:020000040000fa
:0401200032040000a5
:020000040000fa
:0401240032040000a1
:020000040000fa
:04012800320400009d
:020000040000fa
:04012c001c040000af
:020000040000fa
:040130003204000095
:020000040000fa
:040134003204000091
:020000040000fa
:04013800320400008d
:020000040000fa
:04013c003204000089
:020000040000fa
:040140003204000085
:020000040000fa
:040144003204000081
:020000040000fa
:04014800320400007d
:020000040000fa
:04014c003204000079
:020000040000fa
:040150003204000075
:020000040000fa
:040154003204000071
:020000040000fa
:04015800320400006d
:020000040000fa
:04015c003204000069
:020000040000fa
:040160003204000065
:020000040000fa
:040164003204000061
:020000040000fa
:04016800320400005d
:020000040000fa
:0402080032040000bc
:020000040000fa
:04020c00d802000014
:020000040000fa
:040210001a030000cd
:020000040000fa
:04021400f8020000ec
:020000040000fa
:040218003a030000a5
:020000040000fa
:04021c0032040000a8
:020000040000fa
:0402200032040000a4
:020000040000fa
:0402240032040000a0
:020000040000fa
:04022800320400009c
:020000040000fa
:04022c003204000098
:020000040000fa
:040230003204000094
:020000040000fa
:040234003204000090
:020000040000fa
:04023800320400008c
:020000040000fa
:04023c003204000088
:020000040000fa
:040240003204000084
:020000040000fa
:040244003204000080
:020000040000fa
:04024800320400007c
:020000040000fa
:04024c003204000078
:020000040000fa
:040250003204000074
:020000040000fa
:04025400b6030000ed
:020000040000fa
:040258005a03000045
:020000040000fa
:04025c003204000068
:020000040000fa
:040260003204000064
:020000040000fa
:040264003204000060
:020000040000fa
:04026800320400005c
:020000040000fa
:04026c003204000058
:020000040000fa
:040270003204000054
:020000040000fa
:040274003204000050
:020000040000fa
:04027800320400004c
:020000040000fa
:04027c003204000048
:020000040000fa
:040280003204000044
:020000040000fa
:040284003204000040
:020000040000fa
:04028800320400003c
:020000040000fa
:04028c003204000038
:020000040000fa
:040290003204000034
:020000040000fa
:040294003204000030
:020000040000fa
:04029800320400002c
:020000040000fa
:04029c003204000028
:020000040000fa
:0402a0003204000024
:020000040000fa
:0402a4003204000020
:020000040000fa
:0402a800320400001c
:020000040000fa
:0402ac003204000018
:020000040000fa
:0402b0003204000014
:020000040000fa
:0402b4003204000010
:020000040000fa
:0402b800320400000c
:020000040000fa
:0402bc003204000008
:020000040000fa
:0402c0003204000004
:020000040000fa
:0402c4003204000000
:020000040000fa
:0402c80032040000fc
:020000040000fa
:0402cc0032040000f8
:020000040000fa
:0402d00032040000f4
:020000040000fa
:0402d40032040000f0
:020000040000fa
:0402d80032040000ec
:020000040000fa
:0402dc0032040000e8
:020000040000fa
:0402e00032040000e4
:020000040000fa
:0402e40032040000e0
:020000040000fa
:0402e80032040000dc
:020000040000fa
:0402ec0032040000d8
:020000040000fa
:0402f00032040000d4
:020000040000fa
:0402f40032040000d0
:020000040000fa
:0402f80032040000cc
:020000040000fa
:0402fc0032040000c8
:020000040000fa
:0403000032040000c3
:020000040000fa
:0403040032040000bf
:020000040000fa
:0403080032040000bb
:020000040000fa
:04030c0032040000b7
:020000040000fa
:0403100032040000b3
:020000040000fa
:0403140032040000af
:020000040000fa
:0403180032040000ab
:020000040000fa
:04031c0032040000a7
:020000040000fa
:0403200032040000a3
:020000040000fa
:04032400320400009f
:020000040000fa
:04032800320400009b
:020000040000fa
:04032c001c040000ad
:020000040000fa
:040330003204000093
:020000040000fa
:04033400320400008f
:020000040000fa
:04033800320400008b
:020000040000fa
:04033c003204000087
:020000040000fa
:040340003204000083
:020000040000fa
:04034400320400007f
:020000040000fa
:04034800320400007b
:020000040000fa
:04034c003204000077
:020000040000fa
:040350003204000073
:020000040000fa
:04035400320400006f
:020000040000fa
:04035800320400006b
:020000040000fa
:04035c003204000067
:020000040000fa
:040360003204000063
:020000040000fa
:04036400320400005f
:020000040000fa
:04036800320400005b
:020000040000fa
:100400008f8d20000eff20000e01880000000000ec
:10041000000020000000e000020032000001200087
:100420002002880014000700430107000000e000dc
:1004300003003a0060922100010020000200370012
:100440000000200001002000810f70000100320038
:1004500014000700000020000000e000020032004d
:100460000000020000000000081b02000000000065
:100470000040da000000fe004440a90020092000ee
:100480000000e0000300320000002000a00188000e
:100490004440a800000006008a1f78008b1f7800e7
:1004a0000000060091018800800478000000eb0045
:1004b0001a003700e284440032a0b4009905ba0063
:1004c000e284440032a0b4009906ba00e2844400f9
:1004d00032a0b4000006eb00476fde00fd07b2005b
:1004e000636ce10003003a00ebff07000000eb0043
:1004f0000a003700606ce10004003a00005deb0088
:100500008b05e900fdff3e00040037006168e10053
:10051000010032000086eb000b00070019c7ba008b
:100520001905ba000e04e00003003a000a00e000da
:10053000e0ff3a0000000600fe07b2009e018800be
:100540008a047800f5ff3700395dba008b05e900b1
:100550000c003200295dba008b05e900080032006a
:100560000c00e00003003a00e284440032a0b40032
:10057000f5ff370019ddba008b05e900faff3a00f4
:100580008904e800e184440032a0b40000000600c1
:10059000000000000000000000000000000000005b
:1005a000000000000000000000000000000000004b
:1005b0003600f800809fbe00829fbe00849fbe0070
:1005c000869fbe000000fa008020a9000000eb001a
:1005d000030c07000080fa004f03be004f02be006c
:1005e0004f01be004f00be003600f900004006007b
:1005f0003600f800809fbe00829fbe00849fbe0030
:10060000869fbe000000fa00fa0b07008040a90098
:1006100010002000f20b07000080fa004f03be001c
:100620004f02be004f01be004f00be003600f90071
:10063000004006003600f800809fbe00829fbe008a
:10064000849fbe00869fbe000000fa008060a90063
:1006500020002000e20b07000080fa004f03be00dc
:100660004f02be004f01be004f00be003600f90031
:10067000004006003600f800809fbe00829fbe004a
:10068000849fbe00869fbe000000fa008080a90003
:1006900030002000d20b07000080fa004f03be009c
:1006a0004f02be004f01be004f00be003600f900f1
:1006b000004006003600f800809fbe00829fbe000a
:1006c000849fbe00869fbe000000fa00e0418000cb
:1006d000000001003141800020418000808f5000e7
:1006e00002003a009580a900190037008580a90012
:1006f0001000370030418000904078008180fb007e
:10070000211188000000e80030418800314180005c
:1007100020832000808f500002003a009082200049
:10072000304188003141800020418000808f50009e
:1007300006003200111180000020200000806000bf
:100740000000e000ebff3200010037000000000075
:100750000080fa004f03be004f02be004f01be00f2
:100760004f00be003600f900004006003600f800d9
:10077000809fbe00829fbe00849fbe00869fbe00f9
:100780000000fa00f0418000000001008560a9002f
:100790001e00370000418000311180008140780048
:1007a0000148780001418000a0832000808f500024
:1007b00009003200004180008000e8001041800004
:1007c000808f500004003200004180000000e800eb
:1007d000004188000d00370001418000a083200007
:1007e000808f500007003a001141800020832000d4
:1007f000808f5000030032002083200000418800d9
:100800000200370010c0b30028e8b70010118000c4
:10081000610060000000e000deff3a000080fa00a6
:100820004f03be004f02be004f01be004f00be008e
:100830003600f90000400600801f78000000fa0032
:1008400010118000620060000000e0000100320032
:100850002222a9008c20a9000080fa004f00780015
:10086000004006000040da000000fe000a00fa0026
:1008700011002000b1bf9f00c0bf9f006a805700d9
:10088000fb0207004fb897000080fa000000060046
:100890000a00fa0051002000b1bf9f00c0bf9f00b6
:1008a0006a805700f40207005fb897000080fa00e2
:1008b00000000600889fbe0080047800b0468000db
:1008c0000000e00004003a000e0007000084eb0086
:1008d0000000e00008003500b84680000900e00094
:1008e0000500320009004400060007000000e00097
:1008f00001003d000084eb00080078004f04be00ba
:1009000000000600800078000100e00003003a00cb
:1009100000002000b0468800000005000080eb00c9
:1009200002002000828f500002003e00b146880085
:100930000000eb000000060000000500889fbe00dc
:100940008a9fbe008c1f7800660007006d00330090
:1009500003866c006450e1002e0032006420e10048
:10096000330032006150e1002f0032006120e100cd
:100970003100320085855500eb07b00009002000ea
:1009800008042000050037000804440089844c0056
:100990000a0031000603430087834b000001530027
:1009a00081815b00f8ff33000203be000800a00055
:1009b0000804440089844c00f6ff3900c639dd0084
:1009c0008301730001003200130020008904d1006c
:1009d0000884d3000998a300050032000800a7008e
:1009e0000300a0008904d1000884d3008b05e8002f
:1009f0008904d1000884d3000001eb000281d200f9
:100a00001200070001f0a1000cf0a70001f0a00007
:100a1000450037006420e100470032000801be00b5
:100a20000200be00f7ff37006120e1004200320003
:100a30006000b800f3ff37000000200001f8270035
:100a4000f0ff3700140020003e0037008100200036
:100a5000618055000b003d000b00200061fe2f005f
:100a60000100e1001d003400828171006101640019
:100a70008904d1000884d3000000e800faff3a009e
:100a8000710020006100640003007000020060003b
:100a90000900320061044400e0844c000988a5008c
:100aa000050032008b05e8006808e10002003a000a
:100ab0008904d1000884d300f20f20000258e1001d
:100ac00005003d00c75ddd00f907b20089807500b3
:100ad00008007800000006000bf827008b00780063
:100ae000000005000004be00310007000003be0046
:100af0000405be000200be002d000700844f7500f3
:100b0000000006000200be006450e100050036004f
:100b10006420e100020036000968a30001003a00e9
:100b20000800be000160a0004f0678004f05be001f
:100b30004f04be0000000600f0ff2f00f1ff270069
:100b4000f9ff3700889fbe008a9fbe00841f78008f
:100b5000e4ff07004f00780011003300f0ff2f0082
:100b6000838f6c0006003b00040565000a00a700a7
:100b70000800370009f0a600100020000800370028
:100b8000820f5400838f5c000300390010002000a6
:100b900001003e000000200009f0a7000000ea006c
:100ba0004f05be004f04be000000e000000006003c
:100bb000c70ade00f107b200f50fb20008003200ec
:100bc000e1cf4200020032000170a00024000500c5
:100bd000810f700001003200040805004400050088
:100be000810f700002003a00140005008502e90040
:100bf0000000400081c04800fcff3b000170a000e5
:100c0000240005000000e0002f003200c001780041
:100c1000e38f51002c0036000308a3002a003a009d
:100c2000814680000100e00002003200810f500088
:100c3000040031001100980080468800160037003b
:100c400082007800110190000200e00002003200f2
:100c5000800f5100faff39001102780084824000b1
:100c6000850f500018003900808f520003003a00b1
:100c70008308420001007800070037000200e0000e
:100c80000300320083014000830f51000e00390041
:100c90001200980090009800900090000100e00081
:100ca0000900320010014000828f500006003a0017
:100cb000e28c20000009eb001001780011084100cf
:100cc000910090001100980000000600889fbe006f
:100cd00000047800714680000100e000020032004c
:100ce000010078000d00370081468000008d200053
:100cf00004003700910f5400250036000180e80001
:100d0000910090000100e000faff3a001000370067
:100d1000920f54001e0036000280e8001001780097
:100d20000200e000faff3a001101780081468000dd
:100d3000008d200004003700910f5400140036008d
:100d40000180e80091009000828f5000faff3a0085
:100d500099468000888f5400010031008804780093
:100d600009007800480007000000e00004003a0095
:100d7000888f5400050032008904d100f5ff370048
:100d8000091878009fff0700d2ff37000000eb0032
:100d90004f04be0000000600881f78006304400076
:100da0000800a1008000eb00800f540021003600f5
:100db000e30f540001003e004800200008007800c6
:100dc000c2ff07008000eb000000e00019003200c5
:100dd000900078009101780064815100880f5100e3
:100de000030031001101900002087800070037006d
:100df00008814000020878009101900013019800da
:100e0000100178001109140088087800100178009a
:100e10000000eb000200e0000400320092019000ac
:100e20000300e000010032000280e8007046880004
:100e30008180e800010078004f047800000006007f
:100e40008001780002003700b15978000201e90002
:100e50000200e000fcff3a0000000600e1862000ee
:100e600075000700800078000080eb000100e000c2
:100e700004003500e1862000a00020000c000700df
:100e80004f80de0000000600800078000000eb00cc
:100e90000100e000050034000100780085fe070035
:100ea000e10f400001003a000000eb0000000600e6
:100eb000889fbe008a1f78000004be00c900900011
:100ec00069009000808f500006003900090078000a
:100ed000b1000700800078000080eb000100e00016
:100ee0001700350008457800490090000858780040
:100ef000c00498001900780000b8a30004003a006c
:100f000000a8a30008003200ea4f540006003a008f
:100f1000090078000d000700800078000080eb00d9
:100f20000100e00006003a0000c020001900600047
:100f30000200320049009000e00498000a80fb00a3
:100f40004f0578004f04be0000000600889fbe00d9
:100f50008a1f7800000478000800e0000d003a00c5
:100f6000c88b2000700544008004eb005800780016
:100f70000000e00004003200f4ff07000000e00081
:100f800001003d008084eb008a0f5400f7ff3a0017
:100f90002500370000002200180060008004eb00ec
:100fa00021003200a80490000f0037000901510011
:100fb000384090000000fb008900780050080700ce
:100fc0000000e00007003c0028009000400498006a
:100fd00060049800500c98001890a0008084eb00ea
:100fe000110037008084440048019000828f540033
:100ff000eeff390028009000400498009800780027
:1010000002c020000281600001003a003800900018
:1010100001e8a300020032006004980001003700dc
:10102000500c98008004eb00090078004f05780010
:101030004f04be0000000600889fbe008a9fbe00cd
:1010400080047800010478002c003700c80090006c
:1010500068009000808f500004003900080078007c
:101060004d0007000000e000370035000040200080
:101070001800600009003200a1002000090078007b
:101080003b000700800578000b00e0000300320001
:10109000618514000a8545000400370009007800c6
:1010a0002d000700000578008005eb004800900047
:1010b000e8009000808050008a8f500002003100cc
:1010c000010578008005eb000a01780089007800ae
:1010d0005bff0700480090000a00400040049800b1
:1010e0000b00e000040032000800780097ff0700c2
:1010f0000000e00014003a008a8444001904e00073
:10110000d2ff3a0000802000180060000600320084
:10111000080078008dff0700800078000080eb0059
:101120000100e00009003a0001c020009880600042
:101130000000eb00050032004800900060049800b9
:101140000000eb00010037000080eb004f05be00ff
:101150004f04be0000000600800078000101780006
:101160003104e000fdff3a000000510000000600dd
:101170000001eb0000027800b041780081cf5100ff
:1011800001003a00040178000304e000f9ff3a008e
:101190000200780000000600889fbe008a1f7800c9
:1011a00000047800c8009000680190000000eb0087
:1011b000828f50003c00390018007800220029007e
:1011c00002016000e20f51000700320001202400fc
:1011d0000000e00001003d0001202000008c7000b4
:1011e0000080eb00300037000200260002006000a3
:1011f000820f500009003a0038009000808f5000a4
:10120000060039000800780050ff070080007800d1
:101210000080eb000100e00023003a001805780090
:1012200000c020000000650018003a00a8049000eb
:101230006002200008004000808f540013003a0034
:1012400000202000d4fe0700200498000000e000e9
:1012500005003a0029049800490498008904e80030
:1012600039049800080037000a60a0000a0c7800d2
:101270004004980001202000808040003104980044
:10128000400c9800500c98000c00070028009000bb
:101290005004980038009000600498000000260078
:1012a000180c70000000eb004f0578004f04be00e2
:1012b0000000060000a0200061003700881f7800b1
:1012c000488d20001804e00003003a00f9ff0700f1
:1012d00020c0b300004c78004f04780000000600e6
:1012e000889fbe00000478000800780017ff070000
:1012f0008004780000042000180060000200320022
:10130000280090003ffe07000000eb00200498003a
:10131000384090000004e000050035000000fb00ac
:1013200052fd07000000e000010032008084eb0065
:10133000181090000000e0000800320054fd070083
:101340000000e000010032008084eb0018109000e3
:101350002cfe07000000eb0010149800000820008d
:1013600018006000150032000001eb006000b800ba
:10137000e38b20000202d00063027a00880f520043
:1013800005003a00000040008180480000804100d4
:101390000008eb000600370061004000e0804800d4
:1013a0000201e800e80f5000e08f5800f0ff3a001b
:1013b0000800780013fe07000e003700000c7800cc
:1013c00000c0eb003044980060022000080040009c
:1013d000200498004004980050049800400c9800a5
:1013e00060049800500c9800700498007600440047
:1013f000000c9800090078004f04be0000000600b1
:10140000881f78000004eb006140b800e2ff2f0065
:10141000f3ff2f001a000700c28c20006200780042
:101420000000e00001003200adff07000804e80002
:10143000e80f5400f4ff3a004f0478000000060063
:10144000010020000100e0000800320001008000df
:101450000100e000050032008100e9000100880081
:101460008100d0000200800000b17800000006007a
:1014700000c0da000000060000c0da00000006002c
:10148000020ab900001bb9000200b8008100420046
:0814900081004300000006008a
:020000040000fa
:1014980052650000676900007374000065720000ff
:1014a800206100006464000072650000737300002e
:1014b800206f000075740000206f00006620000097
:1014c800726100006e67000065280000302d000082
:1014d80036330000292e000020000000526500006d
:1014e80067690000737400006572000020640000e2
:1014f80061740000612000006f7500007420000016
:101508006f66000020720000616e000067650000d1
:10151800283000002d32000035350000292e00004b
:10152800200000007375000063630000657300000d
:1015380073660000756c0000207700007269000077
:10154800746900006e67000020000000756e0000de
:101558007375000063630000657300007366000024
:10156800756c000020770000726900007469000043
:101578006e670000200000006f6b0000200a00006a
:10158800007300007563000063650000737300005a
:10159800200a000000660000616900006c2000005d
:1015a8000a000000310100000000000000000000f7
:0415b800000000002f
:020000040000fa
:1015bc000400fa0010079800cd82a9001e009000cc
:1015cc00ec050700000f7800cd82a8000080fa001f
:1015dc00000006001200fa00000f98000e089000a0
:1015ec00c800dd0000002c000100700010079800fe
:1015fc009e009000210798000000eb003007980037
:10160c000000eb00400798000000eb00000f780092
:10161c000e003700cd82a9001e00780000004000ab
:10162c000000470020009000d205070080007800e1
:10163c001e00780000004000000047006a004000d7
:10164c0001087800cd82a8001e0fe8001e0078006b
:10165c00e20f5000efff34007e0090000080fa0093
:10166c00000006001600fa00200f980080022000ef
:10167c00000f78000000eb001007980013003700f3
:10168c001e007800c800dd0000002c000100700076
:10169c0020079800cd82a9002e009000b505070008
:1016ac00800078001e009000000040000000470001
:1016bc006600400001087800cd82a8001e0fe800eb
:1016cc001e0090000000e800100798001e0090001b
:1016dc00e60f5000eaff340066004700640040004b
:1016ec0052002000800078002e089000d1fd0700e9
:1016fc000080fa00000006001400fa00000f9800a9
:10170c00110f98008e089000f0032000808f50007d
:10171c0004003600c0a42800cdfd07000040eb00fb
:10172c00350037009e089000f00f2000808f50008d
:10173c000400360020a72800c5fd07000040eb0080
:10174c002d0037000e089000c800dd001e08900028
:10175c000100700000f0a000100798009e0090009f
:10176c00210798000000eb00300798000000eb0008
:10177c00400798000000eb00000f78000e003700c7
:10178c00cd82a9001e007800000040000000470038
:10179c002000900077050700800078001e0078007c
:1017ac0000004000000047006a004000010878007b
:1017bc00cd82a8001e0fe8001e007800e20f50003a
:1017cc00efff3400fe009000f00f2000810070004d
:1017dc001e089000808f500004003a0060a9280079
:1017ec009bfd070010c0b30003003700a0aa28001f
:1017fc0097fd07000040eb000080fa000000060097
:10180c001200fa00000f98000e0890004800dd004e
:10181c00100798009e009000210798000000eb0034
:10182c00300798000000eb00400798000000eb0028
:10183c00000f78000e003700cd82a9001e00780042
:10184c000000400000004700200090004905070000
:10185c00800078001e007800000040000000470067
:10186c006a00400001087800cd82a8001e0fe80035
:10187c001e007800e20f5000efff34007e00900055
:10188c000080fa00000006004c00fa005027980077
:10189c000000eb00000f78000000eb002007980020
:1018ac00170037001e007800ff0f500003003600b1
:1018bc000000eb0010079800030037001e007800b2
:1018cc004800dd0010079800cd82a9001e00900092
:1018dc0028050700800078002e00900000004000d2
:1018ec00000047006600400001087800cd82a80087
:1018fc001e0fe8002e0090000000e8002007980062
:10190c00ae00900010022000808f5000e5ff3400e4
:10191c005e00900002022000800078005e209000a3
:10192c0044fd07000080fa00000006001800fa00d1
:10193c00005025002007980010002000000f7800b0
:10194c00070037001e007800000040000000470030
:10195c00640040008000eb00010878001e0fe800d6
:10196c001e007800e90f5000f6ff34000000eb0079
:10197c00000f780009003700cd82a9001e00780006
:10198c00000040000000470020009000f904070010
:10199c0010079800cd82a8001e0fe8001e007800ea
:1019ac00e90f5000f4ff34000080fa00000006003c
:1019bc000200fa00cd82a90000a02300ed0407006c
:1019cc00000f7800cd82a8000080fa00000006000d
:1019dc00c200fa00881f7800709f980001a7980039
:1019ec000000eb00300798000200200003182400d0
:1019fc007e9890008ea09000cdfb070040079800c9
:101a0c00510798000000eb006007980018c0b30065
:101a1c0002002000032f24004e009000de009000f6
:101a2c0005fc07000000e000010035000044eb005d
:101a3c000804e00005003200800220001007980026
:101a4c0000022000000f78007400370018c0b300ab
:101a5c0002002000c33024004e009000de009000f5
:101a6c00f5fb07000000e000010035000044eb002e
:101a7c000804e000050032008002200010079800e6
:101a8c0000012000000f78006400370018c0b3007c
:101a9c0002002000f33224004e009000de00900083
:101aac00e5fb07000000e000010035000044eb00fe
:101abc000804e000050032008002200010079800a6
:101acc0080002000000f78005400370018c0b300cd
:101adc0002002000c33524004e009000de00900070
:101aec00d5fb07000000e000010035000044eb00ce
:101afc000804e000050032000002200010079800e6
:101b0c0080002000000f78004400370018c0b3009c
:101b1c0002002000c33824004e009000de0090002c
:101b2c00c5fb07000000e000010035000044eb009d
:101b3c000804e00005003200a00120001007980006
:101b4c0080002000000f78003400370018c0b3006c
:101b5c0002002000f33a24004e009000de009000ba
:101b6c00b5fb07000000e000010035000044eb006d
:101b7c000804e00005003200200120001007980046
:101b8c0040002000000f78002400370018c0b3007c
:101b9c0002002000c33d24004e009000de009000a7
:101bac00a5fb07000000e000010035000044eb003d
:101bbc000804e00005003200000120001007980026
:101bcc0030002000000f78001400370018c0b3005c
:101bdc0002002400334024004e009000de009000f0
:101bec0095fb07000000e000010035000044eb000d
:101bfc000804e00005003200700020001007980077
:101c0c0030002000000f7800040037004000200056
:101c1c001007980020002000000f780030002000f2
:101c2c00700798000000eb00000f980010002000d7
:101c3c00100f980030002000200f9800200020008a
:101c4c00300f980010002000400f98000000eb00af
:101c5c00500f98000000eb00600f98000000eb00a4
:101c6c00700f98000000eb00001798000000eb00cc
:101c7c001017980010002000201798000000eb00af
:101c8c00301798000000eb0040179800100020005f
:101c9c0050179800100020006017980010002000ca
:101cac00701798000000eb00001f98000000eb007c
:101cbc00101f98000000eb00201f98000000eb00a4
:101ccc00301f98000000eb00401f98000000eb0054
:101cdc00501f98000000eb00601f98000000eb0004
:101cec00701f98000000eb000027980010002000e7
:101cfc0010279800100020002027980010002000ca
:101d0c0030279800e0022000402798002000200097
:101d1c0050279800e0012000602798003000200038
:101d2c0070279800c0022000002f9800600020004f
:101d3c00102f98000000eb00202f98000000eb0003
:101d4c0020079800090037002e009000000040008a
:101d5c0000004700a005b000110020000108780029
:101d6c002e0090000000e800200798002e00900044
:101d7c00ff0f5000f4ff36007e009000c600dd001f
:101d8c000e0890004500dd00810070001e089000d8
:101d9c004400dd00810070002e0890004200dd0040
:101dac00810070003e08900001007000508f980078
:101dbc004e0890004600dd001e007000608f9800f9
:101dcc001e009000708f98006e009000c500dd0022
:101ddc006e0890004400dd00810070005e089000e9
:101dec004300dd00810070007e0890004200dd00a1
:101dfc00810070001e1090000000400081007000f7
:101e0c000e10900001007000009798002e109000aa
:101e1c00c700dd003e1090004600dd008100700020
:101e2c004e1090004500dd00810070005e109000a7
:101e3c004400dd00810070006e1090000100700005
:101e4c00109798007e109000c600dd000e189000d0
:101e5c004500dd00810070001e1890004300dd007d
:101e6c00810070002e1890004200dd00810070008f
:101e7c003e18900000004000810070004e18900049
:101e8c0001007000209798003e0090003097980059
:101e9c005e189000409798006e189000c700dd0007
:101eac004e20900001007000509798001e2090006a
:101ebc00c700dd005e209000010070006097980064
:101ecc007e189000c700dd006e20900001007000ad
:101edc00709798002e209000c700dd007e209000a7
:101eec0001007000009f98000e209000c700dd00dc
:101efc000e28900001007000109f98003e2090006a
:101f0c00c700dd002e2890004600dd008100700027
:101f1c001e28900001007000209f98004e30900009
:101f2c00c700dd003e3090004600dd0081007000ef
:101f3c002e3090004500dd00810070001e309000b6
:101f4c004400dd00810070000e3090004300dd0085
:101f5c00810070007e2890004200dd00810070003e
:101f6c006e28900000004000810070005e289000f8
:101f7c0001007000309f98004e389000c700dd00c3
:101f8c003e3890004600dd00810070002e38900035
:101f9c004500dd00810070001e3890004400dd001b
:101fac00810070000e3890004300dd00810070004d
:101fbc007e3090004200dd00810070006e30900099
:101fcc0000004000810070005e289000010070004d
:101fdc00409f98004e389000c700dd003e389000be
:101fec004600dd00810070002e3890004500dd00b9
:101ffc00810070001e3890004400dd0081007000ec
:10200c000e3890004300dd00810070007e3090009f
:10201c004200dd00810070006e3090000000400036
:10202c00810070005e28900001007000509f9800a5
:10203c004e889000c700dd003e8890004600dd0011
:10204c00810070002e8890004500dd00810070003a
:10205c001e8890004400dd00810070000e88900006
:10206c004300dd00810070007e8090004200dd00a6
:10207c00810070006e8090000000400081007000b4
:10208c005e80900001007000609f98000000eb00e3
:10209c0020079800110037002e009000c800dd00ca
:1020ac002e00900000004000000047005088900077
:1020bc000100700000f0a000302f9800cd82a90024
:1020cc003e2890002b030700402f9800cd82a800db
:1020dc002e0090000000e800200798002e009000d1
:1020ec00f10f5000ecff36004f0478000080fa002e
:1020fc00000006000400fa00008fbe001e00be00a7
:10210c0033fe070000f42100010020002305070026
:10211c0006fe07000080fa00000006000000fa002e
:10212c009580a9009560a90080002000001188000e
:10213c002222ef00f00c2000401188009082200039
:10214c0030418800908220002041880020832000ac
:10215c001041880020832000004188002868ef008f
:10216c00000e210007000700e00f210014000700fb
:10217c009560a80021e2a8002342a8000080fa0084
:10218c00000006000200fa00000f78001e00780024
:10219c000000e00003003a00000e2100e04188003e
:1021ac00020037009e007800e14188000080fa00b0
:1021bc00000006000000fa000080fa000000060093
:1021cc000200fa00000f78001e0078000000e0000a
:1021dc0003003a00e00f2100f041880002003700b4
:1021ec009e007800f14188000080fa000000060093
:1021fc000000fa000080fa00000006000200fa005d
:10220c000040eb00004f78000000000011418000fe
:10221c0000418000808f5000fcff32001041800094
:10222c00104f7800104180000000e8001041880039
:10223c0011418000b0832000808f500002003a00d2
:10224c0020832000104188001e4078000080fa0096
:10225c00000006000200fa00004f780000000000a9
:10226c001c0007000004a2000004e000fcff3a0080
:10227c00204180001e487800204180000000e800ca
:10228c00204188002141800020832000808f500055
:10229c0002003a0090822000204188009580a8001e
:1022ac000080fa00000006000000fa0011418000d6
:1022bc00004180000080680000f0a7000000ea00e8
:1022cc000000ea004f00de00004078000080fa00b9
:1022dc00000006000400fa0031418000110798004c
:1022ec00214180001e009000808f500006003100bc
:1022fc009e00900020418000008050000000e9000a
:10230c00000f7800050037009e00900020418000ef
:10231c000080500068004000000f78001e0078001c
:10232c0000f0a7000000ea000000ea004f00de0009
:10233c00004078000080fa00000006000000fa005f
:10234c002141800030418000808f500009003a000c
:10235c0011118000001020000080600000f0a70028
:10236c000000ea000000ea004f00de0000407800a8
:10237c00010037000040eb000080fa00000006006e
:10238c000400fa0001418000110798001041800000
:10239c009e009000808f5000060031009e0090003f
:1023ac00104180000080500069004000000f780050
:1023bc00040037009e009000104180000080500007
:1023cc00000f7800f00f20009e007800808f5000e6
:1023dc000200360000c0eb00020037001e0078003f
:1023ec00004078000080fa00000006000400fa00ab
:1023fc003141800011079800214180001e0090009f
:10240c00808f5000060031009e009000204180001b
:10241c00008050000000e900000f78000500370034
:10242c009e00900020418000008050006800400019
:10243c00000f7800f00f20009e007800808f500075
:10244c000200360000c0eb00020037001e007800ce
:10245c00004078000080fa00000006000800fa0036
:10246c002007980031079800c5ff07000080fb008b
:10247c00000f78003e0090009e0f500002003100cb
:10248c00be009000010f78000000eb0010079800d0
:10249c000900370059ff0700ae0090008048780013
:1024ac002e0090000000e800200798001e0090000d
:1024bc000000e800100798001e0090009e0f5000ce
:1024cc00f4ff39001e0078000080fa0000000600be
:1024dc000800fa002007980031079800c3ff070096
:1024ec000080fb00000f78003e0090009e0f500013
:1024fc0002003100be009000010f78000000eb00dc
:10250c0010079800090037002e009000104078004a
:10251c00ae0090008100e800210798004dff0700f5
:10252c001e0090000000e800100798001e009000ac
:10253c009e0f5000f4ff39001e0078000080fa0056
:10254c00000006000400fa000000eb00000f780009
:10255c008bff070020479800a4ff07003047980026
:10256c002e4090000080fb000000e00003003200d1
:10257c00e90f500003003200040037001e20a000b9
:10258c00040037001e00a000020037001e10a0003f
:10259c00000000003e4090000080fb000000e000c6
:1025ac0003003200e90f5000030032000400370032
:1025bc001e30a000020037001e40a00000000000ea
:1025cc001e0078000080fa00000006000400fa00eb
:1025dc0010079800114180001e009000008f4000f1
:1025ec00020037009e007800698f5000b0832000f5
:1025fc009e007800808f5000faff3e001e0078008d
:10260c00104078000080fa00000006000000fa007c
:10261c005bff07000080fb000000e9004f00de00bc
:10262c00004078000080fa00000006000000fa006c
:10263c006eff07000080fb000000e9004f00de0089
:10264c00004078000080fa00000006000000fa004c
:10265c00101180000080fa00000006000000fa0053
:10266c0062ff07000004e0001000320031418000de
:10267c0020418000808f50000600360030418000e1
:10268c008000780020418000008050000000e900ac
:10269c000700370030418000800078002041800026
:1026ac000080500068004000010037000000eb0083
:1026bc000080fa00000006000000fa0030ff07005e
:1026cc000004e00010003200114180000041800045
:1026dc00808f50000600360010418000800078008a
:1026ec0000418000008050000000e9000700370026
:1026fc001041800080007800004180000080500074
:10270c0068004000010037000000eb000080fa0078
:10271c00000006000000fa0021e2a8002342a800f5
:10272c000080fa00000006000000fa0021e2a90077
:10273c002342a9000080fa00000006000600fa00ff
:10274c0050c0b300204798000000eb00000f780049
:10275c000a003700c402a9000e80e8001e004000e9
:10276c0010407800d8010700e40047009e8040002c
:10277c0080487800c402a8001e0fe8001e007800f4
:10278c00e10f5000f3ff34005e4090000080fa002f
:10279c00000006000c00fa0050079800f0c9b300c6
:1027ac00204798000000eb00000f78000a0037006b
:1027bc00c402a9000e80e8001e0040001040780002
:1027cc00c1010700e60047009e8040008048780069
:1027dc00c402a8001e0fe8001e007800e30f500092
:1027ec00f3ff3400660047000000e80032002000d0
:1027fc00800078005e0090008ef907000080fa00df
:10280c00000006000200fa00ccff0700004f780021
:10281c001e80fb0061006000004078000004e000b6
:10282c000200320010c0b300010037000040eb0082
:10283c000080fa00000006000200fa00bfff07004b
:10284c00004f78001e80fb00620060000000e0007a
:10285c000200320010c0b300010037000040eb0052
:10286c000080fa00000006000200fa0060c0b3000d
:10287c00004f78001e407800e8010700eeff0700cb
:10288c000080fa00000006000200fa0040c0b3000d
:10289c00004f78001e407800e0010700e6ff0700bb
:1028ac000004a2000080fb00004078000080fa00c9
:1028bc00000006000e00fa00881f78003007980010
:1028cc004107980052079800630798006e0090002b
:1028dc00640040002df90700100798001e009000be
:1028ec0031c0b300014878001e0090000001e800e0
:1028fc003e009000ce0090004008de0000407800c2
:10290c00004978001e0090000081e8003e00900015
:10291c00ce009000c809dd004800de000080710088
:10292c00c808de0000407800004978001e009000c6
:10293c0063004000be0090008140780001487800a0
:10294c006e0090006400400010f90700200798000a
:10295c000000eb00000f78000c003700c402a90047
:10296c001e007800ae009000008440001e0078002d
:10297c009e0090000080400010407800520107003b
:10298c00004c7800c402a8001e0fe8009e007800de
:10299c006e00900064004000808f5000efff390003
:1029ac002e009000640040006e01900080007800c2
:1029bc005e0090001ff907001e0090008ef80700c3
:1029cc002e0090008cf807004f0478000080fa006d
:1029dc00000006001000fa0040079800510798000c
:1029ec006207980073079800fe009000001020000a
:1029fc00808f5000020036000040eb00570037007b
:102a0c004e0090008000eb00100798002107980002
:102a1c001e019000ae0190004c18dd00c410de00c9
:102a2c00810070004c10dd00100798002107980001
:102a3c005e0090008000eb001e019000ae01900043
:102a4c00020040008380480010079800210798007e
:102a5c000000000084ff07000004a2000004e00056
:102a6c00fcff3a0067ff07000004e00002003200a0
:102a7c000040eb00390037007e00900064004000fd
:102a8c00c2f80700300798003e00900021c0b30048
:102a9c00014878003e0090000001e8001e00900004
:102aac00ae0090004008de0000407800004978003d
:102abc003e0090000081e8001e009000ae009000e7
:102acc00c809dd004800de0000807100c808de0087
:102adc0000407800004978003e0090006300400000
:102aec009e00900081407800014878003e009000e4
:102afc00640040007e019000ee009000cdf80700cd
:102b0c000000eb00000f780008003700c402a90099
:102b1c001e007800be00900000804000104078003d
:102b2c003e010700c402a8001e0fe8009e007800ba
:102b3c007e00900064004000808f5000f3ff39004d
:102b4c00000000002fff07000004e000fdff3a002a
:102b5c003e00900028f8070010c0b3000080fa0077
:102b6c00000006000000fa0020522000101288001d
:102b7c001000200020128800c000280000128800dd
:102b8c000080fa00000006000400fa00000f780034
:102b9c001107980000000000001280006200600025
:102bac000000e000fcff3a001e00780010007800e6
:102bbc00401288000000000001128000000220007a
:102bcc00008060000000e000fbff3a001e00900057
:102bdc0041128000010878000080fa000000060015
:102bec001800fa00100f9800210f9800320f98006f
:102bfc000000eb00000f78000000eb0010079800bd
:102c0c000000eb00700798000000eb00000f98002c
:102c1c0020002000600798002e0890000000d100d2
:102c2c00200f98001e0890000000e00005003a00fc
:102c3c000000eb0050079800700047002007980038
:102c4c0004003700ee009000510798009e08900099
:102c5c00210798003e0890000000e00005003a00b3
:102c6c000000eb00400798006e004700300798000a
:102c7c0005003700ee00900041079800be08900058
:102c8c003107980000000000001280006200600014
:102c9c000000e000fcff3a001b003700001280002f
:102cac00620060000000e00008003a002e00900076
:102cbc001000780040128800ae0090005e0090007a
:102ccc0000804000200798001e0fe80001128000d1
:102cdc0000022000008060000000e0000a003a00c2
:102cec003e0090004112800001087800be00900068
:102cfc004e00900000804000300798001e009000ad
:102d0c000000e800100798002e0890009e00780044
:102d1c00808f5000e1ff39000f0037000112800056
:102d2c0000022000008060000000e0000a003a0071
:102d3c003e0090004112800001087800be00900017
:102d4c004e00900000804000300798001e0090005c
:102d5c000000e800100798009e0090002e089000dc
:102d6c00808f5000edff39001e0078000080fa00c3
:102d7c00000006000400fa00100798008e0078008e
:102d8c000e80e80080ff07001e0078000080fa002b
:102d9c00000006000600fa00000f780011079800ea
:102dac0022079800ae0090001e0078000101780008
:102dbc009e0090008aff07000080fa0000000600c9
:102dcc000000fa001112800000402000008060001a
:102ddc000000e00002003a000000eb0001003700a8
:102dec00100020000080fa00000006000000fa002d
:102dfc00001280000080fa00000006000000fa00bb
:102e0c0061e2a9000080fa00000006000200fa004e
:102e1c00000f780001138000000028000080600083
:102e2c000000e00025003a001e007800c300dd0021
:102e3c0060ad28000080400010007800101388005e
:102e4c001e0078004300dd008080e80060ad2800a3
:102e5c000080400010007800201388001e007800cd
:102e6c004300dd00e400400060ad2800008040001d
:102e7c001000780000f0a000001388001e007800fd
:102e8c004300dd00e600400060ad280000804000fb
:102e9c0010407800614060000080fb006100600021
:102eac004500dd00411680000150a10001007000ba
:102ebc004016880010c0b300010037000040eb0042
:102ecc000080fa00000006000200fa00004f7800b3
:102edc001e80fb00401388000000000000138000df
:102eec00610060000000e000fcff32004013800035
:102efc00004078000080fa00000006000600fa008e
:102f0c0010079800210798009e009000010f780090
:102f1c00060037001e00780010407800eaff07001a
:102f2c009e007800804878001e0fe8002e0090006c
:102f3c0000f0a7000000ea000000ea004f00de00ed
:102f4c0000407800ae0090008100e9002107980055
:102f5c000004e000efff3a000080fa0000000600d9
:102f6c000600fa0010079800210798009e009000b8
:102f7c00010f7800040037001e0078001040780024
:102f8c001e0fe800d0ff07002e00900000f0a700f5
:102f9c000000ea000000ea004f00de00004078006c
:102fac00ae0090008100e900210798000004e000c9
:102fbc00f1ff3a000080fa00000006000600fa005b
:102fcc0010079800210798009e009000010f7800d0
:102fdc00050037000040eb00bbff07009e007800a7
:102fec00804878001e0fe8002e00900000f0a7002b
:102ffc000000ea000000ea004f00de00004078000c
:10300c00ae0090008100e900210798000004e00068
:10301c00f0ff3a000080fa00000006000200fa00ff
:10302c00004f78001e80fb00401388000080fa00df
:10303c00000006000000fa004013800000407800f9
:10304c000080fa00000006000000fa004004800036
:10305c00620060000000e0000600320020428000a8
:10306c000000e0000200320020428000000001005d
:10307c008820a9000080fa00000006000200fa0077
:10308c00000f78009e007800214288000080fa0032
:10309c00000006000400fa00100798000040eb0046
:1030ac00004f78000b0037000000000089fc07007f
:1030bc000004a2000004e000fcff3a001e80fb00ac
:1030cc009e00900000804000104078001e4fe800e9
:1030dc0060fc07001e80fb009e00900000804000fa
:1030ec00104078000004e000efff3a000080fa0086
:1030fc00000006000600fa001007980041479800ef
:10310c000000eb00000f78000b00370000000000ff
:10311c0070fc07000004a2000004e000fcff3a0071
:10312c001e0078009e009000008040001040780047
:10313c0048fc07001e0fe8004e4090000080fb008a
:10314c009e0f5000f1ff3c000080fa0000000600ca
:10315c000c00fa0029fc0700004f78001e80fb00d1
:10316c0021072000810f500014003200210720009d
:10317c00810f500007003c0031062000810f5000e9
:10318c002c00320091062000810f500025003200e7
:10319c002900370041072000810f50000400320045
:1031ac0071072000810f50001100320022003700ff
:1031bc0000ac2800b7ff07001f0037000e80e800a6
:1031cc0028f907000040eb00104798001e409000c3
:1031dc000004e0000300320050ac2800adff0700f3
:1031ec0015003700f0ac2800aaff070012003700ca
:1031fc00e10d20000000eb003ff90700104798009c
:10320c001e4090000004e0000300320050ac280087
:10321c00a0ff070008003700f0ac28009dff070056
:10322c000500370000002000a1372400b1fb070087
:10323c0001003700000000000080fa0000000600ca
:020000040000fa
:10324c00400800000200000002000000ffff000028
:10325c000008000020000000000000002008000012
:10326c0020000000000000004208000002000000e6
:10327c0000000000440800000200000000000000f4
:10328c00d208000002000000020000000400000050
:10329c00ce080000040000000000000046080000fa
:1032ac00880000000200000001000000006c080013
:1032bc006d086c00086c08006c086c00085c080059
:1032cc0000000000000000000000000000000000f2
:1032dc0000000000000000000000000000020800d8
:1032ec0001019400089508009408940008940800c3
:1032fc00940884000800000000000000000000009a
:10330c0000000000000000000000000000000000b1
:10331c000000020008020200bc08bd0008bc080046
:10332c00bc08bc0008bc0800ac0800000000000091
:10333c000000000000000000000000000000000081
:10334c00000000000000000046086e00089608000f
:10335c000000000000000000000000000000000061
:10336c00d40800000200000000000000d608000095
:0c337c0002000000000000000000000043
:020000040000fa
:103388000000fa000021ef000221ef0000002800f1
:10339800200888004268ef000080fa00000006005c
:1033a8000000fa0020048000680060000000e000cf
:1033b8000600320043c8bf000040e80043e8b700f9
:1033c80010c0b30042e8b7008460a9000080fa008a
:1033d800000006000200fa00000f78009e00780046
:1033e800110888004268ef000080fa00000006001b
:1033f8000000fa00100880000080fa0000000600b3
:103408000200fa00000f78009e007800010888008a
:103418004268ef000080fa00000006000000fa0091
:10342800000880000080fa00000006000000fa0092
:103438004268ef0005e1a8000080fa0000000600dd
:103448000000fa0005e1a9000080fa00000006006b
:103458000200fa002184200091407800014f780092
:103468001e4078000004e000010032004268ef00ce
:103478001e4078000080fa00000006000000fa00f4
:1034880043c8bf000080fb000080fa00000006006f
:103498000000fa004368ef000080fa000000060010
:1034a8000000fa0000102300203a88004827ef00a7
:1034b8004e27ef007027ef007227ef007427ef0008
:1034c8007627ef001200200080072000a1092000c5
:1034d8003374200080497800814978008249780057
:1034e8000001eb0060042000710520002374200017
:1034f8008049780081497800824978000080fa0084
:10350800000006000000fa00c422ef00cc22ef0001
:103518006009200000168800f07124004016880019
:103528005620ef005820ef005a20ef006e20ef00e1
:103538007020ef007220ef00c622ef00ce22ef00cd
:1035480060002000002788008001240010278800e0
:103558000080fa00000006000000fa002106800042
:10356800f0f82f00008060000040a00020068800ce
:103578005105800080ff2f00008060000000a0003f
:103588005005880041058000f0ff28000080600099
:1035980000c0a000400588000080fa000000060076
:020000040000fa
:1035a800f03fb1000180b10006003500ee030900cc
:1035b80000000000403fb1000180b100fbff3d006a
:1035c8001000b000203fb000020035000080090064
:0835d8000000000000000600e5
:020000040000fa
:1035e0000200fa00000f78009e0078000142880077
:1035f000ffff37000000fa000080200080077800fd
:1036000080812000000188000080fa000000060090
:103610000000fa000a00070000502300c10020004b
:10362000e1ff0700010037000000000021fb070058
:103630000004e000fcff3200c8fe0700fbff37007b
:103640000000fa00b1ff0700c5ff070096ff070062
:1036500047fd0700b4fa07004bff07000080fa009f
:043660000000060060
:020000040000fa
:0200000401f009
:04000000ffff0000fe
:020000040000fa
:0200000401f009
:04000800ffff0000f6
:020000040000fa
:0200000401f009
:04000c00f9ff0000f8
:020000040000fa
:0200000401f009
:04001000bfff00002e
:020000040000fa
:0200000401f009
:040014005fff00008a
:020000040000fa
:0200000401f009
:04001800ffff0000e6
:020000040000fa
:0200000401f009
:04001c00ffff0000e2
:020000040000fa
:0200000401f009
:04002000ffff0000de
:00000001FF
