:020000040000fa
:080000000002040000000000f2
:020000040000fa
:040008002a040000c6
:020000040000fa
:04000c00d00200001e
:020000040000fa
:0400100012030000d7
:020000040000fa
:04001400f0020000f6
:020000040000fa
:0400180032030000af
:020000040000fa
:04001c002a040000b2
:020000040000fa
:040020002a040000ae
:020000040000fa
:040024002a040000aa
:020000040000fa
:040028002a040000a6
:020000040000fa
:04002c002a040000a2
:020000040000fa
:040030002a0400009e
:020000040000fa
:040034002a0400009a
:020000040000fa
:040038002a04000096
:020000040000fa
:04003c002a04000092
:020000040000fa
:040040002a0400008e
:020000040000fa
:040044002a0400008a
:020000040000fa
:040048002a04000086
:020000040000fa
:04004c002a04000082
:020000040000fa
:040050002a0400007e
:020000040000fa
:04005400ae030000f7
:020000040000fa
:04005800520300004f
:020000040000fa
:04005c002a04000072
:020000040000fa
:040060002a0400006e
:020000040000fa
:040064002a0400006a
:020000040000fa
:040068002a04000066
:020000040000fa
:04006c002a04000062
:020000040000fa
:040070002a0400005e
:020000040000fa
:040074002a0400005a
:020000040000fa
:040078002a04000056
:020000040000fa
:04007c002a04000052
:020000040000fa
:040080002a0400004e
:020000040000fa
:040084002a0400004a
:020000040000fa
:040088002a04000046
:020000040000fa
:04008c002a04000042
:020000040000fa
:040090002a0400003e
:020000040000fa
:040094002a0400003a
:020000040000fa
:040098002a04000036
:020000040000fa
:04009c002a04000032
:020000040000fa
:0400a0002a0400002e
:020000040000fa
:0400a4002a0400002a
:020000040000fa
:0400a8002a04000026
:020000040000fa
:0400ac002a04000022
:020000040000fa
:0400b0002a0400001e
:020000040000fa
:0400b4002a0400001a
:020000040000fa
:0400b8002a04000016
:020000040000fa
:0400bc002a04000012
:020000040000fa
:0400c0002a0400000e
:020000040000fa
:0400c4002a0400000a
:020000040000fa
:0400c8002a04000006
:020000040000fa
:0400cc002a04000002
:020000040000fa
:0400d0002a040000fe
:020000040000fa
:0400d4002a040000fa
:020000040000fa
:0400d8002a040000f6
:020000040000fa
:0400dc002a040000f2
:020000040000fa
:0400e0002a040000ee
:020000040000fa
:0400e4002a040000ea
:020000040000fa
:0400e8002a040000e6
:020000040000fa
:0400ec002a040000e2
:020000040000fa
:0400f0002a040000de
:020000040000fa
:0400f4002a040000da
:020000040000fa
:0400f8002a040000d6
:020000040000fa
:0400fc002a040000d2
:020000040000fa
:040100002a040000cd
:020000040000fa
:040104002a040000c9
:020000040000fa
:040108002a040000c5
:020000040000fa
:04010c002a040000c1
:020000040000fa
:040110002a040000bd
:020000040000fa
:040114002a040000b9
:020000040000fa
:040118002a040000b5
:020000040000fa
:04011c002a040000b1
:020000040000fa
:040120002a040000ad
:020000040000fa
:040124002a040000a9
:020000040000fa
:040128002a040000a5
:020000040000fa
:04012c0014040000b7
:020000040000fa
:040130002a0400009d
:020000040000fa
:040134002a04000099
:020000040000fa
:040138002a04000095
:020000040000fa
:04013c002a04000091
:020000040000fa
:040140002a0400008d
:020000040000fa
:040144002a04000089
:020000040000fa
:040148002a04000085
:020000040000fa
:04014c002a04000081
:020000040000fa
:040150002a0400007d
:020000040000fa
:040154002a04000079
:020000040000fa
:040158002a04000075
:020000040000fa
:04015c002a04000071
:020000040000fa
:040160002a0400006d
:020000040000fa
:040164002a04000069
:020000040000fa
:040168002a04000065
:020000040000fa
:040208002a040000c4
:020000040000fa
:04020c00d00200001c
:020000040000fa
:0402100012030000d5
:020000040000fa
:04021400f0020000f4
:020000040000fa
:0402180032030000ad
:020000040000fa
:04021c002a040000b0
:020000040000fa
:040220002a040000ac
:020000040000fa
:040224002a040000a8
:020000040000fa
:040228002a040000a4
:020000040000fa
:04022c002a040000a0
:020000040000fa
:040230002a0400009c
:020000040000fa
:040234002a04000098
:020000040000fa
:040238002a04000094
:020000040000fa
:04023c002a04000090
:020000040000fa
:040240002a0400008c
:020000040000fa
:040244002a04000088
:020000040000fa
:040248002a04000084
:020000040000fa
:04024c002a04000080
:020000040000fa
:040250002a0400007c
:020000040000fa
:04025400ae030000f5
:020000040000fa
:04025800520300004d
:020000040000fa
:04025c002a04000070
:020000040000fa
:040260002a0400006c
:020000040000fa
:040264002a04000068
:020000040000fa
:040268002a04000064
:020000040000fa
:04026c002a04000060
:020000040000fa
:040270002a0400005c
:020000040000fa
:040274002a04000058
:020000040000fa
:040278002a04000054
:020000040000fa
:04027c002a04000050
:020000040000fa
:040280002a0400004c
:020000040000fa
:040284002a04000048
:020000040000fa
:040288002a04000044
:020000040000fa
:04028c002a04000040
:020000040000fa
:040290002a0400003c
:020000040000fa
:040294002a04000038
:020000040000fa
:040298002a04000034
:020000040000fa
:04029c002a04000030
:020000040000fa
:0402a0002a0400002c
:020000040000fa
:0402a4002a04000028
:020000040000fa
:0402a8002a04000024
:020000040000fa
:0402ac002a04000020
:020000040000fa
:0402b0002a0400001c
:020000040000fa
:0402b4002a04000018
:020000040000fa
:0402b8002a04000014
:020000040000fa
:0402bc002a04000010
:020000040000fa
:0402c0002a0400000c
:020000040000fa
:0402c4002a04000008
:020000040000fa
:0402c8002a04000004
:020000040000fa
:0402cc002a04000000
:020000040000fa
:0402d0002a040000fc
:020000040000fa
:0402d4002a040000f8
:020000040000fa
:0402d8002a040000f4
:020000040000fa
:0402dc002a040000f0
:020000040000fa
:0402e0002a040000ec
:020000040000fa
:0402e4002a040000e8
:020000040000fa
:0402e8002a040000e4
:020000040000fa
:0402ec002a040000e0
:020000040000fa
:0402f0002a040000dc
:020000040000fa
:0402f4002a040000d8
:020000040000fa
:0402f8002a040000d4
:020000040000fa
:0402fc002a040000d0
:020000040000fa
:040300002a040000cb
:020000040000fa
:040304002a040000c7
:020000040000fa
:040308002a040000c3
:020000040000fa
:04030c002a040000bf
:020000040000fa
:040310002a040000bb
:020000040000fa
:040314002a040000b7
:020000040000fa
:040318002a040000b3
:020000040000fa
:04031c002a040000af
:020000040000fa
:040320002a040000ab
:020000040000fa
:040324002a040000a7
:020000040000fa
:040328002a040000a3
:020000040000fa
:04032c0014040000b5
:020000040000fa
:040330002a0400009b
:020000040000fa
:040334002a04000097
:020000040000fa
:040338002a04000093
:020000040000fa
:04033c002a0400008f
:020000040000fa
:040340002a0400008b
:020000040000fa
:040344002a04000087
:020000040000fa
:040348002a04000083
:020000040000fa
:04034c002a0400007f
:020000040000fa
:040350002a0400007b
:020000040000fa
:040354002a04000077
:020000040000fa
:040358002a04000073
:020000040000fa
:04035c002a0400006f
:020000040000fa
:040360002a0400006b
:020000040000fa
:040364002a04000067
:020000040000fa
:040368002a04000063
:020000040000fa
:100400002f8420000eff20000e0188000000000055
:10041000000020000000e000020032000001200087
:1004200020028800140007000c0107000000e00013
:1004300003003a0060812000010020000200370024
:100440000000200001002000810f70000100320038
:1004500014000700000020000000e000020032004d
:1004600000000200000000005a0702000000000027
:100470000040da000000fe004440a9000000200017
:100480000000e0000300320000002000a00188000e
:100490004440a800000006008a1f78008b1f7800e7
:1004a0000000060091018800800478000000eb0045
:1004b0001a003700e284440032a0b4009905ba0063
:1004c000e284440032a0b4009906ba00e2844400f9
:1004d00032a0b4000006eb00476fde00fd07b2005b
:1004e000636ce10003003a00ebff07000000eb0043
:1004f0000a003700606ce10004003a00005deb0088
:100500008b05e900fdff3e00040037006168e10053
:10051000010032000086eb000b00070019c7ba008b
:100520001905ba000e04e00003003a000a00e000da
:10053000e0ff3a0000000600fe07b2009e018800be
:100540008a047800f5ff3700395dba008b05e900b1
:100550000c003200295dba008b05e900080032006a
:100560000c00e00003003a00e284440032a0b40032
:10057000f5ff370019ddba008b05e900faff3a00f4
:100580008904e800e184440032a0b40000000600c1
:10059000000000000000000000000000000000005b
:1005a0003600f800809fbe00829fbe00849fbe0080
:1005b000869fbe000000fa008020a9000000eb002a
:1005c0008e0207000080fa004f03be004f02be00fb
:1005d0004f01be004f00be003600f900004006008b
:1005e0003600f800809fbe00829fbe00849fbe0040
:1005f000869fbe000000fa00850207008040a90027
:10060000100020007d0207000080fa004f03be00aa
:100610004f02be004f01be004f00be003600f90081
:10062000004006003600f800809fbe00829fbe009a
:10063000849fbe00869fbe000000fa008060a90073
:10064000200020006d0207000080fa004f03be006a
:100650004f02be004f01be004f00be003600f90041
:10066000004006003600f800809fbe00829fbe005a
:10067000849fbe00869fbe000000fa008080a90013
:10068000300020005d0207000080fa004f03be002a
:100690004f02be004f01be004f00be003600f90001
:1006a000004006003600f800809fbe00829fbe001a
:1006b000849fbe00869fbe000000fa00e0418000db
:1006c000000001003141800020418000808f5000f7
:1006d00002003a009580a900190037008580a90022
:1006e0001000370030418000904078008180fb008e
:1006f000211188000000e80030418800314180006d
:1007000020832000808f500002003a009082200059
:10071000304188003141800020418000808f5000ae
:1007200006003200111180000020200000806000cf
:100730000000e000ebff3200010037000000000085
:100740000080fa004f03be004f02be004f01be0002
:100750004f00be003600f900004006003600f800e9
:10076000809fbe00829fbe00849fbe00869fbe0009
:100770000000fa00f0418000000001008560a9003f
:100780001e00370000418000311180008140780058
:100790000148780001418000a0832000808f500034
:1007a00009003200004180008000e8001041800014
:1007b000808f500004003200004180000000e800fb
:1007c000004188000d00370001418000a083200017
:1007d000808f500007003a001141800020832000e4
:1007e000808f5000030032002083200000418800e9
:1007f0000200370010c0b30028e8b70010118000d5
:10080000610060000000e000deff3a000080fa00b6
:100810004f03be004f02be004f01be004f00be009e
:100820003600f90000400600801f78000000fa0042
:1008300010118000620060000000e0000100320042
:100840002222a9008c20a9000080fa004f00780025
:10085000004006000040da000000fe000000050035
:020000040000fa
:100860000000fa009580a9009560a9008000200092
:10087000001188002222ef0070062000401188003d
:100880009082200030418800908220002041880022
:100890002083200010418800208320000041880030
:1008a0002868ef00c047200007000700a04920008b
:1008b000140007009560a80021e2a8002342a800c8
:1008c0000080fa00000006000200fa00000f780025
:1008d0001e0078000000e00003003a00c04720003e
:1008e000e0418800020037009e007800e141880066
:1008f0000080fa00000006000000fa000080fa0004
:10090000000006000200fa00000f78001e007800c8
:100910000000e00003003a00a0492000f0418800f8
:10092000020037009e007800f14188000080fa0044
:10093000000006000000fa000080fa000000060037
:100940000200fa000040eb00004f780000000000b9
:100950001141800000418000808f5000fcff320078
:1009600010418000104f7800104180000000e80026
:100970001041880011418000b0832000808f50001a
:1009800002003a0020832000104188001e407800b9
:100990000080fa00000006000200fa00004f780014
:1009a000000000001c0007000004a2000004e0009a
:1009b000fcff3a00204180001e4878002041800062
:1009c0000000e800204188002141800020832000b1
:1009d000808f500002003a00908220002041880061
:1009e0009580a8000080fa00000006000000fa00d0
:1009f00011418000004180000080680000f0a700e5
:100a00000000ea000000ea004f00de00004078002d
:100a10000080fa00000006000400fa003141800066
:100a200011079800214180001e009000808f500027
:100a3000060031009e0090002041800000805000a0
:100a40000000e900000f7800050037009e009000cc
:100a5000204180000080500068004000000f7800b6
:100a60001e00780000f0a7000000ea000000ea0085
:100a70004f00de00004078000080fa000000060011
:100a80000000fa002141800030418000808f50003a
:100a900009003a0011118000001020000080600061
:100aa00000f0a7000000ea000000ea004f00de00ae
:100ab00000407800010037000040eb000080fa00a1
:100ac000000006000400fa000141800011079800b0
:100ad000104180009e009000808f50000600310081
:100ae0009e0090001041800000805000690040008e
:100af000000f7800040037009e0090001041800035
:100b000000805000000f7800f00f20009e00780059
:100b1000808f50000200360000c0eb00020037005a
:100b20001e007800004078000080fa0000000600f7
:100b30000400fa0031418000110798002141800033
:100b40001e009000808f5000060031009e00900033
:100b500020418000008050000000e900000f780074
:100b6000050037009e00900020418000008050006a
:100b700068004000000f7800f00f20009e00780011
:100b8000808f50000200360000c0eb0002003700ea
:100b90001e007800004078000080fa000000060087
:100ba0000800fa002007980031079800c5ff0700e9
:100bb0000080fb00000f78003e0090009e0f500068
:100bc00002003100be009000010f78000000eb0031
:100bd000100798000900370059ff0700ae00900089
:100be000804878002e0090000000e8002007980060
:100bf0001e0090000000e800100798001e00900002
:100c00009e0f5000f4ff39001e0078000080fa00ab
:100c1000000006000800fa0020079800310798003d
:100c2000c3ff07000080fb00000f78003e0090002b
:100c30009e0f500002003100be009000010f7800ae
:100c40000000eb0010079800090037002e0090000c
:100c500010407800ae0090008100e8002107980065
:100c60004dff07001e0090000000e80010079800ec
:100c70001e0090009e0f5000f4ff39001e00780007
:100c80000080fa00000006000400fa000000eb00fb
:100c9000000f78008bff070020479800a4ff070093
:100ca000304798002e4090000080fb000000e000dc
:100cb00003003200e90f5000030032000400370047
:100cc0001e20a000040037001e00a0000200370014
:100cd0001e10a000000000003e4090000080fb00bd
:100ce0000000e00003003200e90f50000300320072
:100cf000040037001e30a000020037001e40a00094
:100d0000000000001e0078000080fa0000000600cd
:100d10000400fa0010079800114180001e009000a6
:100d2000008f4000020037009e007800698f50005d
:100d3000b08320009e007800808f5000faff3e00b4
:100d40001e007800104078000080fa0000000600c5
:100d50000000fa005bff07000080fb000000e900d4
:100d60004f00de00004078000080fa00000006001e
:100d70000000fa006eff07000080fb000000e900a1
:100d80004f00de00004078000080fa0000000600fe
:100d90000000fa00101180000080fa000000060038
:100da0000000fa0062ff07000004e00010003200bb
:100db0003141800020418000808f500006003600c5
:100dc0003041800080007800204180000080500089
:100dd0000000e90007003700304180008000780003
:100de0002041800000805000680040000100370072
:100df0000000eb000080fa00000006000000fa008e
:100e000030ff07000004e0001000320011418000b4
:100e100000418000808f50000600360010418000a5
:100e20008000780000418000008050000000e90050
:100e300007003700104180008000780000418000ea
:100e40000080500068004000010037000000eb0007
:100e50000080fa00000006000000fa0021e2a8006d
:100e60002342a8000080fa00000006000000fa00fb
:100e700021e2a9002342a9000080fa000000060038
:100e80000200fa00000f7800040037001e0078000e
:100e9000104078001e0fe800bffe07001e0078001b
:100ea000104078000004e000f8ff3a000080fa00eb
:100eb000000006000200fa006700070068fe070055
:100ec00001003700000000009dfe0700004f780081
:100ed00010c3b3009e40780080cf500001003a005c
:100ee000c402a80000c3b3009e40780080cf500029
:100ef000f4ff3a00c402a900f3ff37000000fa0033
:100f000000102300203a88004827ef004e27ef000a
:100f10007027ef007227ef007427ef007627ef00ad
:100f20000001eb0080072000a1092000337420009d
:100f30008049780081497800824978000001eb00ff
:100f4000600420007105200023742000804978008f
:100f500081497800824978000080fa00000006008c
:100f60000000fa00c422ef00cc22ef00600920004c
:100f700000168800f0f72f00401688005620ef007a
:100f80005820ef005a20ef006e20ef007020ef0095
:100f90007220ef00c622ef00ce22ef00600020009a
:100fa0000027880080012f00102788000080fa00a9
:100fb000000006000000fa0021068000f0f82f0073
:100fc000008060000040a0002006880051058000dd
:100fd00080ff2f00008060000000a0005005880006
:100fe00041058000f0ff28000080600000c0a000e4
:100ff000400588000080fa00000006000200fa00a8
:10100000000f78009e00780001428800ffff370043
:101010000000fa0000802000800778008081200016
:0c102000000188000080fa0000000600bb
:020000040000fa
:10102c00400800000200000002000000ffff00006a
:10103c000008000020000000000000002008000054
:0c104c0020000000000000000000000078
:020000040000fa
:101058000000fa00c0ff0700d4ff0700a5ff070043
:0c106800fdfd07000080fa0000000600fb
:020000040000fa
:0200000401f009
:04000000ffff0000fe
:020000040000fa
:0200000401f009
:04000800ffff0000f6
:020000040000fa
:0200000401f009
:04000c0078ff000079
:020000040000fa
:0200000401f009
:04001000bfff00002e
:020000040000fa
:0200000401f009
:040014005fff00008a
:020000040000fa
:0200000401f009
:04001800ffff0000e6
:020000040000fa
:0200000401f009
:04001c00ffff0000e2
:020000040000fa
:0200000401f009
:04002000ffff0000de
:00000001FF
